:020000020000FC
:0C0000000C9448000C9449030C944B0332
:04003C000C94990384
:04005C000C947E037F
:10008C000C94B003F8940FEF0DBF01E20EBF0027E4
:10009C00F2E0E0E00083F2E0E3E00083F2E0E5E090
:1000AC000083F2E0E7E00083F2E0E8E00083F2E0B6
:1000BC00E9E00083F2E0EBE00083F2E0ECE00083A7
:1000CC00F2E0EDE0008304E1F2E0E6E0008301E021
:1000DC00F2E0EAE000830AE00093690003E00DBB64
:1000EC007894002704BD04E005BD01E000936E0088
:1000FC0000270093B00002E00093B10001E00093F0
:10010C00700001E20093900004E1009391000FEF66
:10011C0000939A000FEF00BB01B907B903E003BBD2
:10012C0008E30DB900EF00930A0100270AB901BBDF
:10013C0002B908B904BB0EB90FEE00930B010F9373
:10014C0008E316D325D30F913DD30F9308E310D3B7
:10015C001FD30F912ED30F9308E30AD319D30F910A
:10016C000F9308E305D314D30F910F9308E000D33A
:10017C000FD30F910F9301E0FBD20AD30F910F9382
:10018C0006E0F6D205D30F910F930EE0F1D200D317
:10019C000F917894F2E0E7E000E000830F9302E324
:1001AC00EED2F6D20F910F9301E3E9D2F1D20F9177
:1001BC000F9302E3E4D2ECD20F910F9301E3DFD261
:1001CC00E7D20F910F9300E2DAD2E2D20F910F93A4
:1001DC0001E3D5D2DDD20F910F9306E3D0D2D8D262
:1001EC000F910F9303E7CBD2D3D20F910F9301E36F
:1001FC00C6D2CED20F910F9300ECBAD2C9D20F91C6
:10020C000F9303E5BCD2C4D20F910F9301E6B7D282
:10021C00BFD20F910F9306E6B2D2BAD20F910F93C1
:10022C0005E6ADD2B5D20F910F9300E2A8D2B0D2B1
:10023C000F910F9303E4A3D2ABD20F910F9302E76C
:10024C009ED2A6D20F910F9301E699D2A1D20F9113
:10025C000F9303E694D29CD20F910F930BE68FD29F
:10026C0097D20F910F9305E68AD292D20F910F93EA
:10027C0002E785D28DD20F910F9300E280D288D203
:10028C000F910F9300E27BD283D20F910F9300E278
:10029C0076D27ED20F910F9305E471D279D20F9161
:1002AC000FE700930B01F2E0E6E0F2E0E7E060819B
:1002BC00F2E0E9E03DE01FEE01E010930B012FEFBF
:1002CC002A95F1F720910901202391F4412F4095B3
:1002DC00402B5081541759F040830E94EF027F3F0E
:1002EC0031F072300C94430275300C94E2023DE014
:1002FC00000F003131F03A9529F730833DE00C9432
:10030C006801110F13951F3FB1F20C946201F2E0DA
:10031C00E7E001E000830F9301E02AD239D20F917C
:10032C000F9302E32CD234D20F910F9301E327D217
:10033C002FD20F910F9302E322D22AD20F910F9357
:10034C0001E31DD225D20F910F9300E218D220D2D7
:10035C000F910F9301E313D21BD20F910F9306E36E
:10036C000ED216D20F910F9303E709D211D20F912F
:10037C000F9301E304D20CD20F910F9300ECF8D140
:10038C0007D20F910F9303E5FAD102D20F910F937D
:10039C0004E7F5D1FDD10F910F9301E6F0D1F8D11F
:1003AC000F910F9302E7EBD1F3D10F910F9304E769
:1003BC00E6D1EED10F910F9309E6E1D1E9D10F917E
:1003CC000F930EE6DCD1E4D10F910F9307E6D7D152
:1003DC00DFD10F910F9300E2D2D1DAD10F910F93AD
:1003EC0009E6CDD1D5D10F910F930EE6C8D1D0D15E
:1003FC000F910F9300E2C3D1CBD10F910F9303E375
:10040C00BED1C6D10F910F930EE2B9D1C1D10F91CC
:10041C000F930EE2B4D1BCD10F910F930EE2AFD17A
:10042C00B7D10F910F9300E1A3D1B2D10F910F93DC
:10043C0000E19ED1ADD10F910F9300E199D1A8D1DC
:10044C000F910F9300E194D1A3D10F91F2E0EDE065
:10045C0000270083F2E0ECE003E000830081005D04
:10046C000F93002F8CD194D10F910F9300E180D179
:10047C008FD10F91003309F0F1CFF2E0E7E002E009
:10048C0000830F9301E074D183D10F910F9302E598
:10049C0076D17ED10F910F9305E671D179D10F9161
:1004AC000F9303E76CD174D10F910F9305E667D1CD
:1004BC006FD10F910F9304E762D16AD10F910F9313
:1004CC0000E25DD165D10F910F9300E558D160D159
:1004DC000F910F930FE453D15BD10F910F9304E560
:1004EC004ED156D10F910F9300E249D151D10F91BA
:1004FC000F9304E744D14CD10F910F930FE63FD1EA
:10050C0047D10F910F9300E23AD142D10F910F9343
:10051C0000E335D13DD10F910F9300EC29D138D1A7
:10052C000F910F9302E52BD133D10F910F9305E669
:10053C0026D12ED10F910F930DE621D129D10F91F8
:10054C000F9301E61CD124D10F910F9309E617D11B
:10055C001FD10F910F930EE612D11AD10F910F9359
:10056C0009E60DD115D10F910F930EE608D110D1DC
:10057C000F910F9307E603D10BD10F910F930AE361
:10058C00FED006D10F910F9300E2F9D001D10F915B
:10059C00F2E0EAE00081003029F000270083F2E06D
:1005AC00E6E00081F2E0ECE0F2E0E7E003E000835B
:1005BC00F2E0E7E004E00083F2E0E7E005E000832E
:1005CC00F2E0E7E006E00083F2E0E7E007E000831A
:1005DC00FFCF0F931F932F933F934F935F936F9383
:1005EC00FF93EF93603001F07FEFF2E0E6E04138EB
:1005FC0041F04238A1F0443801F1483861F10C94D3
:10060C003F0304E100830F9300E1B2D0C1D00F91FE
:10061C000F9305E4B4D0BCD00F910C943F030FE0C2
:10062C0000830F9300E1A4D0B3D00F910F930DE48E
:10063C00A6D0AED00F910C943F030AE000830F9329
:10064C0000E196D0A5D00F910F9308E498D0A0D0DC
:10065C000F910C943F0306E000830F9300E188D0C8
:10066C0097D00F910F9308E58AD092D00F910C94EC
:10067C003F03EF91FF916F915F914F913F912F91BC
:10068C001F910F9108950C9448000F930FB70F937F
:10069C001F93FF93EF93F2E0E8E00081013009F142
:1006AC0001E00083F2E0EBE000270083F2E0E7E0FA
:1006BC000081003039F0063019F0073009F011C014
:1006CC000C944800EF91FF911F910F910FBF0F9168
:1006DC000DB71EB70E5F1F4F0DBF1EBF78940C9445
:1006EC008D01EF91FF911F910F910FBF0F911895F5
:1006FC000F930FB70F93FF93EF93F2E0EDE00081B0
:10070C0003950083043F09F008C000270083F2E042
:10071C00ECE000810A950083F7CFEF91FF910F91E8
:10072C000FBF0F9118950F930FB70F93FF93EF9384
:10073C00F2E0EBE0008103950083083C29F40027EC
:10074C000083F2E0E8E00083EF91FF910F910FBF7F
:10075C000F9118950F930FB70F93FF93EF93F2E050
:10076C00E7E00081EF91FF910F910FBF0F9118956A
:10077C0001BB1FD0169A1DD016981BD0089501BB33
:10078C00179A17D0169A15D0169813D01798089553
:10079C000F93002700BB01BB159A0BD0169A09D0FA
:1007AC000FB1169807FDF9CF15980FEF00BB0F91FD
:1007BC0008958F939F939FE08CE90197F1F79F9198
:1007CC008F910895F6DFF5DFF4DFF3DFF2DF0895A4
:00000001FF
