:020000020000FC
:0C0000000C9448000C943A070C943C0748
:04003C000C94F70722
:04005C000C94B50744
:040074000C94990748
:10008C000C940E08F8940FEF0DBF01E20EBF002781
:10009C00F2E0E0E00083F2E0E3E00083F2E0E5E090
:1000AC000083F2E0E6E00083F2E0E7E00083F2E0B8
:1000BC00E9E00083F2E0EBE00083F2E0ECE00083A7
:1000CC00F2E0EEE00083F2E0EFE00083F2E0E0E14A
:1000DC000083F2E0E2E10083F2E0E3E1008304E17B
:1000EC00F2E0E8E0008301E0F2E0EDE00083F2E012
:1000FC00EAE000830FEFF2E0E1E100830AE0009315
:10010C00690003E00DBB7894002704BD04E005BD35
:10011C0001E000936E0000270093B00002E0009312
:10012C00B10001E00093700001E20093900004E143
:10013C00009391000FEF00939A000FEF00BB01B9F1
:10014C0007B903E003BB08E30DB900EF00930A0104
:10015C0000270AB901BB02B908B904BB0EB90FEEEE
:10016C0000930B010F9308E361D770D70F9188D7D9
:10017C000F9308E35BD76AD70F9179D70F9308E3F6
:10018C0055D764D70F910F9308E350D75FD70F91D2
:10019C000F9308E04BD75AD70F910F9301E046D736
:1001AC0055D70F910F9306E041D750D70F910F936E
:1001BC000EE03CD74BD70F917894F2E0E9E000E0E9
:1001CC0000830F9302E339D741D70F910F9301E3CB
:1001DC0034D73CD70F910F9302E32FD737D70F911A
:1001EC000F9301E32AD732D70F910F9300E225D753
:1001FC002DD70F910F9301E320D728D70F910F9391
:10020C0006E31BD723D70F910F9303E716D71ED7FF
:10021C000F910F9301E311D719D70F910F9300ECA6
:10022C0005D714D70F910F9303E507D70FD70F916D
:10023C000F9301E602D70AD70F910F9306E6FDD66E
:10024C0005D70F910F9305E6F8D600D70F910F93B2
:10025C0000E2F3D6FBD60F910F9303E4EED6F6D65D
:10026C000F910F9302E7E9D6F1D60F910F9301E6A8
:10027C00E4D6ECD60F910F9303E6DFD6E7D60F91B9
:10028C000F930BE6DAD6E2D60F910F9305E6D5D68F
:10029C00DDD60F910F9302E7D0D6D8D60F910F93DE
:1002AC0000E2CBD6D3D60F910F9300E2C6D6CED6B2
:1002BC000F910F9300E2C1D6C9D60F910F9305E4AD
:1002CC00BCD6C4D60F910FE700930B01F2E0E8E027
:1002DC00F2E0E9E06081F2E0EBE03DE01FEE01E0EE
:1002EC0010930B012FEF2A95F1F720910901202390
:1002FC0091F4412F4095402B5081541759F0408375
:10030C000E9468067F3F31F072300C9456027530B3
:10031C000C941D053DE0000F003131F03A9529F7A2
:10032C0030833DE00C947B01110F13951F3FB1F20C
:10033C000C947501F2E0E9E001E000830F9301E019
:10034C0075D684D60F910F9302E377D67FD60F9193
:10035C000F9301E372D67AD60F910F9302E36DD609
:10036C0075D60F910F9301E368D670D60F910F934A
:10037C0000E263D66BD60F910F9301E35ED666D67F
:10038C000F910F9306E359D661D60F910F9303E7A4
:10039C0054D65CD60F910F9301E34FD657D60F91DD
:1003AC000F9300EC43D652D60F910F9303E545D62D
:1003BC004DD60F910F9304E740D648D60F910F936B
:1003CC0001E63BD643D60F910F9302E736D63ED6C5
:1003DC000F910F9304E731D639D60F910F9309E69D
:1003EC002CD634D60F910F930EE627D62FD60F911D
:1003FC000F9307E622D62AD60F910F9300E21DD653
:10040C0025D60F910F9309E618D620D60F910F938E
:10041C000EE613D61BD60F910F9300E20ED616D60E
:10042C000F910F9303E309D611D60F910F930EE2A0
:10043C0004D60CD60F910F930EE2FFD507D60F9171
:10044C000F930EE2FAD502D60F910F9300E1EED581
:10045C00FDD50F910F9300E1E9D5F8D50F910F93CE
:10046C0000E1E4D5F3D50F910F9300E1DFD5EED584
:10047C000F91F2E0E0E100270083F2E0EFE003E00F
:10048C0000830081005D0F93002FD7D5DFD50F912E
:10049C000F9300E1CBD5DAD50F91003309F0F1CFF2
:1004AC00F2E0E9E002E000830F9301E0BFD5CED586
:1004BC000F910F9302E5C1D5C9D50F910F9305E6A6
:1004CC00BCD5C4D50F910F9303E7B7D5BFD50F910A
:1004DC000F9305E6B2D5BAD50F910F9304E7ADD5BE
:1004EC00B5D50F910F9300E2A8D5B0D50F910F930E
:1004FC0000E5A3D5ABD50F910F930FE49ED5A6D5F0
:10050C000F910F9304E599D5A1D50F910F9300E2AC
:10051C0094D59CD50F910F9304E78FD597D50F9158
:10052C000F930FE68AD592D50F910F9300E285D5E4
:10053C008DD50F910F9300E380D588D50F910F9334
:10054C0000EC74D583D50F910F9302E576D57ED54B
:10055C000F910F9305E671D579D50F910F930DE699
:10056C006CD574D50F910F9301E667D56FD50F91AC
:10057C000F9309E662D56AD50F910F930EE65DD500
:10058C0065D50F910F9309E658D560D50F910F9350
:10059C000EE653D55BD50F910F9307E64ED556D586
:1005AC000F910F930AE349D551D50F910F9300E2A8
:1005BC0044D54CD50F910F9300E23FD547D50F9101
:1005CC000F9300E23AD542D50F91F2E0EDE00081B5
:1005DC000030F9F000270083F2E0E0E1002700830F
:1005EC00F2E0E8E00081F2E0EFE000830F9300E13D
:1005FC001DD52CD50F910F9300E118D527D50F9150
:10060C000E94C806F2E0E3E00091B2000695069560
:10061C000083F2E0EFE0D2E0C4E0B2E0A1E10AE74F
:10062C000C930027B2E0A5E00C93B2E0A6E00C938B
:10063C00B2E0A6E00C91013069F10F9300EC00934D
:10064C007C0008E000937B000DEC00937A000F9186
:10065C001881103029F4B2E0A5E001E00C9308C039
:10066C00B2E0A1E10AE70C93B2E0A5E000270C93FD
:10067C000081003011F40C94CA050F9300E1D6D41C
:10068C00E5D40F910F9300E1D1D4E0D40F910E94E7
:10069C00C806CECFF2E0E9E003E000830F9301E05F
:1006AC00C5D4D4D40F910F9306E4C7D4CFD40F91F3
:1006BC000F9309E6C2D4CAD40F910F930EE6BDD4A2
:1006CC00C5D40F910F9304E6B8D4C0D40F910F93F7
:1006DC0000E2B3D4BBD40F910F9300E5AED4B6D4E3
:1006EC000F910F930FE4A9D4B1D40F910F9304E59C
:1006FC00A4D4ACD40F910F9300E29FD4A7D40F9144
:10070C000F9300E59AD4A2D40F910F930FE695D4D2
:10071C009DD40F910F9303E790D498D40F910F931E
:10072C0000EC84D493D40F910F9302E586D48ED42D
:10073C000F910F9305E681D489D40F910F930DE699
:10074C007CD484D40F910F9301E677D47FD40F918E
:10075C000F9309E672D47AD40F910F930EE66DD4F1
:10076C0075D40F910F9309E668D470D40F910F9341
:10077C000EE663D46BD40F910F9307E65ED466D468
:10078C000F910F930AE359D461D40F910F9300E2A8
:10079C0054D45CD40F910F9300E24FD457D40F91E3
:1007AC000F9300E24AD452D40F91F2E0EFE0D2E082
:1007BC00C4E0B2E0A3E02C91B2E0A1E104EF0C9311
:1007CC000027B2E0A5E00C93B2E0A6E00C93B2E0F7
:1007DC00A6E00C91013011F40C9440040F9300EC42
:1007EC0000937C0008E000937B000DEC00937A00F2
:1007FC000F911881121749F40FEF08B903E004BBED
:10080C00B2E0A5E001E00C9323C02CF0002708B95E
:10081C0004BB0C945602B2E0A1E104EF0C93B2E0DD
:10082C00A5E000270C93312F3695422F46953417AF
:10083C0029F0312F3D5F231734F00AC00FEF08B9B0
:10084C0001E004BB05C00FEF08B9002704BB00C0D2
:10085C000081003011F40C94CA050F9300E1E6D32B
:10086C00F5D30F910F9300E1E1D3F0D30F910E94D8
:10087C00C806ADCFF2E0E9E004E00083002708B938
:10088C0004BB0F9301E0D2D3E1D30F910F9300E59A
:10089C00D4D3DCD30F910F930FE6CFD3D7D30F91D3
:1008AC000F9303E7CAD3D2D30F910F9309E6C5D3A5
:1008BC00CDD30F910F9304E7C0D3C8D30F910F93EF
:1008CC0009E6BBD3C3D30F910F930FE6B6D3BED3B8
:1008DC000F910F930EE6B1D3B9D30F910F9300E2A2
:1008EC00ACD3B4D30F910F9306E4A7D3AFD30F912E
:1008FC000F930FE6A2D3AAD30F910F9305E79DD3C5
:10090C00A5D30F910F930EE698D3A0D30F910F930D
:10091C0004E693D39BD30F910F9301E28ED396D31E
:10092C000F910F9300EC82D391D30F910F9303E5AA
:10093C0084D38CD30F910F9303E67FD387D30F917E
:10094C000F9301E67AD382D30F910F930EE675D3F2
:10095C007DD30F910F9300E270D378D30F910F9347
:10096C0006E66BD373D30F910F930FE666D36ED35A
:10097C000F910F9302E761D369D30F910F9300E2AC
:10098C005CD364D30F910F930EE657D35FD30F91C3
:10099C000F9305E752D35AD30F910F930DE64DD316
:1009AC0055D30F910F9302E648D350D30F910F9369
:1009BC0005E643D34BD30F910F9302E73ED346D3B7
:1009CC000F91F2E0ECE000270083F2E0E9E06081B7
:1009DC00F2E0EBE03DE01FEE01E010930B012FEF96
:1009EC002A95F1F720910901202391F4412F40958C
:1009FC00402B5081541759F040830E9468067F3F6A
:100A0C0031F072300C94560275300C941D053DE09B
:100A1C00000F003131F03A9529F730833DE00C940A
:100A2C00F804110F13951F3FB1F20C94F204F2E08D
:100A3C00E9E005E00083F2E0E9E006E000830F93D3
:100A4C0001E0F4D203D30F910F9307E4F6D2FED258
:100A5C000F910F9301E6F1D2F9D20F910F930DE69E
:100A6C00ECD2F4D20F910F9305E6E7D2EFD20F91AF
:100A7C000F9300E2E2D2EAD20F910F9303E6DDD29C
:100A8C00E5D20F910F930FE6D8D2E0D20F910F93CE
:100A9C000DE6D3D2DBD20F910F9300E7CED2D6D294
:100AAC000F910F930CE6C9D2D1D20F910F9305E69B
:100ABC00C4D2CCD20F910F9304E7BFD2C7D20F91FF
:100ACC000F9305E6BAD2C2D20F910F9300ECAED2BF
:100ADC00BDD20F910F9309E5B0D2B8D20F910F93FD
:100AEC000FE6ABD2B3D20F910F9305E7A6D2AED2DD
:100AFC000F910F9300E2A1D2A9D20F910F9307E5AA
:100B0C009CD2A4D20F910F9309E697D29FD20F914A
:100B1C000F930EE692D29AD20F910F9301E28DD2DF
:100B2C0095D20F91F2E0E9E06081F2E0EBE03DE07C
:100B3C001FEE01E010930B012FEF2A95F1F7209196
:100B4C000901202391F4412F4095402B50815417DB
:100B5C0059F040830E9468067F3F31F072300C944C
:100B6C00560275300C941D053DE0000F003131F03C
:100B7C003A9529F730833DE00C94A505110F139598
:100B8C001F3FB1F20C949F05F2E0E9E007E000830F
:100B9C00002708B904BB0F9301E048D257D20F913C
:100BAC000F9307E44AD252D20F910F9301E645D22C
:100BBC004DD20F910F930DE640D248D20F910F9367
:100BCC0005E63BD243D20F910F9300E236D23ED2D0
:100BDC000F910F930FE431D239D20F910F9306E797
:100BEC002CD234D20F910F9305E627D22FD20F912E
:100BFC000F9302E722D22AD20F910F9300EC16D258
:100C0C0025D20F910F9309E518D220D20F910F9393
:100C1C000FE613D21BD20F910F9305E70ED216D20B
:100C2C000F910F9300E209D211D20F910F930CE4A4
:100C3C0004D20CD20F910F930FE6FFD107D20F9174
:100C4C000F9303E7FAD102D20F910F9305E6F5D17A
:100C5C00FDD10F910F9301E2F0D1F8D10F91F2E099
:100C6C00E9E06081F2E0EBE03DE01FEE01E0109383
:100C7C000B012FEF2A95F1F720910901202391F414
:100C8C00412F4095402B5081541759F040830E94BE
:100C9C0068067F3F31F072300C94560275300C941C
:100CAC001D053DE0000F003131F03A9529F73083F6
:100CBC003DE00C944206110F13951F3FB1F20C94BA
:100CCC003C06FFCF0F931F932F933F934F935F934C
:100CDC006F93FF93EF93603031F0673011F0663013
:100CEC0001F00C9448007FEFF2E0E8E0413841F06D
:100CFC004238A1F0443801F1483861F10C94BE0639
:100D0C0004E100830F9300E191D1A0D10F910F93D7
:100D1C0005E493D19BD10F910C94BE060FE0008398
:100D2C000F9300E183D192D10F910F930DE485D1F4
:100D3C008DD10F910C94BE060AE000830F9300E155
:100D4C0075D184D10F910F9308E477D17FD10F9196
:100D5C000C94BE0606E000830F9300E167D176D1B8
:100D6C000F910F9308E569D171D10F910C94BE06C8
:100D7C00EF91FF916F915F914F913F912F911F9147
:100D8C000F9108950F931F930F921F920F930027AB
:100D9C000A300F9131F000240A3018F00A500394F5
:100DAC00FBCF102D105D103331F00F93012F45D177
:100DBC004DD10F9105C00F9300E23FD147D10F9158
:100DCC000F93002701300F9131F00024013018F0FF
:100DDC0001500394FBCF102D105D0F93012F2DD1DB
:100DEC0035D10F911F900F901F910F9108952F9354
:100DFC003F933327321741F000240217130720F0DA
:100E0C00021B130B0394F9CF3F912F9108950F936D
:100E1C00002D003091F0013091F0023091F0033050
:100E2C0091F0043091F0053091F0063091F00730DC
:100E3C0091F0083091F0093091F008E212C001E114
:100E4C0010C001E20EC001E40CC002E10AC002E2D3
:100E5C0008C002E406C004E104C004E202C004E4D9
:100E6C0000C0002E0F9108950C9448000F930FB7FB
:100E7C000F931F93FF93EF93F2E0EAE000810130B0
:100E8C0011F40C94920701E00083F2E0EEE00027ED
:100E9C000083F2E0E9E00081003039F0063019F00F
:100EAC00073009F039C00C944800EF91FF911F9165
:100EBC000F910FBF0F9128EE33E000912600109197
:100ECC00B2001695079516950795169507951695E4
:100EDC0007951695079516950795021713070CF0AD
:100EEC000851F2E0E0E024E60E94FD060E940D07A6
:100EFC0001922AE00E94FD060E940D070192002E2D
:100F0C000E940D0701930DB71EB70E5F1F4F0DBF4B
:100F1C001EBF78940C94A001EF91FF911F910F913B
:100F2C000FBF0F9118950F930FB70F931F93FF934C
:100F3C00EF9300917800109179001695079516950E
:100F4C0007951695079516950795F2E0E4E0008352
:100F5C00EF91FF911F910F910FBF0F9118950F9368
:100F6C000FB70F931F932F93FF93EF93F2E0E9E0EA
:100F7C000081F2E0E0E1108113951083143FB1F091
:100F8C00F2E0E5E01081103039F0F2E0E1E110819F
:100F9C001A951083103091F00630D9F4F2E0E2E1AA
:100FAC001081139510831D3371F013C0112710831A
:100FBC00F2E0EFE010811A951083E2CFF2E0E6E068
:100FCC0011E01083E9CF112710831EB128E02127EF
:100FDC002EB9EF91FF912F911F910F910FBF0F9190
:100FEC0018950F930FB70F93FF93EF93F2E0EEE08A
:100FFC00008103950083003F29F400270083F2E071
:10100C00EAE00083EF91FF910F910FBF0F911895BC
:10101C000F930FB70F93FF93EF93F2E0E9E000818A
:10102C00EF91FF910F910FBF0F91189501BB1FD03E
:10103C00169A1DD016981BD0089501BB179A17D07D
:10104C00169A15D0169813D0179808950F93002759
:10105C0000BB01BB159A0BD0169A09D00FB116988C
:10106C0007FDF9CF15980FEF00BB0F9108958F93E3
:10107C009F939FE08CE90197F1F79F918F910895D1
:0C108C00F6DFF5DFF4DFF3DFF2DF08959C
:00000001FF
