:020000020000FC
:0C0000000C9448000C94180B0C941A0B84
:04003C000C94440CD0
:04005C000C94AB0B4A
:040074000C948F0B4E
:10008C000C945B0CF8940FEF0DBF01E20EBF002730
:10009C00F2E0E0E00083F2E0E3E00083F2E0E5E090
:1000AC000083F2E0E6E00083F2E0E7E00083F2E0B8
:1000BC00EAE00083F2E0ECE00083F2E0EDE00083A4
:1000CC00F2E0E0E10083F2E0E1E10083F2E0E2E162
:1000DC000083F2E0E9E00083F2E0E4E10083F2E087
:1000EC00E5E10083F2E0E6E10083F2E0E7E1008382
:1000FC0004E1F2E0E8E0008305E0F2E0E8E10083EF
:10010C0001E0F2E0EEE00083F2E0EBE00083F2E0ED
:10011C00EFE000830FEFF2E0E3E100830AE00093ED
:10012C006900002704BD04E005BD01E000936E00EA
:10013C0000270093B00002E00093B10001E00093AF
:10014C00700001E2009390000CE0009391000FEF1F
:10015C0000939A0001E0009371000FEF00BB01B90E
:10016C0007B903E003BB08E30DB900EF00930A01E4
:10017C0001E004B900270AB901BB02B908B904BBF4
:10018C000EB905B90FEE00930B01FF93EF930F938C
:10019C00F2E0EFE001E000830F91EF91FF910F93FC
:1001AC0008E30E94830C0E94930C0F910E94AD0CEB
:1001BC000F9308E30E94830C0E94930C0F910E94F2
:1001CC00A40C0F9308E30E94830C0E94930C0F91D4
:1001DC000F9308E30E94830C0E94930C0F910F93D2
:1001EC0008E00E94830C0E94930C0F910F9301E086
:1001FC000E94830C0E94930C0F910F9306E00E94B7
:10020C00830C0E94930C0F910F930CE00E94830CB3
:10021C000E94930C0F917894F2E0EAE000E00083E6
:10022C000F9302E30E948A0C0E94930C0F910F9380
:10023C0001E30E948A0C0E94930C0F910F9302E32E
:10024C000E948A0C0E94930C0F910F9301E30E9461
:10025C008A0C0E94930C0F910F9300E20E948A0C5F
:10026C000E94930C0F910F9301E30E948A0C0E9441
:10027C00930C0F910F9306E30E948A0C0E94930C2F
:10028C000F910F9303E70E948A0C0E94930C0F911D
:10029C000F9301E30E948A0C0E94930C0F910F9311
:1002AC0000EC0E94830C0E94930C0F910F9303E5BA
:1002BC000E948A0C0E94930C0F910F9301E60E94EE
:1002CC008A0C0E94930C0F910F9306E60E948A0CE5
:1002DC000E94930C0F910F9305E60E948A0C0E94CA
:1002EC00930C0F910F9300E20E948A0C0E94930CC6
:1002FC000F910F9303E40E948A0C0E94930C0F91B0
:10030C000F9302E70E948A0C0E94930C0F910F939B
:10031C0001E60E948A0C0E94930C0F910F9303E646
:10032C000E948A0C0E94930C0F910F930BE60E9473
:10033C008A0C0E94930C0F910F9305E60E948A0C75
:10034C000E94930C0F910F9302E70E948A0C0E945B
:10035C00930C0F910F9300E20E948A0C0E94930C55
:10036C000F910F9300E20E948A0C0E94930C0F9144
:10037C000F9300E20E948A0C0E94930C0F910F9332
:10038C0005E40E948A0C0E94930C0F910FE70093D6
:10039C000B01F2E0E8E003E00DBBF2E0EAE0608183
:1003AC00F2E0ECE03DE01FEE01E010930B012FEFCB
:1003BC002A95F1F7209109012023A9F5412F4095A9
:1003CC00402BFF93EF930F93F2E0EFE001E00083FB
:1003DC000F91EF91FF91FF93EF930F9305E0F2E0F4
:1003EC00E8E100830027F2E0E7E100830F91EF9151
:1003FC00FF915081541789F040830E94DB097F3FA5
:10040C0061F0723011F40C943003753011F40C94CB
:10041C00FD06763011F40C94C4073DE0643019F4F9
:10042C00332730833DE0000F003181F03A9511F60F
:10043C0030833DE08EB18F7D8EB98827D2E0CDE040
:10044C008883D2E0C5E188830C94E001110F1395E9
:10045C001F3F11F00C94DA010C94D901F2E0EAE0A0
:10046C0001E00083F2E0E9E001E000830F9301E09A
:10047C000E94830C0E94930C0F910F9302E30E9435
:10048C008A0C0E94930C0F910F9301E30E948A0C2B
:10049C000E94930C0F910F9302E30E948A0C0E940E
:1004AC00930C0F910F9301E30E948A0C0E94930C02
:1004BC000F910F9300E20E948A0C0E94930C0F91F3
:1004CC000F9301E30E948A0C0E94930C0F910F93DF
:1004DC0006E30E948A0C0E94930C0F910F9303E782
:1004EC000E948A0C0E94930C0F910F9301E30E94BF
:1004FC008A0C0E94930C0F910F9300EC0E94830CBA
:10050C000E94930C0F910F9303E50E948A0C0E949A
:10051C00930C0F910F9304E70E948A0C0E94930C8A
:10052C000F910F9301E60E948A0C0E94930C0F917D
:10053C000F9302E70E948A0C0E94930C0F910F9369
:10054C0004E70E948A0C0E94930C0F910F9309E60A
:10055C000E948A0C0E94930C0F910F930EE60E943E
:10056C008A0C0E94930C0F910F9307E60E948A0C41
:10057C000E94930C0F910F9300E20E948A0C0E9430
:10058C00930C0F910F9309E60E948A0C0E94930C16
:10059C000F910F930EE60E948A0C0E94930C0F9100
:1005AC000F9300E20E948A0C0E94930C0F910F9300
:1005BC0003E30E948A0C0E94930C0F910F930EE29E
:1005CC000E948A0C0E94930C0F910F930EE20E94D2
:1005DC008A0C0E94930C0F910F930EE20E948A0CCE
:1005EC000E94930C0F910F9300E10E94830C0E94C8
:1005FC00930C0F910F9300E10E94830C0E94930CBB
:10060C000F910F9300E10E94830C0E94930C0F91A9
:10061C000F9300E10E94830C0E94930C0F91F2E067
:10062C00E2E100270083F2E0E1E103E000830081D6
:10063C00005D0F93002F0E948A0C0E94930C0F9167
:10064C000F9300E10E94830C0E94930C0F910033D6
:10065C0009F0EDCFF2E0EAE002E00083F2E0E9E03D
:10066C0001E000830EB10F7D0EB9F2E0EDE0002742
:10067C0000830F9301E00E94830C0E94930C0F9156
:10068C000F9302E50E948A0C0E94930C0F910F931A
:10069C0005E60E948A0C0E94930C0F910F9303E7BE
:1006AC000E948A0C0E94930C0F910F9305E60E94F6
:1006BC008A0C0E94930C0F910F9304E70E948A0CF2
:1006CC000E94930C0F910F9300E20E948A0C0E94DF
:1006DC00930C0F910F9300E50E948A0C0E94930CCF
:1006EC000F910F930FE40E948A0C0E94930C0F91B0
:1006FC000F9304E50E948A0C0E94930C0F910F93A8
:10070C0000E20E948A0C0E94930C0F910F9304E755
:10071C000E948A0C0E94930C0F910F930FE60E947B
:10072C008A0C0E94930C0F910F9300E20E948A0C8A
:10073C000E94930C0F910F9300E30E948A0C0E946D
:10074C00930C0F910F9300EC0E94830C0E94930C5E
:10075C000F910F9302E50E948A0C0E94930C0F914B
:10076C000F9305E60E948A0C0E94930C0F910F9335
:10077C000DE60E948A0C0E94930C0F910F9301E6D8
:10078C000E948A0C0E94930C0F910F9309E60E9411
:10079C008A0C0E94930C0F910F930EE60E948A0C08
:1007AC000E94930C0F910F9309E60E948A0C0E94F1
:1007BC00930C0F910F930EE60E948A0C0E94930CDF
:1007CC000F910F9307E60E948A0C0E94930C0F91D5
:1007DC000F930AE30E948A0C0E94930C0F910F93C3
:1007EC0000E20E948A0C0E94930C0F910F9300E27E
:1007FC000E948A0C0E94930C0F910F9300E20E94AE
:10080C008A0C0E94930C0F91F2E0EEE00081003014
:10081C0069F1002700830F93FF93EF93F2E0E6E179
:10082C000AE70083EF91FF910F91F2E0E2E10027DC
:10083C000083F2E0E8E00081F2E0E1E100830F9355
:10084C0000E10E94830C0E94930C0F910F9300E126
:10085C000E94830C0E94930C0F910E94A00AF2E05C
:10086C00E3E00091B200069506950083F2E0E1E129
:10087C00D2E0C4E0B2E0A3E10AE70C930027B2E0B7
:10088C00A5E00C93B2E0A6E00C93B2E0A6E00C91CC
:10089C00013089F10F9300EC00937C0008E0009389
:1008AC007B000DEC00937A000F911881103029F425
:1008BC00B2E0A5E001E00C9308C0B2E0A3E10AE7C6
:1008CC000C93B2E0A5E000270C930081003011F4EA
:1008DC000C94D8080F9300E10E94830C0E94930C97
:1008EC000F910F9300E10E94830C0E94930C0F91C7
:1008FC000E94A00ACACFF2E0EAE003E00083F2E033
:10090C00E9E001E000830F9301E00E94830C0E9458
:10091C00930C0F910F9306E40E948A0C0E94930C87
:10092C000F910F9309E60E948A0C0E94930C0F9171
:10093C000F930EE60E948A0C0E94930C0F910F935A
:10094C0004E60E948A0C0E94930C0F910F9300E214
:10095C000E948A0C0E94930C0F910F9300E50E9449
:10096C008A0C0E94930C0F910F930FE40E948A0C37
:10097C000E94930C0F910F9304E50E948A0C0E9425
:10098C00930C0F910F9300E20E948A0C0E94930C1F
:10099C000F910F9300E50E948A0C0E94930C0F910B
:1009AC000F930FE60E948A0C0E94930C0F910F93E9
:1009BC0003E70E948A0C0E94930C0F910F9300EC9A
:1009CC000E94830C0E94930C0F910F9302E50E94DE
:1009DC008A0C0E94930C0F910F9305E60E948A0CCF
:1009EC000E94930C0F910F930DE60E948A0C0E94AB
:1009FC00930C0F910F9301E60E948A0C0E94930CAA
:100A0C000F910F9309E60E948A0C0E94930C0F9190
:100A1C000F930EE60E948A0C0E94930C0F910F9379
:100A2C0009E60E948A0C0E94930C0F910F930EE61C
:100A3C000E948A0C0E94930C0F910F9307E60E9460
:100A4C008A0C0E94930C0F910F930AE30E948A0C5C
:100A5C000E94930C0F910F9300E20E948A0C0E944B
:100A6C00930C0F910F9300E20E948A0C0E94930C3E
:100A7C000F910F9300E20E948A0C0E94930C0F912D
:100A8C00F2E0E1E1D2E0C4E0B2E0A3E02C91B2E00C
:100A9C00A3E104EF0C930027B2E0A5E00C93B2E0C5
:100AAC00A6E00C93B2E0A6E00C91013011F40C948A
:100ABC00AD050F9300EC00937C0008E000937B00E5
:100ACC000DEC00937A000F911881121749F40FEF77
:100ADC0008B903E004BBB2E0A5E001E00C9321C02F
:100AEC002CF0002708B904BB0C943003B2E0A3E14E
:100AFC0004EF0C93B2E0A5E000270C93312F3E5F7E
:100B0C0023172CF0312F3D5F231734F00AC00FEF61
:100B1C0008B901E004BB05C00FEF08B9002704BBFE
:100B2C0000C00081003011F40C94D8080F9300E140
:100B3C000E94830C0E94930C0F910F9300E10E9472
:100B4C00830C0E94930C0F910E94A00AABCFF2E091
:100B5C00EAE004E00083F2E0E9E0002700830027EC
:100B6C0008B904BB0F9301E00E94830C0E94930C04
:100B7C000F910F9300E50E948A0C0E94930C0F9129
:100B8C000F930FE60E948A0C0E94930C0F910F9307
:100B9C0003E70E948A0C0E94930C0F910F9309E6B5
:100BAC000E948A0C0E94930C0F910F9304E70E94F1
:100BBC008A0C0E94930C0F910F9309E60E948A0CE9
:100BCC000E94930C0F910F930FE60E948A0C0E94C7
:100BDC00930C0F910F930EE60E948A0C0E94930CBB
:100BEC000F910F9300E20E948A0C0E94930C0F91BC
:100BFC000F9306E40E948A0C0E94930C0F910F93A2
:100C0C000FE60E948A0C0E94930C0F910F9305E73C
:100C1C000E948A0C0E94930C0F910F930EE60E9477
:100C2C008A0C0E94930C0F910F9304E60E948A0C7D
:100C3C000E94930C0F910F9301E20E948A0C0E9468
:100C4C00930C0F910F9300EC0E94830C0E94930C59
:100C5C000F910F9303E50E948A0C0E94930C0F9145
:100C6C000F9303E60E948A0C0E94930C0F910F9332
:100C7C0001E60E948A0C0E94930C0F910F930EE6D2
:100C8C000E948A0C0E94930C0F910F9300E20E9419
:100C9C008A0C0E94930C0F910F9306E60E948A0C0B
:100CAC000E94930C0F910F930FE60E948A0C0E94E6
:100CBC00930C0F910F9302E70E948A0C0E94930CE5
:100CCC000F910F9300E20E948A0C0E94930C0F91DB
:100CDC000F930EE60E948A0C0E94930C0F910F93B7
:100CEC0005E70E948A0C0E94930C0F910F930DE65E
:100CFC000E948A0C0E94930C0F910F9302E60E94A3
:100D0C008A0C0E94930C0F910F9305E60E948A0C9B
:100D1C000E94930C0F910F9302E70E948A0C0E9481
:100D2C00930C0F91F2E0EDE000270083F2E0EAE093
:100D3C006081F2E0ECE03DE01FEE01E010930B016E
:100D4C002FEF2A95F1F7209109012023A9F5412FC6
:100D5C004095402BFF93EF930F93F2E0EFE001E00F
:100D6C0000830F91EF91FF91FF93EF930F9305E0A9
:100D7C00F2E0E8E100830027F2E0E7E100830F9165
:100D8C00EF91FF915081541789F040830E94DB0949
:100D9C007F3F61F0723011F40C943003753011F414
:100DAC000C94FD06763011F40C94C4073DE06430CD
:100DBC0019F4332730833DE0000F003181F03A9570
:100DCC0011F630833DE08EB18F7D8EB98827D2E04D
:100DDC00CDE08883D2E0C5E188830C94A906110F7D
:100DEC0013951F3F11F00C94A3060C94A206F2E08D
:100DFC00EAE005E00083F2E0E9E0002700830EB1B1
:100E0C000F7D0EB90027F2E0EDE00083F2E0E7E0A1
:100E1C0000830F9301E00E94830C0E94930C0F91AE
:100E2C000F9305E40E948A0C0E94930C0F910F9370
:100E3C000EE60E948A0C0E94930C0F910F9304E70C
:100E4C000E948A0C0E94930C0F910F9305E60E944E
:100E5C008A0C0E94930C0F910F9302E70E948A0C4C
:100E6C000E94930C0F910F9300E20E948A0C0E9437
:100E7C00930C0F910F9303E40E948A0C0E94930C25
:100E8C000F910F930FE60E948A0C0E94930C0F9106
:100E9C000F9304E60E948A0C0E94930C0F910F93FF
:100EAC0005E60E948A0C0E94930C0F910F9300ECA4
:100EBC000E94830C0E94930C0F91F2E0EAE0608197
:100ECC00F2E0ECE03DE01FEE01E010930B012FEFA0
:100EDC002A95F1F7209109012023A9F5412F40957E
:100EEC00402BFF93EF930F93F2E0EFE001E00083D0
:100EFC000F91EF91FF91FF93EF930F9305E0F2E0C9
:100F0C00E8E100830027F2E0E7E100830F91EF9125
:100F1C00FF915081541789F040830E94DB097F3F79
:100F2C0061F0723011F40C943003753011F40C94A0
:100F3C00FD06763011F40C94C4073DE0643019F4CE
:100F4C00332730833DE0000F003181F03A9511F6E4
:100F5C0030833DE08EB18F7D8EB98827D2E0CDE015
:100F6C008883D2E0C5E188830C947007110F139528
:100F7C001F3F11F00C946A070C946907F2E0EAE049
:100F8C0006E00083F2E0E9E0002700830F93FF9373
:100F9C00EF93F2E0E6E104EF0083EF91FF910F9104
:100FAC000F9301E00E94830C0E94930C0F910F93FE
:100FBC0007E40E948A0C0E94930C0F910F9301E698
:100FCC000E948A0C0E94930C0F910F930DE60E94C5
:100FDC008A0C0E94930C0F910F9305E60E948A0CC9
:100FEC000E94930C0F910F9300E20E948A0C0E94B6
:100FFC00930C0F910F9303E60E948A0C0E94930CA2
:10100C000F910F930FE60E948A0C0E94930C0F9184
:10101C000F930DE60E948A0C0E94930C0F910F9374
:10102C0000E70E948A0C0E94930C0F910F930CE620
:10103C000E948A0C0E94930C0F910F9305E60E945C
:10104C008A0C0E94930C0F910F9304E70E948A0C58
:10105C000E94930C0F910F9305E60E948A0C0E943C
:10106C00930C0F910F9300EC0E94830C0E94930C35
:10107C000F910F9309E50E948A0C0E94930C0F911B
:10108C000F930FE60E948A0C0E94930C0F910F9302
:10109C0005E70E948A0C0E94930C0F910F9300E2BB
:1010AC000E948A0C0E94930C0F910F9307E50E94EB
:1010BC008A0C0E94930C0F910F9309E60E948A0CE4
:1010CC000E94930C0F910F930EE60E948A0C0E94C3
:1010DC00930C0F910F9301E20E948A0C0E94930CC7
:1010EC000F91F2E0EAE06081F2E0ECE03DE01FEE0F
:1010FC0001E010930B012FEF2A95F1F720910901D4
:10110C002023A9F5412F4095402BFF93EF930F938C
:10111C00F2E0EFE001E000830F91EF91FF91FF937C
:10112C00EF930F9305E0F2E0E8E100830027F2E093
:10113C00E7E100830F91EF91FF915081541789F0F3
:10114C0040830E94DB097F3F61F0723011F40C94F4
:10115C003003753011F40C94FD06763011F40C94B8
:10116C00C4073DE0643019F4332730833DE0000FB1
:10117C00003181F03A9511F630833DE08EB18F7DD0
:10118C008EB98827D2E0CDE08883D2E0C5E1888390
:10119C000C948408110F13951F3F11F00C947E08CA
:1011AC000C947D08F2E0EAE007E00083F2E0E9E06D
:1011BC00002700830F93FF93EF93F2E0E6E104EF37
:1011CC000083EF91FF910F91002708B904BB0F9397
:1011DC0001E00E94830C0E94930C0F910F9307E483
:1011EC000E948A0C0E94930C0F910F9301E60E94AF
:1011FC008A0C0E94930C0F910F930DE60E948A0C9F
:10120C000E94930C0F910F9305E60E948A0C0E948A
:10121C00930C0F910F9300E20E948A0C0E94930C86
:10122C000F910F930FE40E948A0C0E94930C0F9164
:10123C000F9306E70E948A0C0E94930C0F910F9358
:10124C0005E60E948A0C0E94930C0F910F9302E703
:10125C000E948A0C0E94930C0F910F9300EC0E9439
:10126C00830C0E94930C0F910F9309E50E948A0C3A
:10127C000E94930C0F910F930FE60E948A0C0E9410
:10128C00930C0F910F9305E70E948A0C0E94930C0C
:10129C000F910F9300E20E948A0C0E94930C0F9105
:1012AC000F930CE40E948A0C0E94930C0F910F93E5
:1012BC000FE60E948A0C0E94930C0F910F9303E788
:1012CC000E948A0C0E94930C0F910F9305E60E94CA
:1012DC008A0C0E94930C0F910F9301E20E948A0CCE
:1012EC000E94930C0F91F2E0EAE06081F2E0ECE0F6
:1012FC003DE01FEE01E010930B012FEF2A95F1F763
:10130C00209109012023A9F5412F4095402BFF93F3
:10131C00EF930F93F2E0EFE001E000830F91EF9178
:10132C00FF91FF93EF930F9305E0F2E0E8E1008368
:10133C000027F2E0E7E100830F91EF91FF915081DC
:10134C00541789F040830E94DB097F3F61F07230B3
:10135C0011F40C943003753011F40C94FD067630B6
:10136C0011F40C94C4073DE0643019F43327308336
:10137C003DE0000F003181F03A9511F630833DE0ED
:10138C008EB18F7D8EB98827D2E0CDE08883D2E0F4
:10139C00C5E188830C948609110F13951F3F11F03A
:1013AC000C9480090C947F09FFCF0F931F932F93FC
:1013BC003F934F935F936F93FF93EF93603081F064
:1013CC00643011F40C944B0A653011F40C94790AC6
:1013DC00673021F0663011F00C94960A0C9448009A
:1013EC007FEFF2E0E8E0413841F04238C1F0443898
:1013FC0041F14838C1F10C94960A04E100830F9333
:10140C0000E10E94830C0E94930C0F910F9305E452
:10141C000E948A0C0E94930C0F910C94960A0FE078
:10142C0000830F9300E10E94830C0E94930C0F9198
:10143C000F930DE40E948A0C0E94930C0F910C9454
:10144C00960A0AE000830F9300E10E94830C0E942D
:10145C00930C0F910F9308E40E948A0C0E94930C3A
:10146C000F910C94960A06E000830F9300E10E9402
:10147C00830C0E94930C0F910F9308E50E948A0C29
:10148C000E94930C0F910C94960A7FEFF2E0E7E028
:10149C001081F2E0E0E0E10F1127F11F008140170D
:1014AC0059F02EB12F7D2EB92227F2E0EDE02083EA
:1014BC00F2E0E5E1208334C02EB120622EB9F2E0D7
:1014CC00EDE021E02083F2E0EEE02081203041F1DC
:1014DC00F2E0E7E0208123952083233011F072E0C5
:1014EC001FC075E01DC07FEFF2E0E7E01081F2E075
:1014FC00E0E0E10F1127F11F0081401711F075E0BA
:10150C000FC0F2E0E7E01081139510830F930AE20D
:10151C000E948A0C0E94930C0F91133009F476E010
:10152C00EF91FF916F915F914F913F912F911F918F
:10153C000F9108950F931F930F921F920F930027F3
:10154C000A300F9131F000240A3018F00A5003943D
:10155C00FBCF102D105D103341F00F93012F0E9423
:10156C008A0C0E94930C0F9107C00F9300E20E940B
:10157C008A0C0E94930C0F910F93002701300F914E
:10158C0031F00024013018F001500394FBCF102DE2
:10159C00105D0F93012F0E948A0C0E94930C0F91E7
:1015AC001F900F901F910F9108952F933F93332706
:1015BC00321741F000240217130720F0021B130B03
:1015CC000394F9CF3F912F9108950F93002D003084
:1015DC0091F0013091F0023091F0033091F0043031
:1015EC0091F0053091F0063091F0073091F0083011
:1015FC0091F0093091F008E212C001E110C001E253
:10160C000EC001E40CC002E10AC002E208C002E410
:10161C0006C004E104C004E202C004E400C0002ED1
:10162C000F9108950C9448000F930FB70F931F93CD
:10163C00FF93EF93FF93EF930F93F2E0EFE001E052
:10164C0000830F91EF91FF91FF93EF930F9305E0C0
:10165C00F2E0E8E100830027F2E0E7E100830F917C
:10166C00EF91FF91F2E0EBE00081013011F40C946A
:10167C00880B01E00083F2E0E0E100270083F2E058
:10168C00EAE00081003039F0063019F0073009F03B
:10169C0039C00C944800EF91FF911F910F910FBF2F
:1016AC000F9128EE33E0009126001091B2001695B0
:1016BC000795169507951695079516950795169502
:1016CC00079516950795021713070CF00851F2E0D1
:1016DC00E0E024E60E94DB0A0E94EB0A01922AE079
:1016EC000E94DB0A0E94EB0A0192002E0E94EB0A78
:1016FC0001920DB71EB70E5F1F4F0DBF1EBF789422
:10170C000C943402EF91FF911F910F910FBF0F9129
:10171C0018950F930FB70F931F93FF93EF930091AF
:10172C0078001091790016950795169507951695E2
:10173C00079516950795F2E0E4E00083EF91FF9191
:10174C001F910F910FBF0F9118950F930FB70F9318
:10175C001F932F93FF93EF93F2E0EAE00081F2E006
:10176C00E6E11081103031F01A95108315B121E0AB
:10177C00122715B9F2E0E2E1108113951083143FA2
:10178C00C9F1F2E0E5E01081103049F0F2E0E3E15C
:10179C0010811A951083103011F40C94170C04302E
:1017AC0089F4F2E0EDE01081103041F0F2E0E5E177
:1017BC00108113951083143FC9F104C0F2E0E5E1E8
:1017CC0011271083063039F4F2E0E4E1108113950F
:1017DC0010831D3381F1003029F0063019F00730E9
:1017EC0009F044C0F2E0E7E1108113951083143F37
:1017FC0049F13CC011271083F2E0E9E01081103070
:10180C0051F00F93FF93EF93F2E0E6E10DE30083C9
:10181C00EF91FF910F91F2E0E1E110811A951083A5
:10182C00B0CFF2E0E6E011E01083B9CFF2E0EEE0E9
:10183C0011E01083C7CF112710831EB128E0212798
:10184C002EB9C9CF11271083F2E0E8E110811030D6
:10185C0019F01A95108351F4FF93EF930F93F2E064
:10186C00EFE000E000830F91EF91FF91EF91FF917A
:10187C002F911F910F910FBF0F9118950F930FB7C9
:10188C000F93FF93EF93F2E0E0E100810395008367
:10189C00003F29F400270083F2E0EBE00083EF9196
:1018AC00FF910F910FBF0F9118950F930FB70F93D7
:1018BC001F93FF93EF9310919A00F2E0EFE00081F9
:1018CC00003059F01F3F91F0139510939A001F3F71
:1018DC0069F0139510939A0009C0103039F01A95DD
:1018EC0010939A0019F01A9510939A00EF91FF91AA
:1018FC001F910F910FBF0F91189501BB1FD0169A16
:10190C001DD016981BD0089501BB179A17D0169AA4
:10191C0015D0169813D0179808950F93002700BB75
:10192C0001BB159A0BD0169A09D00FB1169807FD6A
:10193C00F9CF15980FEF00BB0F9108958F939F93DC
:10194C009FE08CE90197F1F79F918F910895F6DF55
:0A195C00F5DFF4DFF3DFF2DF08959A
:00000001FF
