:020000020000FC
:0C0000000C9448000C94AF010C94B0016B
:04005C000C94B1014E
:10008C000C94B201F8940FEF0DBF01E20EBF0027E4
:10009C00F2E0E0E00083F2E0E3E00083F2E0E5E090
:1000AC000083F2E0E7E00083F2E0E8E00083F2E0B6
:1000BC00E9E0008304E1F2E0E6E000830AE000936B
:1000CC00690003E000931D0000270093240004E066
:1000DC000093250001E000936E0001E20093900074
:1000EC0004E1009391000FEF00939A000FEF00BB17
:1000FC0001B907B903E003BB08E30DB900EF0093A6
:10010C000A01002701BB02B908B904BB0EB90FEEF6
:10011C0000930B010F9308E32DD13CD10F9154D1D7
:10012C000F9308E327D136D10F9145D10F9308E3F4
:10013C0021D130D10F910F9308E31CD12BD10F910A
:10014C000F9308E017D126D10F910F9301E012D134
:10015C0021D10F910F9306E00DD11CD10F910F936C
:10016C000EE008D117D10F917894F2E0E7E000E0AF
:10017C0000830F9302E305D10DD10F910F9301E38F
:10018C0000D108D10F910F9302E3FBD003D10F9153
:10019C000F9301E3F6D0FED00F910F9300E2F1D054
:1001AC00F9D00F910F9301E3ECD0F4D00F910F9392
:1001BC0006E3E7D0EFD00F910F9303E7E2D0EAD03C
:1001CC000F910F9301E3DDD0E5D00F910F9300EC6D
:1001DC00D1D0E0D00F910F9303E5D3D0DBD00F91AA
:1001EC000F9301E6CED0D6D00F910F9306E6C9D06F
:1001FC00D1D00F910F9305E6C4D0CCD00F910F93B3
:10020C0000E2BFD0C7D00F910F9303E4BAD0C2D095
:10021C000F910F9302E7B5D0BDD00F910F9301E66C
:10022C00B0D0B8D00F910F9303E6ABD0B3D00F91F1
:10023C000F930BE6A6D0AED00F910F9305E6A1D08D
:10024C00A9D00F910F9302E79CD0A4D00F910F93DC
:10025C0000E297D09FD00F910F9300E292D09AD0EA
:10026C000F910F9300E28DD095D00F910F9305E471
:10027C0088D090D00F910FE700930B01F2E0E6E0ED
:10028C00F2E0E9E01FEE01E010930B012FEF2A954D
:10029C00F1F720910901202319F40E94AE013DE0F1
:1002AC00000F003129F03A95A1F730833DE0F1CFF2
:1002BC00110F13951F3F31F3E6CF01E010910901A7
:1002CC00102311F00C94A601013031F0023089F0AA
:1002DC000430E1F0083039F114E110830F9300E1A0
:1002EC0049D058D00F910F9305E44BD053D00F91B8
:1002FC0027C01FE010830F9300E13CD04BD00F912F
:10030C000F930DE43ED046D00F911AC01AE0108323
:10031C000F9300E12FD03ED00F910F9308E431D012
:10032C0039D00F910DC016E010830F9300E122D04D
:10033C0031D00F910F9308E524D02CD00F9100C031
:10034C00000F003111F00C9464010C946301FFCF89
:10035C0008951895189518950F930FB70F93FF9351
:10036C00EF93F2E0E7E00081EF91FF910F910FBF67
:10037C000F91189501BB1FD0169A1DD016981BD043
:10038C00089501BB179A17D0169A15D0169813D04A
:10039C00179808950F93002700BB01BB159A0BD03B
:1003AC00169A09D00FB1169807FDF9CF15980FEFD3
:1003BC0000BB0F9108958F939F939FE08CE9019759
:1003CC00F1F79F918F910895F6DFF5DFF4DFF3DFFE
:0403DC00F2DF0895AF
:00000001FF
