:020000020000FC
:0C0000000C9448000C94190B0C941B0B82
:04003C000C94450CCF
:04005C000C94AC0B49
:040074000C94900B4D
:10008C000C945C0CF8940FEF0DBF01E20EBF00272F
:10009C00F2E0E0E00083F2E0E3E00083F2E0E5E090
:1000AC000083F2E0E6E00083F2E0E7E00083F2E0B8
:1000BC00EAE00083F2E0ECE00083F2E0EDE00083A4
:1000CC00F2E0E0E10083F2E0E1E10083F2E0E2E162
:1000DC000083F2E0E9E00083F2E0E4E10083F2E087
:1000EC00E5E10083F2E0E6E10083F2E0E7E1008382
:1000FC0004E1F2E0E8E0008305E0F2E0E8E10083EF
:10010C0001E0F2E0EEE00083F2E0EBE00083F2E0ED
:10011C00EFE000830FEFF2E0E3E100830AE00093ED
:10012C0069007894002704BD04E005BD01E000934C
:10013C006E0000270093B00002E00093B10001E0D4
:10014C000093700001E2009390000CE0009391008A
:10015C000FEF00939A0001E0009371000FEF00BBCA
:10016C0001B907B903E003BB08E30DB900EF009335
:10017C000A0101E004B900270AB901BB02B908B9A8
:10018C0004BB0EB905B90FEE00930B01FF93EF936F
:10019C000F93F2E0EFE001E000830F91EF91FF91FC
:1001AC000F9308E30E94840C0E94940C0F910E9400
:1001BC00AE0C0F9308E30E94840C0E94940C0F91D8
:1001CC000E94A50C0F9308E30E94840C0E94940CCF
:1001DC000F910F9308E30E94840C0E94940C0F91D2
:1001EC000F9308E00E94840C0E94940C0F910F93C3
:1001FC0001E00E94840C0E94940C0F910F9306E076
:10020C000E94840C0E94940C0F910F930CE00E949E
:10021C00840C0E94940C0F917894F2E0EAE000E0D8
:10022C0000830F9302E30E948B0C0E94940C0F919D
:10023C000F9301E30E948B0C0E94940C0F910F936F
:10024C0002E30E948B0C0E94940C0F910F9301E31C
:10025C000E948B0C0E94940C0F910F9300E20E9451
:10026C008B0C0E94940C0F910F9301E30E948B0C4A
:10027C000E94940C0F910F9306E30E948B0C0E942A
:10028C00940C0F910F9303E70E948B0C0E94940C1B
:10029C000F910F9301E30E948B0C0E94940C0F9111
:1002AC000F9300EC0E94840C0E94940C0F910F93FE
:1002BC0003E50E948B0C0E94940C0F910F9301E6A6
:1002CC000E948B0C0E94940C0F910F9306E60E94D7
:1002DC008B0C0E94940C0F910F9305E60E948B0CD3
:1002EC000E94940C0F910F9300E20E948B0C0E94C1
:1002FC00940C0F910F9303E40E948B0C0E94940CAE
:10030C000F910F9302E70E948B0C0E94940C0F919B
:10031C000F9301E60E948B0C0E94940C0F910F938B
:10032C0003E60E948B0C0E94940C0F910F930BE62A
:10033C000E948B0C0E94940C0F910F9305E60E9467
:10034C008B0C0E94940C0F910F9302E70E948B0C64
:10035C000E94940C0F910F9300E20E948B0C0E9450
:10036C00940C0F910F9300E20E948B0C0E94940C42
:10037C000F910F9300E20E948B0C0E94940C0F9132
:10038C000F9305E40E948B0C0E94940C0F910FE7C5
:10039C0000930B01F2E0E8E003E00DBBF2E0EAE0D1
:1003AC006081F2E0ECE03DE01FEE01E010930B0108
:1003BC002FEF2A95F1F7209109012023A9F5412F60
:1003CC004095402BFF93EF930F93F2E0EFE001E0A9
:1003DC0000830F91EF91FF91FF93EF930F9305E043
:1003EC00F2E0E8E100830027F2E0E7E100830F91FF
:1003FC00EF91FF915081541789F040830E94DC09E2
:10040C007F3F61F0723011F40C943103753011F4AC
:10041C000C94FE06763011F40C94C5073DE0643064
:10042C0019F4332730833DE0000F003181F03A9509
:10043C0011F630833DE08EB18F7D8EB98827D2E0E6
:10044C00CDE08883D2E0C5E188830C94E101110FE3
:10045C0013951F3F11F00C94DB010C94DA01F2E0C0
:10046C00EAE001E00083F2E0E9E001E000830F93B1
:10047C0001E00E94840C0E94940C0F910F9302E3F4
:10048C000E948B0C0E94940C0F910F9301E30E941D
:10049C008B0C0E94940C0F910F9302E30E948B0C17
:1004AC000E94940C0F910F9301E30E948B0C0E94FD
:1004BC00940C0F910F9300E20E948B0C0E94940CF1
:1004CC000F910F9301E30E948B0C0E94940C0F91DF
:1004DC000F9306E30E948B0C0E94940C0F910F93C8
:1004EC0003E70E948B0C0E94940C0F910F9301E375
:1004FC000E948B0C0E94940C0F910F9300EC0E94A5
:10050C00840C0E94940C0F910F9303E50E948B0CAA
:10051C000E94940C0F910F9304E70E948B0C0E9485
:10052C00940C0F910F9301E60E948B0C0E94940C7B
:10053C000F910F9302E70E948B0C0E94940C0F9169
:10054C000F9304E70E948B0C0E94940C0F910F9355
:10055C0009E60E948B0C0E94940C0F910F930EE6EF
:10056C000E948B0C0E94940C0F910F9307E60E9433
:10057C008B0C0E94940C0F910F9300E20E948B0C39
:10058C000E94940C0F910F9309E60E948B0C0E9411
:10059C00940C0F910F930EE60E948B0C0E94940CFE
:1005AC000F910F9300E20E948B0C0E94940C0F9100
:1005BC000F9303E30E948B0C0E94940C0F910F93EA
:1005CC000EE20E948B0C0E94940C0F910F930EE282
:1005DC000E948B0C0E94940C0F910F930EE20E94C0
:1005EC008B0C0E94940C0F910F9300E10E94840CD1
:1005FC000E94940C0F910F9300E10E94840C0E94B6
:10060C00940C0F910F9300E10E94840C0E94940CA7
:10061C000F910F9300E10E94840C0E94940C0F9197
:10062C00F2E0E2E100270083F2E0E1E103E0008385
:10063C000081005D0F93002F0E948B0C0E94940C84
:10064C000F910F9300E10E94840C0E94940C0F9167
:10065C00003309F0EDCFF2E0EAE002E00083F2E0D3
:10066C00E9E001E000830EB10F7D0EB9F2E0EDE0A0
:10067C00002700830F9301E00E94840C0E94940CCD
:10068C000F910F9302E50E948B0C0E94940C0F911A
:10069C000F9305E60E948B0C0E94940C0F910F9304
:1006AC0003E70E948B0C0E94940C0F910F9305E6AC
:1006BC000E948B0C0E94940C0F910F9304E70E94E4
:1006CC008B0C0E94940C0F910F9300E20E948B0CE8
:1006DC000E94940C0F910F9300E50E948B0C0E94CA
:1006EC00940C0F910F930FE40E948B0C0E94940CAE
:1006FC000F910F9304E50E948B0C0E94940C0F91A8
:10070C000F9300E20E948B0C0E94940C0F910F939C
:10071C0004E70E948B0C0E94940C0F910F930FE630
:10072C000E948B0C0E94940C0F910F9300E20E947C
:10073C008B0C0E94940C0F910F9300E30E948B0C76
:10074C000E94940C0F910F9300EC0E94840C0E9459
:10075C00940C0F910F9302E50E948B0C0E94940C49
:10076C000F910F9305E60E948B0C0E94940C0F9135
:10077C000F930DE60E948B0C0E94940C0F910F931B
:10078C0001E60E948B0C0E94940C0F910F9309E6CA
:10079C000E948B0C0E94940C0F910F930EE60E94FA
:1007AC008B0C0E94940C0F910F9309E60E948B0CFA
:1007BC000E94940C0F910F930EE60E948B0C0E94DA
:1007CC00940C0F910F9307E60E948B0C0E94940CD3
:1007DC000F910F930AE30E948B0C0E94940C0F91C3
:1007EC000F9300E20E948B0C0E94940C0F910F93BC
:1007FC0000E20E948B0C0E94940C0F910F9300E26C
:10080C000E948B0C0E94940C0F91F2E0EEE00081A0
:10081C00003069F1002700830F93FF93EF93F2E010
:10082C00E6E10AE70083EF91FF910F91F2E0E2E13C
:10083C0000270083F2E0E8E00081F2E0E1E10083D0
:10084C000F9300E10E94840C0E94940C0F910F9363
:10085C0000E10E94840C0E94940C0F910E94A10A4A
:10086C00F2E0E3E00091B200069506950083F2E019
:10087C00E1E1D2E0C4E0B2E0A3E10AE70C93002787
:10088C00B2E0A5E00C93B2E0A6E00C93B2E0A6E0D7
:10089C000C91013089F10F9300EC00937C0008E07F
:1008AC0000937B000DEC00937A000F9118811030AF
:1008BC0029F4B2E0A5E001E00C9308C0B2E0A3E19A
:1008CC000AE70C93B2E0A5E000270C9300810030FE
:1008DC0011F40C94D9080F9300E10E94840C0E942F
:1008EC00940C0F910F9300E10E94840C0E94940CC5
:1008FC000F910E94A10ACACFF2E0EAE003E0008364
:10090C00F2E0E9E001E000830F9301E00E94840C27
:10091C000E94940C0F910F9306E40E948B0C0E9482
:10092C00940C0F910F9309E60E948B0C0E94940C6F
:10093C000F910F930EE60E948B0C0E94940C0F915A
:10094C000F9304E60E948B0C0E94940C0F910F9352
:10095C0000E20E948B0C0E94940C0F910F9300E507
:10096C000E948B0C0E94940C0F910F930FE40E9429
:10097C008B0C0E94940C0F910F9304E50E948B0C2E
:10098C000E94940C0F910F9300E20E948B0C0E941A
:10099C00940C0F910F9300E50E948B0C0E94940C09
:1009AC000F910F930FE60E948B0C0E94940C0F91E9
:1009BC000F9303E70E948B0C0E94940C0F910F93E2
:1009CC0000EC0E94840C0E94940C0F910F9302E592
:1009DC000E948B0C0E94940C0F910F9305E60E94C1
:1009EC008B0C0E94940C0F910F930DE60E948B0CB4
:1009FC000E94940C0F910F9301E60E948B0C0E94A5
:100A0C00940C0F910F9309E60E948B0C0E94940C8E
:100A1C000F910F930EE60E948B0C0E94940C0F9179
:100A2C000F9309E60E948B0C0E94940C0F910F936C
:100A3C000EE60E948B0C0E94940C0F910F9307E60C
:100A4C000E948B0C0E94940C0F910F930AE30E944E
:100A5C008B0C0E94940C0F910F9300E20E948B0C54
:100A6C000E94940C0F910F9300E20E948B0C0E9439
:100A7C00940C0F910F9300E20E948B0C0E94940C2B
:100A8C000F91F2E0E1E1D2E0C4E0B2E0A3E02C91FE
:100A9C00B2E0A3E104EF0C930027B2E0A5E00C93C5
:100AAC00B2E0A6E00C93B2E0A6E00C91013011F498
:100ABC000C94AE050F9300EC00937C0008E00093BF
:100ACC007B000DEC00937A000F911881121749F4FA
:100ADC000FEF08B903E004BBB2E0A5E001E00C9312
:100AEC0021C02CF0002708B904BB0C943103B2E0F0
:100AFC00A3E104EF0C93B2E0A5E000270C93312F97
:100B0C003E5F23172CF0312F3D5F231734F00AC0C2
:100B1C000FEF08B901E004BB05C00FEF08B90027BF
:100B2C0004BB00C00081003011F40C94D9080F9361
:100B3C0000E10E94840C0E94940C0F910F9300E131
:100B4C000E94840C0E94940C0F910E94A10AABCFBE
:100B5C00F2E0EAE004E00083F2E0E9E00027008341
:100B6C00002708B904BB0F9301E00E94840C0E947B
:100B7C00940C0F910F9300E50E948B0C0E94940C27
:100B8C000F910F930FE60E948B0C0E94940C0F9107
:100B9C000F9303E70E948B0C0E94940C0F910F9300
:100BAC0009E60E948B0C0E94940C0F910F9304E7A2
:100BBC000E948B0C0E94940C0F910F9309E60E94DB
:100BCC008B0C0E94940C0F910F930FE60E948B0CD0
:100BDC000E94940C0F910F930EE60E948B0C0E94B6
:100BEC00940C0F910F9300E20E948B0C0E94940CBA
:100BFC000F910F9306E40E948B0C0E94940C0F91A2
:100C0C000F930FE60E948B0C0E94940C0F910F9384
:100C1C0005E70E948B0C0E94940C0F910F930EE62B
:100C2C000E948B0C0E94940C0F910F9304E60E946F
:100C3C008B0C0E94940C0F910F9301E20E948B0C71
:100C4C000E94940C0F910F9300EC0E94840C0E9454
:100C5C00940C0F910F9303E50E948B0C0E94940C43
:100C6C000F910F9303E60E948B0C0E94940C0F9132
:100C7C000F9301E60E948B0C0E94940C0F910F9322
:100C8C000EE60E948B0C0E94940C0F910F9300E2C5
:100C9C000E948B0C0E94940C0F910F9306E60E94FD
:100CAC008B0C0E94940C0F910F930FE60E948B0CEF
:100CBC000E94940C0F910F9302E70E948B0C0E94E0
:100CCC00940C0F910F9300E20E948B0C0E94940CD9
:100CDC000F910F930EE60E948B0C0E94940C0F91B7
:100CEC000F9305E70E948B0C0E94940C0F910F93AD
:100CFC000DE60E948B0C0E94940C0F910F9302E650
:100D0C000E948B0C0E94940C0F910F9305E60E948D
:100D1C008B0C0E94940C0F910F9302E70E948B0C8A
:100D2C000E94940C0F91F2E0EDE000270083F2E0BA
:100D3C00EAE06081F2E0ECE03DE01FEE01E01093B0
:100D4C000B012FEF2A95F1F7209109012023A9F52A
:100D5C00412F4095402BFF93EF930F93F2E0EFE080
:100D6C0001E000830F91EF91FF91FF93EF930F93AD
:100D7C0005E0F2E0E8E100830027F2E0E7E1008320
:100D8C000F91EF91FF915081541789F040830E948D
:100D9C00DC097F3F61F0723011F40C943103753033
:100DAC0011F40C94FE06763011F40C94C5073DE05A
:100DBC00643019F4332730833DE0000F003181F0AB
:100DCC003A9511F630833DE08EB18F7D8EB9882730
:100DDC00D2E0CDE08883D2E0C5E188830C94AA06EA
:100DEC00110F13951F3F11F00C94A4060C94A3063D
:100DFC00F2E0EAE005E00083F2E0E9E0002700839E
:100E0C000EB10F7D0EB90027F2E0EDE00083F2E0A9
:100E1C00E7E000830F9301E00E94840C0E94940C85
:100E2C000F910F9305E40E948B0C0E94940C0F9170
:100E3C000F930EE60E948B0C0E94940C0F910F9353
:100E4C0004E70E948B0C0E94940C0F910F9305E603
:100E5C000E948B0C0E94940C0F910F9302E70E943E
:100E6C008B0C0E94940C0F910F9300E20E948B0C40
:100E7C000E94940C0F910F9303E40E948B0C0E9420
:100E8C00940C0F910F930FE60E948B0C0E94940C04
:100E9C000F910F9304E60E948B0C0E94940C0F91FF
:100EAC000F9305E60E948B0C0E94940C0F910F93EC
:100EBC0000EC0E94840C0E94940C0F91F2E0EAE08A
:100ECC006081F2E0ECE03DE01FEE01E010930B01DD
:100EDC002FEF2A95F1F7209109012023A9F5412F35
:100EEC004095402BFF93EF930F93F2E0EFE001E07E
:100EFC0000830F91EF91FF91FF93EF930F9305E018
:100F0C00F2E0E8E100830027F2E0E7E100830F91D3
:100F1C00EF91FF915081541789F040830E94DC09B6
:100F2C007F3F61F0723011F40C943103753011F481
:100F3C000C94FE06763011F40C94C5073DE0643039
:100F4C0019F4332730833DE0000F003181F03A95DE
:100F5C0011F630833DE08EB18F7D8EB98827D2E0BB
:100F6C00CDE08883D2E0C5E188830C947107110F22
:100F7C0013951F3F11F00C946B070C946A07F2E069
:100F8C00EAE006E00083F2E0E9E0002700830F933B
:100F9C00FF93EF93F2E0E6E104EF0083EF91FF9112
:100FAC000F910F9301E00E94840C0E94940C0F91FE
:100FBC000F9307E40E948B0C0E94940C0F910F93DB
:100FCC0001E60E948B0C0E94940C0F910F930DE67E
:100FDC000E948B0C0E94940C0F910F9305E60E94BB
:100FEC008B0C0E94940C0F910F9300E20E948B0CBF
:100FFC000E94940C0F910F9303E60E948B0C0E949D
:10100C00940C0F910F930FE60E948B0C0E94940C82
:10101C000F910F930DE60E948B0C0E94940C0F9174
:10102C000F9300E70E948B0C0E94940C0F910F936E
:10103C000CE60E948B0C0E94940C0F910F9305E60A
:10104C000E948B0C0E94940C0F910F9304E70E944A
:10105C008B0C0E94940C0F910F9305E60E948B0C45
:10106C000E94940C0F910F9300EC0E94840C0E9430
:10107C00940C0F910F9309E50E948B0C0E94940C19
:10108C000F910F930FE60E948B0C0E94940C0F9102
:10109C000F9305E70E948B0C0E94940C0F910F93F9
:1010AC0000E20E948B0C0E94940C0F910F9307E5A9
:1010BC000E948B0C0E94940C0F910F9309E60E94D6
:1010CC008B0C0E94940C0F910F930EE60E948B0CCC
:1010DC000E94940C0F910F9301E20E948B0C0E94C2
:1010EC00940C0F91F2E0EAE06081F2E0ECE03DE07C
:1010FC001FEE01E010930B012FEF2A95F1F72091D1
:10110C0009012023A9F5412F4095402BFF93EF9324
:10111C000F93F2E0EFE001E000830F91EF91FF916C
:10112C00FF93EF930F9305E0F2E0E8E100830027D3
:10113C00F2E0E7E100830F91EF91FF91508154179A
:10114C0089F040830E94DC097F3F61F0723011F41A
:10115C000C943103753011F40C94FE06763011F4B6
:10116C000C94C5073DE0643019F4332730833DE01F
:10117C00000F003181F03A9511F630833DE08EB1CD
:10118C008F7D8EB98827D2E0CDE08883D2E0C5E18F
:10119C0088830C948508110F13951F3F11F00C9444
:1011AC007F080C947E08F2E0EAE007E00083F2E0AE
:1011BC00E9E0002700830F93FF93EF93F2E0E6E161
:1011CC0004EF0083EF91FF910F91002708B904BB46
:1011DC000F9301E00E94840C0E94940C0F910F93CA
:1011EC0007E40E948B0C0E94940C0F910F9301E664
:1011FC000E948B0C0E94940C0F910F930DE60E9491
:10120C008B0C0E94940C0F910F9305E60E948B0C93
:10121C000E94940C0F910F9300E20E948B0C0E9481
:10122C00940C0F910F930FE40E948B0C0E94940C62
:10123C000F910F9306E70E948B0C0E94940C0F9158
:10124C000F9305E60E948B0C0E94940C0F910F9348
:10125C0002E70E948B0C0E94940C0F910F9300ECF0
:10126C000E94840C0E94940C0F910F9309E50E942C
:10127C008B0C0E94940C0F910F930FE60E948B0C19
:10128C000E94940C0F910F9305E70E948B0C0E9407
:10129C00940C0F910F9300E20E948B0C0E94940C03
:1012AC000F910F930CE40E948B0C0E94940C0F91E5
:1012BC000F930FE60E948B0C0E94940C0F910F93CE
:1012CC0003E70E948B0C0E94940C0F910F9305E680
:1012DC000E948B0C0E94940C0F910F9301E20E94C0
:1012EC008B0C0E94940C0F91F2E0EAE06081F2E02A
:1012FC00ECE03DE01FEE01E010930B012FEF2A957F
:10130C00F1F7209109012023A9F5412F4095402B9D
:10131C00FF93EF930F93F2E0EFE001E000830F9166
:10132C00EF91FF91FF93EF930F9305E0F2E0E8E16B
:10133C0000830027F2E0E7E100830F91EF91FF912A
:10134C005081541789F040830E94DC097F3F61F083
:10135C00723011F40C943103753011F40C94FE06B8
:10136C00763011F40C94C5073DE0643019F4332742
:10137C0030833DE0000F003181F03A9511F6308357
:10138C003DE08EB18F7D8EB98827D2E0CDE0888389
:10139C00D2E0C5E188830C948709110F13951F3F88
:1013AC0011F00C9481090C948009FFCF0F931F93BB
:1013BC002F933F934F935F936F93FF93EF93603013
:1013CC0081F0643011F40C944C0A653011F40C94D7
:1013DC007A0A673021F0663011F00C94970A0C945D
:1013EC0048007FEFF2E0E8E0413841F04238C1F0CC
:1013FC00443841F14838C1F10C94970A04E1008358
:10140C000F9300E10E94840C0E94940C0F910F9397
:10141C0005E40E948B0C0E94940C0F910C94970A7B
:10142C000FE000830F9300E10E94840C0E94940C47
:10143C000F910F930DE40E948B0C0E94940C0F9152
:10144C000C94970A0AE000830F9300E10E94840C2D
:10145C000E94940C0F910F9308E40E948B0C0E9435
:10146C00940C0F910C94970A06E000830F9300E103
:10147C000E94840C0E94940C0F910F9308E50E941B
:10148C008B0C0E94940C0F910C94970A7FEFF2E056
:10149C00E7E01081F2E0E0E0E10F1127F11F00819D
:1014AC00401759F02EB12F7D2EB92227F2E0EDE036
:1014BC002083F2E0E5E1208334C02EB120622EB906
:1014CC00F2E0EDE021E02083F2E0EEE0208120303C
:1014DC0041F1F2E0E7E0208123952083233011F0E5
:1014EC0072E01FC075E01DC07FEFF2E0E7E01081F5
:1014FC00F2E0E0E0E10F1127F11F0081401711F03D
:10150C0075E00FC0F2E0E7E01081139510830F93A4
:10151C000AE20E948B0C0E94940C0F91133009F478
:10152C0076E0EF91FF916F915F914F913F912F91E9
:10153C001F910F9108950F931F930F921F920F936A
:10154C0000270A300F9131F000240A3018F00A50AD
:10155C000394FBCF102D105D103341F00F93012F2E
:10156C000E948B0C0E94940C0F9107C00F9300E209
:10157C000E948B0C0E94940C0F910F93002701304A
:10158C000F9131F00024013018F001500394FBCF7F
:10159C00102D105D0F93012F0E948B0C0E94940C48
:1015AC000F911F900F901F910F9108952F933F93C0
:1015BC003327321741F000240217130720F0021BC7
:1015CC00130B0394F9CF3F912F9108950F93002D96
:1015DC00003091F0013091F0023091F0033091F035
:1015EC00043091F0053091F0063091F0073091F015
:1015FC00083091F0093091F008E212C001E110C0FE
:10160C0001E20EC001E40CC002E10AC002E208C013
:10161C0002E406C004E104C004E202C004E400C019
:10162C00002E0F9108950C9448000F930FB70F9351
:10163C001F93FF93EF93FF93EF930F93F2E0EFE081
:10164C0001E000830F91EF91FF91FF93EF930F93C4
:10165C0005E0F2E0E8E100830027F2E0E7E1008337
:10166C000F91EF91FF91F2E0EBE00081013011F46A
:10167C000C94890B01E00083F2E0E0E10027008389
:10168C00F2E0EAE00081003039F0063019F0073062
:10169C0009F039C00C944800EF91FF911F910F9104
:1016AC000FBF0F9128EE33E0009126001091B2008D
:1016BC001695079516950795169507951695079502
:1016CC001695079516950795021713070CF00851F8
:1016DC00F2E0E0E024E60E94DC0A0E94EC0A0192AF
:1016EC002AE00E94DC0A0E94EC0A0192002E0E9461
:1016FC00EC0A01920DB71EB70E5F1F4F0DBF1EBF38
:10170C0078940C943502EF91FF911F910F910FBFBC
:10171C000F9118950F930FB70F931F93FF93EF93A0
:10172C0000917800109179001695079516950795FC
:10173C001695079516950795F2E0E4E00083EF9176
:10174C00FF911F910F910FBF0F9118950F930FB72A
:10175C000F931F932F93FF93EF93F2E0EAE0008136
:10176C00F2E0E6E11081103031F01A95108315B1DA
:10177C0021E0122715B9F2E0E2E1108113951083F4
:10178C00143FC9F1F2E0E5E01081103049F0F2E0CD
:10179C00E3E110811A951083103011F40C94180C9D
:1017AC00043089F4F2E0EDE01081103041F0F2E009
:1017BC00E5E1108113951083143FC9F104C0F2E0E8
:1017CC00E5E111271083063039F4F2E0E4E11081F1
:1017DC00139510831D3381F1003029F0063019F078
:1017EC00073009F044C0F2E0E7E110811395108353
:1017FC00143F49F13CC011271083F2E0E9E010815D
:10180C00103051F00F93FF93EF93F2E0E6E10DE30C
:10181C000083EF91FF910F91F2E0E1E110811A95B5
:10182C001083B0CFF2E0E6E011E01083B9CFF2E024
:10183C00EEE011E01083C7CF112710831EB128E012
:10184C0021272EB9C9CF11271083F2E0E8E11081CE
:10185C00103019F01A95108351F4FF93EF930F93F6
:10186C00F2E0EFE000E000830F91EF91FF91EF9138
:10187C00FF912F911F910F910FBF0F9118950F93FF
:10188C000FB70F93FF93EF93F2E0E0E10081039524
:10189C000083003F29F400270083F2E0EBE0008393
:1018AC00EF91FF910F910FBF0F9118950F930FB7F9
:1018BC000F931F93FF93EF9310919A00F2E0EFE0D8
:1018CC000081003059F01F3F91F0139510939A004E
:1018DC001F3F69F0139510939A0009C0103039F02E
:1018EC001A9510939A0019F01A9510939A00EF918B
:1018FC00FF911F910F910FBF0F91189501BB1FD036
:10190C00169A1DD016981BD0089501BB179A17D0A4
:10191C00169A15D0169813D0179808950F93002780
:10192C0000BB01BB159A0BD0169A09D00FB11698B3
:10193C0007FDF9CF15980FEF00BB0F9108958F930A
:10194C009F939FE08CE90197F1F79F918F910895F8
:0C195C00F6DFF5DFF4DFF3DFF2DF0895C3
:00000001FF
