:020000020000FC
:0C0000000C9448000C9401020C940302C4
:04003C000C943702E7
:04005C000C943602C8
:10008C000C944E02F8940FEF0DBF01E20EBF002747
:10009C00F2E0E0E00083F2E0E3E00083F2E0E5E090
:1000AC000083F2E0E7E00083F2E0E8E00083F2E0B6
:1000BC00E9E00083F2E0EAE0008304E1F2E0E6E04C
:1000CC0000830AE00093690003E00DBB78940027DD
:1000DC000093240004E00093250001E000936E00DF
:1000EC0000270093B00002E00093B10001E0009300
:1000FC00700001E20093900004E1009391000FEF77
:10010C0000939A000FEF00BB01B907B903E003BBE2
:10011C0008E30DB900EF00930A0100270AB901BBEF
:10012C0002B908B904BB0EB90FEE00930B010F9383
:10013C0008E3BCD1CBD10F91E3D10F9308E3B6D137
:10014C00C5D10F91D4D10F9308E3B0D1BFD10F918A
:10015C000F9308E3ABD1BAD10F910F9308E0A6D15E
:10016C00B5D10F910F9301E0A1D1B0D10F910F93A5
:10017C0006E09CD1ABD10F910F930EE097D1A6D195
:10018C000F917894F2E0E7E000E000830F9302E334
:10019C0094D19CD10F910F9301E38FD197D10F91F3
:1001AC000F9302E38AD192D10F910F9301E385D182
:1001BC008DD10F910F9300E280D188D10F910F93C5
:1001CC0001E37BD183D10F910F9306E376D17ED1DE
:1001DC000F910F9303E771D179D10F910F9301E335
:1001EC006CD174D10F910F9300EC60D16FD10F9142
:1001FC000F9303E562D16AD10F910F9301E65DD1A4
:10020C0065D10F910F9306E658D160D10F910F93E2
:10021C0005E653D15BD10F910F9300E24ED156D12D
:10022C000F910F9303E449D151D10F910F9302E732
:10023C0044D14CD10F910F9301E63FD147D10F918F
:10024C000F9303E63AD142D10F910F930BE635D1C0
:10025C003DD10F910F9305E630D138D10F910F930B
:10026C0002E72BD133D10F910F9300E226D12ED17F
:10027C000F910F9300E221D129D10F910F9300E23E
:10028C001CD124D10F910F9305E417D11FD10F91DD
:10029C000FE700930B01F2E0E6E0F2E0E7E06081AB
:1002AC00F2E0E9E03DE01FEE01E010930B012FEFCF
:1002BC002A95F1F720910901202391F4412F4095C3
:1002CC00402B5081541759F040830E94A7017F3F67
:1002DC0031F072300C948E0175300C949A013DE023
:1002EC00000F003131F03A9529F730833DE00C9442
:1002FC006001110F13951F3FB1F20C945A01F2E0FB
:10030C00E7E001E000830F9301E0D0D0DFD00F9144
:10031C00F2E0E7E002E00083F2E0E7E003E00083D4
:10032C00F2E0E7E004E00083F2E0E7E005E00083C0
:10033C00F2E0E7E006E00083F2E0E7E007E00083AC
:10034C00FFCF0F931F932F933F934F935F936F9315
:10035C00FF93EF93603001F07FEFF2E0E6E041387D
:10036C0041F04238A1F0443801F1483861F10C9465
:10037C00F70104E100830F9300E198D0A7D00F910F
:10038C000F9305E49AD0A2D00F910C94F7010FE0D3
:10039C0000830F9300E18AD099D00F910F930DE455
:1003AC008CD094D00F910C94F7010AE000830F933A
:1003BC0000E17CD08BD00F910F9308E47ED086D0D7
:1003CC000F910C94F70106E000830F9300E16ED0BF
:1003DC007DD00F910F9308E570D078D00F910C94CD
:1003EC00F701EF91FF916F915F914F913F912F9199
:1003FC001F910F9108950C9448000F930FB70F9312
:10040C001F93FF93EF93F2E0E8E00081013009F1D4
:10041C0001E00083F2E0EAE000270083F2E0E7E08D
:10042C000081003039F0063019F0073009F011C0A6
:10043C000C944800EF91FF911F910F910FBF0F91FA
:10044C000DB71EB70E5F1F4F0DBF1EBF78940C94D7
:10045C008501EF91FF911F910F910FBF0F9118958F
:10046C0018950F930FB70F93FF93EF93F2E0EAE019
:10047C00008103950083083C29F400270083F2E0F7
:10048C00E8E00083EF91FF910F910FBF0F9118954A
:10049C000F930FB70F93FF93EF93F2E0E7E0008118
:1004AC00EF91FF910F910FBF0F91189501BB1FD0CA
:1004BC00169A1DD016981BD0089501BB179A17D009
:1004CC00169A15D0169813D0179808950F930027E5
:1004DC0000BB01BB159A0BD0169A09D00FB1169818
:1004EC0007FDF9CF15980FEF00BB0F9108958F936F
:1004FC009F939FE08CE90197F1F79F918F9108955D
:0C050C00F6DFF5DFF4DFF3DFF2DF089527
:00000001FF
