:020000020000FC
:0C0000000C9448000C947D0A0C947F0ABC
:04003C000C94650BB0
:04005C000C94F80AFE
:040074000C94DC0A02
:10008C000C947C0BF8940FEF0DBF01E20EBF002710
:10009C00F2E0E0E00083F2E0E3E00083F2E0E5E090
:1000AC000083F2E0E6E00083F2E0E7E00083F2E0B8
:1000BC00EAE00083F2E0ECE00083F2E0EDE00083A4
:1000CC00F2E0EFE00083F2E0E0E10083F2E0E1E156
:1000DC000083F2E0E9E00083F2E0E3E10083F2E088
:1000EC00E4E10083F2E0E5E1008304E1F2E0E8E022
:1000FC00008301E0F2E0EEE00083F2E0EBE000834D
:10010C000FEFF2E0E2E100830AE00093690003E004
:10011C000DBB7894002704BD04E005BD01E00093FD
:10012C006E0000270093B00002E00093B10001E0E4
:10013C000093700001E20093900004E100939100A1
:10014C000FEF00939A000FEF00BB01B907B903E062
:10015C0003BB08E30DB900EF00930A0101E004B9F9
:10016C0000270AB901BB02B908B904BB0EB905B91D
:10017C000FEE00930B010F9308E30E948A0B0E9471
:10018C009A0B0F910E94B40B0F9308E30E948A0BF9
:10019C000E949A0B0F910E94AB0B0F9308E30E94E5
:1001AC008A0B0E949A0B0F910F9308E30E948A0B03
:1001BC000E949A0B0F910F9308E00E948A0B0E94E9
:1001CC009A0B0F910F9301E00E948A0B0E949A0BDD
:1001DC000F910F9306E00E948A0B0E949A0B0F91CD
:1001EC000F930EE00E948A0B0E949A0B0F91789449
:1001FC00F2E0EAE000E000830F9302E30E94910B2F
:10020C000E949A0B0F910F9301E30E94910B0E9495
:10021C009A0B0F910F9302E30E94910B0E949A0B81
:10022C000F910F9301E30E94910B0E949A0B0F9177
:10023C000F9300E20E94910B0E949A0B0F910F9367
:10024C0001E30E94910B0E949A0B0F910F9306E30E
:10025C000E94910B0E949A0B0F910F9303E70E943F
:10026C00910B0E949A0B0F910F9301E30E94910B3B
:10027C000E949A0B0F910F9300EC0E948A0B0E9424
:10028C009A0B0F910F9303E50E94910B0E949A0B0E
:10029C000F910F9301E60E94910B0E949A0B0F9104
:1002AC000F9306E60E94910B0E949A0B0F910F93ED
:1002BC0005E60E94910B0E949A0B0F910F9300E29E
:1002CC000E94910B0E949A0B0F910F9303E40E94D2
:1002DC00910B0E949A0B0F910F9302E70E94910BC6
:1002EC000E949A0B0F910F9301E60E94910B0E94B2
:1002FC009A0B0F910F9303E60E94910B0E949A0B9D
:10030C000F910F930BE60E94910B0E949A0B0F9189
:10031C000F9305E60E94910B0E949A0B0F910F937D
:10032C0002E70E94910B0E949A0B0F910F9300E22F
:10033C000E94910B0E949A0B0F910F9300E20E9466
:10034C00910B0E949A0B0F910F9300E20E94910B5C
:10035C000E949A0B0F910F9305E40E94910B0E943F
:10036C009A0B0F910FE700930B01F2E0E8E0F2E03B
:10037C00EAE06081F2E0ECE03DE01FEE01E010937A
:10038C000B012FEF2A95F1F7209109012023E1F4BD
:10039C00412F4095402B5081541789F040830E9487
:1003AC0040097F3F61F0723011F40C94FF027530FC
:1003BC0011F40C94B306763011F40C945F073DE005
:1003CC00643011F430833DE0000F003181F03A9538
:1003DC00D9F630833DE08EB18F7D8EB98827D2E07F
:1003EC00CDE08883D2E0C4E188830C94CA01110F5C
:1003FC0013951F3F11F20C94C401F2E0EAE001E006
:10040C000083F2E0E9E001E000830F9301E00E9439
:10041C008A0B0E949A0B0F910F9302E30E94910B8F
:10042C000E949A0B0F910F9301E30E94910B0E9473
:10043C009A0B0F910F9302E30E94910B0E949A0B5F
:10044C000F910F9301E30E94910B0E949A0B0F9155
:10045C000F9300E20E94910B0E949A0B0F910F9345
:10046C0001E30E94910B0E949A0B0F910F9306E3EC
:10047C000E94910B0E949A0B0F910F9303E70E941D
:10048C00910B0E949A0B0F910F9301E30E94910B19
:10049C000E949A0B0F910F9300EC0E948A0B0E9402
:1004AC009A0B0F910F9303E50E94910B0E949A0BEC
:1004BC000F910F9304E70E94910B0E949A0B0F91DE
:1004CC000F9301E60E94910B0E949A0B0F910F93D0
:1004DC0002E70E94910B0E949A0B0F910F9304E775
:1004EC000E94910B0E949A0B0F910F9309E60E94A8
:1004FC00910B0E949A0B0F910F930EE60E94910B99
:10050C000E949A0B0F910F9307E60E94910B0E9489
:10051C009A0B0F910F9300E20E94910B0E949A0B81
:10052C000F910F9309E60E94910B0E949A0B0F9169
:10053C000F930EE60E94910B0E949A0B0F910F9352
:10054C0000E20E94910B0E949A0B0F910F9303E310
:10055C000E94910B0E949A0B0F910F930EE20E9436
:10056C00910B0E949A0B0F910F930EE20E94910B2C
:10057C000E949A0B0F910F930EE20E94910B0E9416
:10058C009A0B0F910F9300E10E948A0B0E949A0B19
:10059C000F910F9300E10E948A0B0E949A0B0F910E
:1005AC000F9300E10E948A0B0E949A0B0F910F93FC
:1005BC0000E10E948A0B0E949A0B0F91F2E0E1E19C
:1005CC0000270083F2E0E0E103E000830081005D9E
:1005DC000F93002F0E94910B0E949A0B0F910F9377
:1005EC0000E10E948A0B0E949A0B0F91003309F0D4
:1005FC00EDCFF2E0EAE002E00083F2E0E9E001E0B6
:10060C0000830EB10F7D0EB9F2E0EDE00027008300
:10061C000F9301E00E948A0B0E949A0B0F910F938B
:10062C0002E50E94910B0E949A0B0F910F9305E625
:10063C000E94910B0E949A0B0F910F9303E70E945B
:10064C00910B0E949A0B0F910F9305E60E94910B50
:10065C000E949A0B0F910F9304E70E94910B0E943A
:10066C009A0B0F910F9300E20E94910B0E949A0B30
:10067C000F910F9300E50E94910B0E949A0B0F9122
:10068C000F930FE40E94910B0E949A0B0F910F9302
:10069C0004E50E94910B0E949A0B0F910F9300E2BC
:1006AC000E94910B0E949A0B0F910F9304E70E94EA
:1006BC00910B0E949A0B0F910F930FE60E94910BD6
:1006CC000E949A0B0F910F9300E20E94910B0E94D3
:1006DC009A0B0F910F9300E30E94910B0E949A0BBF
:1006EC000F910F9300EC0E948A0B0E949A0B0F91B2
:1006FC000F9302E50E94910B0E949A0B0F910F939E
:10070C0005E60E94910B0E949A0B0F910F930DE638
:10071C000E94910B0E949A0B0F910F9301E60E947D
:10072C00910B0E949A0B0F910F9309E60E94910B6B
:10073C000E949A0B0F910F930EE60E94910B0E9450
:10074C009A0B0F910F9309E60E94910B0E949A0B42
:10075C000F910F930EE60E94910B0E949A0B0F9132
:10076C000F9307E60E94910B0E949A0B0F910F9327
:10077C000AE30E94910B0E949A0B0F910F9300E2D7
:10078C000E94910B0E949A0B0F910F9300E20E9412
:10079C00910B0E949A0B0F910F9300E20E94910B08
:1007AC000E949A0B0F91F2E0EEE00081003069F1AB
:1007BC00002700830F93FF93EF93F2E0E5E10AE744
:1007CC000083EF91FF910F91F2E0E1E100270083AC
:1007DC00F2E0E8E00081F2E0E0E100830F9300E159
:1007EC000E948A0B0E949A0B0F910F9300E10E94BA
:1007FC008A0B0E949A0B0F910E94050AF2E0E3E02B
:10080C000091B200069506950083F2E0E0E1D2E09B
:10081C00C4E0B2E0A2E10AE70C930027B2E0A5E045
:10082C000C93B2E0A6E00C93B2E0A6E00C91013080
:10083C0089F10F9300EC00937C0008E000937B009F
:10084C000DEC00937A000F911881103029F4B2E06E
:10085C00A5E001E00C9308C0B2E0A2E10AE70C931A
:10086C00B2E0A5E000270C930081003011F40C9449
:10087C0058080F9300E10E948A0B0E949A0B0F916B
:10088C000F9300E10E948A0B0E949A0B0F910E9419
:10089C00050ACACFF2E0EAE003E00083F2E0E9E007
:1008AC0001E000830F9301E00E948A0B0E949A0BD7
:1008BC000F910F9306E40E94910B0E949A0B0F91DB
:1008CC000F9309E60E94910B0E949A0B0F910F93C4
:1008DC000EE60E94910B0E949A0B0F910F9304E667
:1008EC000E94910B0E949A0B0F910F9300E20E94B1
:1008FC00910B0E949A0B0F910F9300E50E94910BA4
:10090C000E949A0B0F910F930FE40E94910B0E947F
:10091C009A0B0F910F9304E50E94910B0E949A0B76
:10092C000F910F9300E20E94910B0E949A0B0F9172
:10093C000F9300E50E94910B0E949A0B0F910F935D
:10094C000FE60E94910B0E949A0B0F910F9303E7F5
:10095C000E94910B0E949A0B0F910F9300EC0E9436
:10096C008A0B0E949A0B0F910F9302E50E94910B38
:10097C000E949A0B0F910F9305E60E94910B0E9417
:10098C009A0B0F910F930DE60E94910B0E949A0BFC
:10099C000F910F9301E60E94910B0E949A0B0F91FD
:1009AC000F9309E60E94910B0E949A0B0F910F93E3
:1009BC000EE60E94910B0E949A0B0F910F9309E681
:1009CC000E94910B0E949A0B0F910F930EE60E94BE
:1009DC00910B0E949A0B0F910F9307E60E94910BBB
:1009EC000E949A0B0F910F930AE30E94910B0E94A5
:1009FC009A0B0F910F9300E20E94910B0E949A0B9D
:100A0C000F910F9300E20E94910B0E949A0B0F9191
:100A1C000F9300E20E94910B0E949A0B0F91F2E04F
:100A2C00E0E1D2E0C4E0B2E0A3E02C91B2E0A2E1BC
:100A3C0004EF0C930027B2E0A5E00C93B2E0A6E023
:100A4C000C93B2E0A6E00C91013011F40C947E05ED
:100A5C000F9300EC00937C0008E000937B000DECFE
:100A6C0000937A000F911881121749F40FEF08B90F
:100A7C0003E004BBB2E0A5E001E00C9323C02CF032
:100A8C00002708B904BB0C94FF02B2E0A2E104EF0A
:100A9C000C93B2E0A5E000270C93312F3695422F32
:100AAC004695341729F0312F3D5F231734F00AC0D7
:100ABC000FEF08B901E004BB05C00FEF08B9002720
:100ACC0004BB00C00081003011F40C9458080F9343
:100ADC0000E10E948A0B0E949A0B0F910F9300E188
:100AEC000E948A0B0E949A0B0F910E94050AA9CFB3
:100AFC00F2E0EAE004E00083F2E0E9E000270083A2
:100B0C00002708B904BB0F9301E00E948A0B0E94D6
:100B1C009A0B0F910F9300E50E94910B0E949A0B78
:100B2C000F910F930FE60E94910B0E949A0B0F915D
:100B3C000F9303E70E94910B0E949A0B0F910F9356
:100B4C0009E60E94910B0E949A0B0F910F9304E7F8
:100B5C000E94910B0E949A0B0F910F9309E60E9431
:100B6C00910B0E949A0B0F910F930FE60E94910B21
:100B7C000E949A0B0F910F930EE60E94910B0E940C
:100B8C009A0B0F910F9300E20E94910B0E949A0B0B
:100B9C000F910F9306E40E94910B0E949A0B0F91F8
:100BAC000F930FE60E94910B0E949A0B0F910F93DB
:100BBC0005E70E94910B0E949A0B0F910F930EE682
:100BCC000E94910B0E949A0B0F910F9304E60E94C6
:100BDC00910B0E949A0B0F910F9301E20E94910BC3
:100BEC000E949A0B0F910F9300EC0E948A0B0E94AB
:100BFC009A0B0F910F9303E50E94910B0E949A0B95
:100C0C000F910F9303E60E94910B0E949A0B0F9188
:100C1C000F9301E60E94910B0E949A0B0F910F9378
:100C2C000EE60E94910B0E949A0B0F910F9300E21B
:100C3C000E94910B0E949A0B0F910F9306E60E9453
:100C4C00910B0E949A0B0F910F930FE60E94910B40
:100C5C000E949A0B0F910F9302E70E94910B0E9436
:100C6C009A0B0F910F9300E20E94910B0E949A0B2A
:100C7C000F910F930EE60E94910B0E949A0B0F910D
:100C8C000F9305E70E94910B0E949A0B0F910F9303
:100C9C000DE60E94910B0E949A0B0F910F9302E6A6
:100CAC000E94910B0E949A0B0F910F9305E60E94E4
:100CBC00910B0E949A0B0F910F9302E70E94910BDC
:100CCC000E949A0B0F91F2E0EDE000270083F2E016
:100CDC00EAE06081F2E0ECE03DE01FEE01E0109311
:100CEC000B012FEF2A95F1F7209109012023E1F454
:100CFC00412F4095402B5081541789F040830E941E
:100D0C0040097F3F61F0723011F40C94FF02753092
:100D1C0011F40C94B306763011F40C945F073DE09B
:100D2C00643011F430833DE0000F003181F03A95CE
:100D3C00D9F630833DE08EB18F7D8EB98827D2E015
:100D4C00CDE08883D2E0C4E188830C947A06110F3D
:100D5C0013951F3F11F20C947406F2E0EAE005E0E3
:100D6C000083F2E0E9E0002700830EB10F7D0EB99D
:100D7C000027F2E0EDE00083F2E0E7E000830F9360
:100D8C0001E00E948A0B0E949A0B0F910F9305E4CD
:100D9C000E94910B0E949A0B0F910F930EE60E94EA
:100DAC00910B0E949A0B0F910F9304E70E94910BE9
:100DBC000E949A0B0F910F9305E60E94910B0E94D3
:100DCC009A0B0F910F9302E70E94910B0E949A0BC2
:100DDC000F910F9300E20E94910B0E949A0B0F91BE
:100DEC000F9303E40E94910B0E949A0B0F910F93A7
:100DFC000FE60E94910B0E949A0B0F910F9304E641
:100E0C000E94910B0E949A0B0F910F9305E60E9482
:100E1C00910B0E949A0B0F910F9300EC0E948A0B7E
:100E2C000E949A0B0F91F2E0EAE06081F2E0ECE0B4
:100E3C003DE01FEE01E010930B012FEF2A95F1F727
:100E4C00209109012023E1F4412F4095402B508142
:100E5C00541789F040830E9440097F3F61F0723043
:100E6C0011F40C94FF02753011F40C94B306763027
:100E7C0011F40C945F073DE0643011F430833DE0D5
:100E8C00000F003181F03A95D9F630833DE08EB1F8
:100E9C008F7D8EB98827D2E0CDE08883D2E0C4E183
:100EAC0088830C942607110F13951F3F11F20C9495
:100EBC002007F2E0EAE006E00083F2E0E9E0002738
:100ECC0000830F93FF93EF93F2E0E5E104EF0083CF
:100EDC00EF91FF910F910F9301E00E948A0B0E94FA
:100EEC009A0B0F910F9307E40E94910B0E949A0B9F
:100EFC000F910F9301E60E94910B0E949A0B0F9198
:100F0C000F930DE60E94910B0E949A0B0F910F9379
:100F1C0005E60E94910B0E949A0B0F910F9300E231
:100F2C000E94910B0E949A0B0F910F9303E60E9463
:100F3C00910B0E949A0B0F910F930FE60E94910B4D
:100F4C000E949A0B0F910F930DE60E94910B0E9439
:100F5C009A0B0F910F9300E70E94910B0E949A0B32
:100F6C000F910F930CE60E94910B0E949A0B0F911C
:100F7C000F9305E60E94910B0E949A0B0F910F9311
:100F8C0004E70E94910B0E949A0B0F910F9305E6B8
:100F9C000E94910B0E949A0B0F910F9300EC0E94F0
:100FAC008A0B0E949A0B0F910F9309E50E94910BEB
:100FBC000E949A0B0F910F930FE60E94910B0E94C7
:100FCC009A0B0F910F9305E70E94910B0E949A0BBD
:100FDC000F910F9300E20E94910B0E949A0B0F91BC
:100FEC000F9307E50E94910B0E949A0B0F910F93A0
:100FFC0009E60E94910B0E949A0B0F910F930EE63B
:10100C000E94910B0E949A0B0F910F9301E20E9488
:10101C00910B0E949A0B0F91F2E0EAE06081F2E0F2
:10102C00ECE03DE01FEE01E010930B012FEF2A9551
:10103C00F1F7209109012023E1F4412F4095402B39
:10104C005081541789F040830E9440097F3F61F022
:10105C00723011F40C94FF02753011F40C94B30639
:10106C00763011F40C945F073DE0643011F430835A
:10107C003DE0000F003181F03A95D9F630833DE028
:10108C008EB18F7D8EB98827D2E0CDE08883D2E0F7
:10109C00C4E188830C941F08110F13951F3F11F2A4
:1010AC000C941908F2E0EAE007E00083F2E0E9E0D2
:1010BC00002700830F93FF93EF93F2E0E5E104EF39
:1010CC000083EF91FF910F91002708B904BB0F9398
:1010DC0001E00E948A0B0E949A0B0F910F9307E478
:1010EC000E94910B0E949A0B0F910F9301E60E94A4
:1010FC00910B0E949A0B0F910F930DE60E94910B8E
:10110C000E949A0B0F910F9305E60E94910B0E947F
:10111C009A0B0F910F9300E20E94910B0E949A0B75
:10112C000F910F930FE40E94910B0E949A0B0F9159
:10113C000F9306E70E94910B0E949A0B0F910F934D
:10114C0005E60E94910B0E949A0B0F910F9302E7F8
:10115C000E94910B0E949A0B0F910F9300EC0E942E
:10116C008A0B0E949A0B0F910F9309E50E94910B29
:10117C000E949A0B0F910F930FE60E94910B0E9405
:10118C009A0B0F910F9305E70E94910B0E949A0BFB
:10119C000F910F9300E20E94910B0E949A0B0F91FA
:1011AC000F930CE40E94910B0E949A0B0F910F93DA
:1011BC000FE60E94910B0E949A0B0F910F9303E77D
:1011CC000E94910B0E949A0B0F910F9305E60E94BF
:1011DC00910B0E949A0B0F910F9301E20E94910BBD
:1011EC000E949A0B0F91F2E0EAE06081F2E0ECE0F1
:1011FC003DE01FEE01E010930B012FEF2A95F1F764
:10120C00209109012023E1F4412F4095402B50817E
:10121C00541789F040830E9440097F3F61F072307F
:10122C0011F40C94FF02753011F40C94B306763063
:10123C0011F40C945F073DE0643011F430833DE011
:10124C00000F003181F03A95D9F630833DE08EB134
:10125C008F7D8EB98827D2E0CDE08883D2E0C4E1BF
:10126C0088830C940609110F13951F3F11F20C94EF
:10127C000009FFCF0F931F932F933F934F935F93CF
:10128C006F93FF93EF93603081F0643011F40C9402
:10129C00B009653011F40C94DE09673021F066302A
:1012AC0011F00C94FB090C9448007FEFF2E0E8E09D
:1012BC00413841F04238C1F0443841F14838C1F16D
:1012CC000C94FB0904E100830F9300E10E948A0B4C
:1012DC000E949A0B0F910F9305E40E94910B0E94B0
:1012EC009A0B0F910C94FB090FE000830F9300E114
:1012FC000E948A0B0E949A0B0F910F930DE40E948F
:10130C00910B0E949A0B0F910C94FB090AE000833D
:10131C000F9300E10E948A0B0E949A0B0F910F937E
:10132C0008E40E94910B0E949A0B0F910C94FB09FC
:10133C0006E000830F9300E10E948A0B0E949A0B37
:10134C000F910F9308E50E94910B0E949A0B0F913D
:10135C000C94FB097FEFF2E0E7E01081F2E0E0E0B3
:10136C00E10F1127F11F0081401759F02EB12F7D8D
:10137C002EB92227F2E0EDE02083F2E0E4E12083B5
:10138C0034C02EB120622EB9F2E0EDE021E02083D2
:10139C00F2E0EEE02081203041F1F2E0E7E0208144
:1013AC0023952083233011F072E01FC075E01DC01F
:1013BC007FEFF2E0E7E01081F2E0E0E0E10F1127CF
:1013CC00F11F0081401711F075E00FC0F2E0E7E06B
:1013DC001081139510830F930AE20E94910B0E94C7
:1013EC009A0B0F91133009F476E0EF91FF916F9106
:1013FC005F914F913F912F911F910F9108950F93F2
:10140C001F930F921F920F9300270A300F9131F008
:10141C0000240A3018F00A500394FBCF102D105DF5
:10142C00103341F00F93012F0E94910B0E949A0BE5
:10143C000F9107C00F9300E20E94910B0E949A0B30
:10144C000F910F93002701300F9131F000240130E0
:10145C0018F001500394FBCF102D105D0F93012F4A
:10146C000E94910B0E949A0B0F911F900F901F914D
:10147C000F9108952F933F933327321741F0002497
:10148C000217130720F0021B130B0394F9CF3F91A3
:10149C002F9108950F93002D003091F0013091F0B1
:1014AC00023091F0033091F0043091F0053091F05E
:1014BC00063091F0073091F0083091F0093091F03E
:1014CC0008E212C001E110C001E20EC001E40CC040
:1014DC0002E10AC002E208C002E406C004E104C052
:1014EC0004E202C004E400C0002E0F9108950C9495
:1014FC0048000F930FB70F931F93FF93EF93F2E0F6
:10150C00EBE00081013011F40C94D50A01E000836A
:10151C00F2E0EFE000270083F2E0EAE00081003027
:10152C0039F0063019F0073009F039C00C94480036
:10153C00EF91FF911F910F910FBF0F9128EE33E0A8
:10154C00009126001091B2001695079516950795F7
:10155C001695079516950795169507951695079563
:10156C00021713070CF00851F2E0E0E024E60E94A9
:10157C00400A0E94500A01922AE00E94400A0E94EE
:10158C00500A0192002E0E94500A01920DB71EB70C
:10159C000E5F1F4F0DBF1EBF78940C940302EF918A
:1015AC00FF911F910F910FBF0F9118950F930FB7CC
:1015BC000F931F93FF93EF93009178001091790094
:1015CC0016950795169507951695079516950795F3
:1015DC00F2E0E4E00083EF91FF911F910F910FBFB8
:1015EC000F9118950F930FB70F931F932F93FF9392
:1015FC00EF93F2E0EAE00081F2E0E5E110811030D7
:10160C0031F01A95108315B121E0122715B9F2E0CB
:10161C00E1E1108113951083143F11F1F2E0E5E044
:10162C001081103039F0F2E0E2E110811A9510834C
:10163C00103069F1F2E0EDE01081103039F0F2E099
:10164C00E4E1108113951083143F31F1063079F5E4
:10165C00F2E0E3E11081139510831D3311F127C0E3
:10166C0011271083F2E0E9E01081103051F00F9354
:10167C00FF93EF93F2E0E5E10DE30083EF91FF912F
:10168C000F91F2E0E0E110811A951083C7CFF2E0E0
:10169C00E6E011E01083CECFF2E0EEE011E0108333
:1016AC00D5CF112710831EB128E021272EB9EF9139
:1016BC00FF912F911F910F910FBF0F9118950F93C1
:1016CC000FB70F93FF93EF93F2E0EFE000810395D8
:1016DC000083003F29F400270083F2E0EBE0008355
:1016EC00EF91FF910F910FBF0F9118950F930FB7BB
:1016FC000F93FF93EF93F2E0EAE00081EF91FF91FB
:10170C000F910FBF0F91189501BB1FD0169A1DD0CA
:10171C0016981BD0089501BB179A17D0169A15D09E
:10172C00169813D0179808950F93002700BB01BB90
:10173C00159A0BD0169A09D00FB1169807FDF9CF50
:10174C0015980FEF00BB0F9108958F939F939FE017
:10175C008CE90197F1F79F918F910895F6DFF5DFF2
:08176C00F4DFF3DFF2DF089562
:00000001FF
