:020000020000FC
:0C0000000C9448000C94B2070C94B40758
:04003C000C94850893
:04005C000C942D08CB
:040074000C941108CF
:10008C000C949C08F8940FEF0DBF01E20EBF0027F3
:10009C00F2E0E0E00083F2E0E3E00083F2E0E5E090
:1000AC000083F2E0E6E00083F2E0E7E00083F2E0B8
:1000BC00E9E00083F2E0EBE00083F2E0ECE00083A7
:1000CC00F2E0EEE00083F2E0EFE00083F2E0E0E14A
:1000DC000083F2E0E2E10083F2E0E3E1008304E17B
:1000EC00F2E0E8E0008301E0F2E0EDE00083F2E012
:1000FC00EAE000830FEFF2E0E1E100830AE0009315
:10010C00690003E00DBB7894002704BD04E005BD35
:10011C0001E000936E0000270093B00002E0009312
:10012C00B10001E00093700001E20093900004E143
:10013C00009391000FEF00939A000FEF00BB01B9F1
:10014C0007B903E003BB08E30DB900EF00930A0104
:10015C0000270AB901BB02B908B904BB0EB90FEEEE
:10016C0000930B010F9308E3EFD7FED70F910E947A
:10017C00D4080F9308E3E8D7F7D70F910E94CB0868
:10018C000F9308E3E1D7F0D70F910F9308E3DCD777
:10019C00EBD70F910F9308E0D7D7E6D70F910F93BA
:1001AC0001E0D2D7E1D70F910F9306E0CDD7DCD782
:1001BC000F910F930EE0C8D7D7D70F917894F2E038
:1001CC00E9E000E000830F9302E3C5D7CDD70F9190
:1001DC000F9301E3C0D7C8D70F910F9302E3BBD79E
:1001EC00C3D70F910F9301E3B6D7BED70F910F93DF
:1001FC0000E2B1D7B9D70F910F9301E3ACD7B4D7C5
:10020C000F910F9306E3A7D7AFD70F910F9303E787
:10021C00A2D7AAD70F910F9301E39DD7A5D70F9122
:10022C000F9300EC91D7A0D70F910F9303E593D7C1
:10023C009BD70F910F9301E68ED796D70F910F9303
:10024C0006E689D791D70F910F9305E684D78CD703
:10025C000F910F9300E27FD787D70F910F9303E491
:10026C007AD782D70F910F9302E775D77DD70F916D
:10027C000F9301E670D778D70F910F9303E66BD7E6
:10028C0073D70F910F930BE666D76ED70F910F9321
:10029C0005E661D769D70F910F9302E75CD764D756
:1002AC000F910F9300E257D75FD70F910F9300E296
:1002BC0052D75AD70F910F9300E24DD755D70F91C4
:1002CC000F9305E448D750D70F910FE700930B011C
:1002DC00F2E0E8E0F2E0E9E06081F2E0EBE03DE042
:1002EC001FEE01E010930B012FEF2A95F1F72091EF
:1002FC0009012023C1F4412F4095402B5081541704
:10030C0069F040830E94B0067F3F41F0723031F4B7
:10031C000C946802753011F40C9442053DE0643085
:10032C0011F430833DE0000F003181F03A95F9F67D
:10033C0030833DE08EB18F7D8EB98827D2E0CCE042
:10034C008883D2E0C3E188830C947D01110F13954F
:10035C001F3F31F20C947701F2E0E9E001E00083F9
:10036C000F9301E0F1D600D70F910F9302E3F3D670
:10037C00FBD60F910F9301E3EED6F6D60F910F93A8
:10038C0002E3E9D6F1D60F910F9301E3E4D6ECD654
:10039C000F910F9300E2DFD6E7D60F910F9301E395
:1003AC00DAD6E2D60F910F9306E3D5D6DDD60F91B0
:1003BC000F9303E7D0D6D8D60F910F9301E3CBD68A
:1003CC00D3D60F910F9300ECBFD6CED60F910F93CF
:1003DC0003E5C1D6C9D60F910F9304E7BCD6C4D69A
:1003EC000F910F9301E6B7D6BFD60F910F9302E78B
:1003FC00B2D6BAD60F910F9304E7ADD6B5D60F91FE
:10040C000F9309E6A8D6B0D60F910F930EE6A3D69C
:10041C00ABD60F910F9307E69ED6A6D60F910F93EE
:10042C0000E299D6A1D60F910F9309E694D69CD6EB
:10043C000F910F930EE68FD697D60F910F9300E284
:10044C008AD692D60F910F9303E385D68DD60F9152
:10045C000F930EE280D688D60F910F930EE27BD6C7
:10046C0083D60F910F930EE276D67ED60F910F9313
:10047C0000E16AD679D60F910F9300E165D674D658
:10048C000F910F9300E160D66FD60F910F9300E19F
:10049C005BD66AD60F91F2E0E0E100270083F2E030
:1004AC00EFE003E000830081005D0F93002F53D633
:1004BC005BD60F910F9300E147D656D60F910033C0
:1004CC0009F0F1CFF2E0E9E002E000830EB10F7D1C
:1004DC000EB90F9301E038D647D60F910F9302E572
:1004EC003AD642D60F910F9305E635D63DD60F91ED
:1004FC000F9303E730D638D60F910F9305E62BD622
:10050C0033D60F910F9304E726D62ED60F910F9367
:10051C0000E221D629D60F910F9300E51CD624D6E4
:10052C000F910F930FE417D61FD60F910F9304E57D
:10053C0012D61AD60F910F9300E20DD615D60F9145
:10054C000F9304E708D610D60F910F930FE603D63E
:10055C000BD60F910F9300E2FED506D60F910F9399
:10056C0000E3F9D501D60F910F9300ECEDD5FCD536
:10057C000F910F9302E5EFD5F7D50F910F9305E689
:10058C00EAD5F2D50F910F930DE6E5D5EDD50F9188
:10059C000F9301E6E0D5E8D50F910F9309E6DBD573
:1005AC00E3D50F910F930EE6D6D5DED50F910F93B1
:1005BC0009E6D1D5D9D50F910F930EE6CCD5D4D56C
:1005CC000F910F9307E6C7D5CFD50F910F930AE381
:1005DC00C2D5CAD50F910F9300E2BDD5C5D50F91E9
:1005EC000F9300E2B8D5C0D50F910F9300E2B3D5AD
:1005FC00BBD50F91F2E0EDE000810030F9F000275F
:10060C000083F2E0E0E100270083F2E0E8E0008103
:10061C00F2E0EFE000830F9300E196D5A5D50F91A2
:10062C000F9300E191D5A0D50F910E944007F2E005
:10063C00E3E00091B200069506950083F2E0EFE04E
:10064C00D2E0C4E0B2E0A1E10AE70C930027B2E0EB
:10065C00A5E00C93B2E0A6E00C93B2E0A6E00C91FE
:10066C00013069F10F9300EC00937C0008E00093DB
:10067C007B000DEC00937A000F911881103029F457
:10068C00B2E0A5E001E00C9308C0B2E0A1E10AE7FA
:10069C000C93B2E0A5E000270C930081003011F41C
:1006AC000C9402060F9300E14FD55ED50F910F937A
:1006BC0000E14AD559D50F910E944007CECFF2E008
:1006CC00E9E003E000830F9301E03ED54DD50F9197
:1006DC000F9306E440D548D50F910F9309E63BD50F
:1006EC0043D50F910F930EE636D53ED50F910F9350
:1006FC0004E631D539D50F910F9300E22CD534D5C2
:10070C000F910F9300E527D52FD50F910F930FE481
:10071C0022D52AD50F910F9304E51DD525D50F9120
:10072C000F9300E218D520D50F910F9300E513D548
:10073C001BD50F910F930FE60ED516D50F910F9376
:10074C0003E709D511D50F910F9300ECFDD40CD50F
:10075C000F910F9302E5FFD407D50F910F9305E688
:10076C00FAD402D50F910F930DE6F5D4FDD40F9169
:10077C000F9301E6F0D4F8D40F910F9309E6EBD464
:10078C00F3D40F910F930EE6E6D4EED40F910F93A2
:10079C0009E6E1D4E9D40F910F930EE6DCD4E4D44E
:1007AC000F910F9307E6D7D4DFD40F910F930AE381
:1007BC00D2D4DAD40F910F9300E2CDD4D5D40F91CB
:1007CC000F9300E2C8D4D0D40F910F9300E2C3D49E
:1007DC00CBD40F91F2E0EFE0D2E0C4E0B2E0A3E0C2
:1007EC002C91B2E0A1E104EF0C930027B2E0A5E05C
:1007FC000C93B2E0A6E00C93B2E0A6E00C910130B1
:10080C0011F40C9455040F9300EC00937C0008E059
:10081C0000937B000DEC00937A000F911881121756
:10082C0049F40FEF08B903E004BBB2E0A5E001E026
:10083C000C9323C02CF0002708B904BB0C9468025D
:10084C00B2E0A1E104EF0C93B2E0A5E000270C9319
:10085C00312F3695422F4695341729F0312F3D5FB5
:10086C00231734F00AC00FEF08B901E004BB05C030
:10087C000FEF08B9002704BB00C00081003011F451
:10088C000C9402060F9300E15FD46ED40F910F937A
:10089C0000E15AD469D40F910E944007ADCFF2E029
:1008AC00E9E004E00083002708B904BB0F9301E0E2
:1008BC004BD45AD40F910F9300E54DD455D40F91CE
:1008CC000F930FE648D450D40F910F9303E743D402
:1008DC004BD40F910F9309E63ED446D40F910F934E
:1008EC0004E739D441D40F910F9309E634D43CD4A6
:1008FC000F910F930FE62FD437D40F910F930EE671
:10090C002AD432D40F910F9300E225D42DD40F9119
:10091C000F9306E420D428D40F910F930FE61BD429
:10092C0023D40F910F9305E716D41ED40F910F9378
:10093C000EE611D419D40F910F9304E60CD414D4F1
:10094C000F910F9301E207D40FD40F910F9300EC8A
:10095C00FBD30AD40F910F9303E5FDD305D40F916C
:10096C000F9303E6F8D300D40F910F9301E6F3D362
:10097C00FBD30F910F930EE6EED3F6D30F910F939B
:10098C0000E2E9D3F1D30F910F9306E6E4D3ECD355
:10099C000F910F930FE6DFD3E7D30F910F9302E77D
:1009AC00DAD3E2D30F910F9300E2D5D3DDD30F91BD
:1009BC000F930EE6D0D3D8D30F910F9305E7CBD37B
:1009CC00D3D30F910F930DE6C6D3CED30F910F93C4
:1009DC0002E6C1D3C9D30F910F9305E6BCD3C4D3A0
:1009EC000F910F9302E7B7D3BFD30F91F2E0ECE076
:1009FC0000270083F2E0E9E06081F2E0EBE03DE00B
:100A0C001FEE01E010930B012FEF2A95F1F72091C7
:100A1C0009012023C1F4412F4095402B50815417DC
:100A2C0069F040830E94B0067F3F41F0723031F490
:100A3C000C946802753011F40C9442053DE064305E
:100A4C0011F430833DE0000F003181F03A95F9F656
:100A5C0030833DE08EB18F7D8EB98827D2E0CCE01B
:100A6C008883D2E0C3E188830C940D05110F139594
:100A7C001F3F31F20C940705F2E0E9E005E000833A
:100A8C000EB10F7D0EB9F2E0E9E006E000830F93A2
:100A9C0001E05AD369D30F910F9307E45CD364D36D
:100AAC000F910F9301E657D35FD30F910F930DE680
:100ABC0052D35AD30F910F9305E64DD355D30F91C3
:100ACC000F9300E248D350D30F910F9303E643D317
:100ADC004BD30F910F930FE63ED346D30F910F9349
:100AEC000DE639D341D30F910F9300E734D33CD3A8
:100AFC000F910F930CE62FD337D30F910F9305E67D
:100B0C002AD332D30F910F9304E725D32DD30F9112
:100B1C000F9305E620D328D30F910F9300EC14D339
:100B2C0023D30F910F9309E516D31ED30F910F9377
:100B3C000FE611D319D30F910F9305E70CD314D3F0
:100B4C000F910F9300E207D30FD30F910F9307E58B
:100B5C0002D30AD30F910F9309E6FDD205D30F915F
:100B6C000F930EE6F8D200D30F910F9301E2F3D25C
:100B7C00FBD20F91F2E0E9E06081F2E0EBE03DE0C6
:100B8C001FEE01E010930B012FEF2A95F1F7209146
:100B9C0009012023C1F4412F4095402B508154175B
:100BAC0069F040830E94B0067F3F41F0723031F40F
:100BBC000C946802753011F40C9442053DE06430DD
:100BCC0011F430833DE0000F003181F03A95F9F6D5
:100BDC0030833DE08EB18F7D8EB98827D2E0CCE09A
:100BEC008883D2E0C3E188830C94CD05110F139553
:100BFC001F3F31F20C94C705F2E0E9E007E00083F7
:100C0C00002708B904BB0F9301E09ED2ADD20F911F
:100C1C000F9307E4A0D2A8D20F910F9301E69BD2B9
:100C2C00A3D20F910F930DE696D29ED20F910F93F4
:100C3C0005E691D299D20F910F9300E28CD294D207
:100C4C000F910F930FE487D28FD20F910F9306E77A
:100C5C0082D28AD20F910F9305E67DD285D20F9165
:100C6C000F9302E778D280D20F910F9300EC6CD2E5
:100C7C007BD20F910F9309E56ED276D20F910F9321
:100C8C000FE669D271D20F910F9305E764D26CD243
:100C9C000F910F9300E25FD267D20F910F930CE488
:100CAC005AD262D20F910F930FE655D25DD20F91AB
:100CBC000F9303E750D258D20F910F9305E64BD206
:100CCC0053D20F910F9301E246D24ED20F91F2E024
:100CDC00E9E06081F2E0EBE03DE01FEE01E0109313
:100CEC000B012FEF2A95F1F7209109012023C1F474
:100CFC00412F4095402B5081541769F040830E943E
:100D0C00B0067F3F41F0723031F40C9468027530BC
:100D1C0011F40C9442053DE0643011F430833DE055
:100D2C00000F003181F03A95F9F630833DE08EB139
:100D3C008F7D8EB98827D2E0CCE08883D2E0C3E1E6
:100D4C0088830C947A06110F13951F3F31F20C9483
:100D5C007406FFCF0F931F932F933F934F935F9383
:100D6C006F93FF93EF93603051F0643011F40C9457
:100D7C000A07673011F0663001F00C9448007FEFE1
:100D8C00F2E0E8E0413841F04238A1F0443801F19A
:100D9C00483861F10C94360704E100830F9300E1AD
:100DAC00D3D1E2D10F910F9305E4D5D1DDD10F91C1
:100DBC000C9436070FE000830F9300E1C5D1D4D11A
:100DCC000F910F930DE4C7D1CFD10F910C9436072F
:100DDC000AE000830F9300E1B7D1C6D10F910F93B6
:100DEC0008E4B9D1C1D10F910C94360706E0008309
:100DFC000F9300E1A9D1B8D10F910F9308E5ABD1B6
:100E0C00B3D10F910C9436077FEFF2E0E7E010813D
:100E1C00F2E0E0E0E10F1127F11F0081401759F0DB
:100E2C002EB12F7D2EB92227F2E0ECE02083F2E0E8
:100E3C00E3E1208315C02EB120622EB9F2E0ECE084
:100E4C0021E02083F2E0EDE02081203049F4F2E053
:100E5C00E7E02081233011F072E002C075E000C0A1
:100E6C00EF91FF916F915F914F913F912F911F9156
:100E7C000F9108950F931F930F921F920F930027BA
:100E8C000A300F9131F000240A3018F00A50039404
:100E9C00FBCF102D105D103331F00F93012F5BD170
:100EAC0063D10F9105C00F9300E255D15DD10F9125
:100EBC000F93002701300F9131F00024013018F00E
:100ECC0001500394FBCF102D105D0F93012F43D1D4
:100EDC004BD10F911F900F901F910F9108952F934D
:100EEC003F933327321741F000240217130720F0E9
:100EFC00021B130B0394F9CF3F912F9108950F937D
:100F0C00002D003091F0013091F0023091F003305F
:100F1C0091F0043091F0053091F0063091F00730EB
:100F2C0091F0083091F0093091F008E212C001E123
:100F3C0010C001E20EC001E40CC002E10AC002E2E2
:100F4C0008C002E406C004E104C004E202C004E4E8
:100F5C0000C0002E0F9108950C9448000F930FB70A
:100F6C000F931F93FF93EF93F2E0EAE000810130BF
:100F7C0011F40C940A0801E00083F2E0EEE0002783
:100F8C000083F2E0E9E00081003039F0063019F01E
:100F9C00073009F039C00C944800EF91FF911F9174
:100FAC000F910FBF0F9128EE33E0009126001091A6
:100FBC00B2001695079516950795169507951695F3
:100FCC0007951695079516950795021713070CF0BC
:100FDC000851F2E0E0E024E60E9475070E948507C4
:100FEC0001922AE00E9475070E9485070192002E4B
:100FFC000E94850701930DB71EB70E5F1F4F0DBFE3
:10100C001EBF78940C94B201EF91FF911F910F9138
:10101C000FBF0F9118950F930FB70F931F93FF935B
:10102C00EF9300917800109179001695079516951D
:10103C0007951695079516950795F2E0E4E0008361
:10104C00EF91FF911F910F910FBF0F9118950F9377
:10105C000FB70F931F932F93FF93EF93F2E0E9E0F9
:10106C000081F2E0E0E1108113951083143F11F13F
:10107C00F2E0E5E01081103039F0F2E0E1E11081AE
:10108C001A9510831030F1F0F2E0ECE01081103082
:10109C0039F0F2E0E3E1108113951083143FB9F0BD
:1010AC00063029F5F2E0E2E11081139510831D332F
:1010BC00C1F01DC011271083F2E0EFE010811A95EA
:1010CC001083D6CFF2E0E6E011E01083DDCFF2E042
:1010DC00EDE011E01083F2E0E7E01081139510834E
:1010EC00D3CF112710831EB128E021272EB9EF9101
:1010FC00FF912F911F910F910FBF0F9118950F9387
:10110C000FB70F93FF93EF93F2E0EEE0008103959E
:10111C000083003F29F400270083F2E0EAE000831B
:10112C00EF91FF910F910FBF0F9118950F930FB780
:10113C000F93FF93EF93F2E0E9E00081EF91FF91C1
:10114C000F910FBF0F91189501BB1FD0169A1DD090
:10115C0016981BD0089501BB179A17D0169A15D064
:10116C00169813D0179808950F93002700BB01BB56
:10117C00159A0BD0169A09D00FB1169807FDF9CF16
:10118C0015980FEF00BB0F9108958F939F939FE0DD
:10119C008CE90197F1F79F918F910895F6DFF5DFB8
:0811AC00F4DFF3DFF2DF089528
:00000001FF
