:020000020000FC
:0C0000000C9448000C94EF010C94F001EB
:04005C000C94F1010E
:10008C000C94F201F8940FEF0DBF01E20EBF0027A4
:10009C00F2E0E0E00083F2E0E3E00083F2E0E5E090
:1000AC000083F2E0E7E00083F2E0E8E00083F2E0B6
:1000BC00E9E0008304E1F2E0E6E000830AE000936B
:1000CC00690003E000931D0000270093240004E066
:1000DC000093250001E000936E0001E20093900074
:1000EC0004E1009391000FEF00939A000FEF00BB17
:1000FC0001B907B903E003BB08E30DB900EF0093A6
:10010C000A01002701BB02B908B904BB0EB90FEEF6
:10011C0000930B010F9308E36DD17CD10F9194D117
:10012C000F9308E367D176D10F9185D10F9308E334
:10013C0061D170D10F910F9308E35CD16BD10F910A
:10014C000F9308E057D166D10F910F9301E052D174
:10015C0061D10F910F9306E04DD15CD10F910F93AC
:10016C000EE048D157D10F917894F2E0E7E000E02F
:10017C0000830F9302E345D14DD10F910F9301E30F
:10018C0040D148D10F910F9302E33BD143D10F9152
:10019C000F9301E336D13ED10F910F9300E231D191
:1001AC0039D10F910F9301E32CD134D10F910F93CF
:1001BC0006E327D12FD10F910F9303E722D12AD138
:1001CC000F910F9301E31DD125D10F910F9300ECEB
:1001DC0011D120D10F910F9303E513D11BD10F91A6
:1001EC000F9301E60ED116D10F910F9306E609D1AC
:1001FC0011D10F910F9305E604D10CD10F910F93F0
:10020C0000E2FFD007D10F910F9303E4FAD002D193
:10021C000F910F9302E7F5D0FDD00F910F9301E6EC
:10022C00F0D0F8D00F910F9303E6EBD0F3D00F91F1
:10023C000F930BE6E6D0EED00F910F9305E6E1D0CD
:10024C00E9D00F910F9302E7DCD0E4D00F910F931C
:10025C0000E2D7D0DFD00F910F9300E2D2D0DAD0EA
:10026C000F910F9300E2CDD0D5D00F910F9305E4F1
:10027C00C8D0D0D00F910FE700930B01F2E0E6E06D
:10028C00F2E0E7E06081F2E0E9E03DE01FEE01E042
:10029C0010930B012FEF2A95F1F7209109012023E0
:1002AC0091F4412F4095402B5081541759F04083C5
:1002BC000E9495017F3F31F072300C947C017530B7
:1002CC000C9488013DE0000F003131F03A9529F78C
:1002DC0030833DE00C945301110F13951F3FB1F285
:1002EC000C944D01F2E0E7E001E00083F2E0E7E07E
:1002FC0002E00083F2E0E7E003E00083F2E0E7E0F5
:10030C0004E00083F2E0E7E005E00083F2E0E7E0E0
:10031C0006E00083F2E0E7E007E00083FFCF0F93F5
:10032C001F932F933F934F935F936F93FF93EF9391
:10033C00603001F07FEFF2E0E6E0413841F0423806
:10034C00A1F0443801F1483861F10C94E50104E165
:10035C0000830F9300E14ED05DD00F910F9305E415
:10036C0050D058D00F910C94E5010FE000830F93FF
:10037C0000E140D04FD00F910F930DE442D04AD002
:10038C000F910C94E5010AE000830F9300E132D049
:10039C0041D00F910F9308E434D03CD00F910C94C2
:1003AC00E50106E000830F9300E124D033D00F91D8
:1003BC000F9308E526D02ED00F910C94E501EF9108
:1003CC00FF916F915F914F913F912F911F910F91E1
:1003DC0008951895189518950F930FB70F93FF93D1
:1003EC00EF93F2E0E7E00081EF91FF910F910FBFE7
:1003FC000F91189501BB1FD0169A1DD016981BD0C3
:10040C00089501BB179A17D0169A15D0169813D0C9
:10041C00179808950F93002700BB01BB159A0BD0BA
:10042C00169A09D00FB1169807FDF9CF15980FEF52
:10043C0000BB0F9108958F939F939FE08CE90197D8
:10044C00F1F79F918F910895F6DFF5DFF4DFF3DF7D
:04045C00F2DF08952E
:00000001FF
