:020000020000FC
:0C0000000C9448000C9425060C94270674
:04003C000C94B80662
:04005C000C94760684
:040074000C945A0688
:10008C000C94CF06F8940FEF0DBF01E20EBF0027C2
:10009C00F2E0E0E00083F2E0E3E00083F2E0E5E090
:1000AC000083F2E0E6E00083F2E0E7E00083F2E0B8
:1000BC00E9E00083F2E0EBE00083F2E0EDE00083A6
:1000CC00F2E0EEE00083F2E0EFE00083F2E0E1E149
:1000DC00008304E1F2E0E8E0008301E0F2E0ECE010
:1000EC000083F2E0EAE000830FEFF2E0E0E100834E
:1000FC000AE00093690003E00DBB7894002704BD6F
:10010C0004E005BD01E000936E0000270093B000F1
:10011C0002E00093B10001E00093700001E2009353
:10012C00900004E1009391000FEF00939A000FEF01
:10013C0000BB01B907B903E003BB08E30DB900EF3D
:10014C0000930A0100270AB901BB02B908B904BB24
:10015C000EB90FEE00930B010F9308E328D637D698
:10016C000F914FD60F9308E322D631D60F9140D67C
:10017C000F9308E31CD62BD60F910F9308E317D6D9
:10018C0026D60F910F9308E012D621D60F910F931C
:10019C0001E00DD61CD60F910F9306E008D617D6AA
:1001AC000F910F930EE003D612D60F9178940C9406
:1001BC004704F2E0E9E000E000830F9302E3FED590
:1001CC0006D60F910F9301E3F9D501D60F910F933A
:1001DC0002E3F4D5FCD50F910F9301E3EFD5F7D5DE
:1001EC000F910F9300E2EAD5F2D50F910F9301E333
:1001FC00E5D5EDD50F910F9306E3E0D5E8D50F913A
:10020C000F9303E7DBD5E3D50F910F9301E3D6D51D
:10021C00DED50F910F9300ECCAD5D9D50F910F9362
:10022C0003E5CCD5D4D50F910F9301E6C7D5CFD527
:10023C000F910F9306E6C2D5CAD50F910F9305E621
:10024C00BDD5C5D50F910F9300E2B8D5C0D50F9190
:10025C000F9303E4B3D5BBD50F910F9302E7AED543
:10026C00B6D50F910F9301E6A9D5B1D50F910F9388
:10027C0003E6A4D5ACD50F910F930BE69FD5A7D56C
:10028C000F910F9305E69AD5A2D50F910F9302E724
:10029C0095D59DD50F910F9300E290D598D50F91E0
:1002AC000F9300E28BD593D50F910F9300E286D577
:1002BC008ED50F910F9305E481D589D50F910FE75A
:1002CC0000930B01F2E0E8E0F2E0E9E06081F2E09B
:1002DC00EBE03DE01FEE01E010930B012FEF2A95B0
:1002EC00F1F720910901202391F4412F4095402BE7
:1002FC005081541759F040830E9490057F3F31F094
:10030C0072300C94520275300C9443043DE0000F93
:10031C00003131F03A9529F730833DE00C947701A8
:10032C00110F13951F3FB1F20C947101F2E0E9E04B
:10033C0001E000830F9301E03AD549D50F910F935B
:10034C0002E33CD544D50F910F9301E337D53FD54C
:10035C000F910F9302E332D53AD50F910F9301E32E
:10036C002DD535D50F910F9300E228D530D50F91AF
:10037C000F9301E323D52BD50F910F9306E31ED5D5
:10038C0026D50F910F9303E719D521D50F910F9314
:10039C0001E314D51CD50F910F9300EC08D517D59C
:1003AC000F910F9303E50AD512D50F910F9304E724
:1003BC0005D50DD50F910F9301E600D508D50F91FA
:1003CC000F9302E7FBD403D50F910F9304E7F6D4F8
:1003DC00FED40F910F9309E6F1D4F9D40F910F933A
:1003EC000EE6ECD4F4D40F910F9307E6E7D4EFD4D8
:1003FC000F910F9300E2E2D4EAD40F910F9309E628
:10040C00DDD4E5D40F910F930EE6D8D4E0D40F9140
:10041C000F9300E2D3D4DBD40F910F9303E3CED42C
:10042C00D6D40F910F930EE2C9D4D1D40F910F9360
:10043C000EE2C4D4CCD40F910F930EE2BFD4C7D428
:10044C000F910F9300E1B3D4C2D40F910F9300E13D
:10045C00AED4BDD40F910F9300E1A9D4B8D40F91B1
:10046C000F9300E1A4D4B3D40F91F2E0EFE0002796
:10047C000083F2E0EEE003E000830081005D0F9367
:10048C00002F9CD4A4D40F910F9300E190D49FD44F
:10049C000F91003309F0F1CFF2E0E9E002E00083C4
:1004AC000F9301E084D493D40F910F9302E586D47B
:1004BC008ED40F910F9305E681D489D40F910F93AD
:1004CC0003E77CD484D40F910F9305E677D47FD4C3
:1004DC000F910F9304E772D47AD40F910F9300E22B
:1004EC006DD475D40F910F9300E568D470D40F912F
:1004FC000F930FE463D46BD40F910F9304E55ED488
:10050C0066D40F910F9300E259D461D40F910F93DD
:10051C0004E754D45CD40F910F930FE64FD457D407
:10052C000F910F9300E24AD452D40F910F9300E332
:10053C0045D44DD40F910F9300EC39D448D40F917E
:10054C000F9302E53BD443D40F910F9305E636D4B9
:10055C003ED40F910F930DE631D439D40F910F93F4
:10056C0001E62CD434D40F910F9309E627D42FD461
:10057C000F910F930EE622D42AD40F910F9309E614
:10058C001DD425D40F910F930EE618D420D40F91BF
:10059C000F9307E613D41BD40F910F930AE30ED4D9
:1005AC0016D40F910F9300E209D411D40F910F932D
:1005BC0000E204D40CD40F910F9300E2FFD307D4C4
:1005CC000F91F2E0ECE000810030F9F0002700839D
:1005DC00F2E0EFE000270083F2E0E8E00081F2E0D7
:1005EC00EEE000830F9300E1E2D3F1D30F910F9370
:1005FC0000E1DDD3ECD30F910E94F005F2E0E3E0D3
:10060C000091B200069506950083F2E0EEE0D2E090
:10061C00C4E0B2E0A0E10AE70C930027B2E0A5E049
:10062C000C93B2E0A6E00C93B2E0A6E00C91013082
:10063C0069F10F9300EC00937C0008E000937B00C1
:10064C000DEC00937A000F911881103029F4B2E070
:10065C00A5E001E00C9308C0B2E0A0E10AE70C931E
:10066C00B2E0A5E000270C930081003011F40C944B
:10067C00F2040F9300E19BD3AAD30F910F9300E1E7
:10068C0096D3A5D30F910E94F005CECFF2E0E9E00E
:10069C0003E000830F9301E08AD399D30F910F935A
:1006AC0006E48CD394D30F910F9309E687D38FD3A1
:1006BC000F910F930EE682D38AD30F910F9304E61A
:1006CC007DD385D30F910F9300E278D380D30F9114
:1006DC000F9300E573D37BD30F910F930FE46ED37D
:1006EC0076D30F910F9304E569D371D30F910F93C8
:1006FC0000E264D36CD30F910F9300E55FD367D303
:10070C000F910F930FE65AD362D30F910F9303E718
:10071C0055D35DD30F910F9300EC49D358D30F9160
:10072C000F9302E54BD353D30F910F9305E646D3AA
:10073C004ED30F910F930DE641D349D30F910F93E5
:10074C0001E63CD344D30F910F9309E637D33FD343
:10075C000F910F930EE632D33AD30F910F9309E614
:10076C002DD335D30F910F930EE628D330D30F91A1
:10077C000F9307E623D32BD30F910F930AE31ED3CA
:10078C0026D30F910F9300E219D321D30F910F931E
:10079C0000E214D31CD30F910F9300E20FD317D3A5
:1007AC000F91F2E0EEE0D2E0C4E0B2E0A3E02C91D5
:1007BC00B2E0A0E104EF0C930027B2E0A5E00C93AB
:1007CC00B2E0A6E00C93B2E0A6E00C91013011F47B
:1007DC000C943C040F9300EC00937C0008E0009315
:1007EC007B000DEC00937A000F911881121749F4DD
:1007FC000FEF08B903E004BBB2E0A5E001E00C93F5
:10080C0023C02CF0002708B904BB0C945202B2E0B0
:10081C00A0E104EF0C93B2E0A5E000270C93312F7C
:10082C003E7F422F4E7F341729F0312F3D5F231727
:10083C0034F00AC00FEF08B901E004BB05C00FEF9C
:10084C0008B9002704BB00C00081003011F40C94DF
:10085C00F2040F9300E1ABD2BAD20F910F9300E1E7
:10086C00A6D2B5D20F910E94F005ADCFF2E0E9E02F
:10087C0004E00083002708B904BBF2E0E9E005E0DE
:10088C000083F2E0E9E006E000830F9301E08FD2F1
:10089C009ED20F910F9307E491D299D20F910F939F
:1008AC0001E68CD294D20F910F930DE687D28FD2A2
:1008BC000F910F9305E682D28AD20F910F9300E22B
:1008CC007DD285D20F910F9303E678D280D20F910F
:1008DC000F930FE673D27BD20F910F930DE66ED26E
:1008EC0076D20F910F9300E769D271D20F910F93CB
:1008FC000CE664D26CD20F910F9305E65FD267D2EF
:10090C000F910F9304E75AD262D20F910F9305E621
:10091C0055D25DD20F910F9300EC49D258D20F9162
:10092C000F9309E54BD253D20F910F930FE646D29A
:10093C004ED20F910F9305E741D249D20F910F93ED
:10094C0000E23CD244D20F910F9307E537D23FD24D
:10095C000F910F9309E632D23AD20F910F930EE614
:10096C002DD235D20F910F9301E228D230D20F91B4
:10097C00F2E0E9E06081F2E0EBE03DE01FEE01E047
:10098C0010930B012FEF2A95F1F7209109012023E9
:10099C0091F4412F4095402B5081541759F04083CE
:1009AC000E9490057F3F31F072300C9452027530EA
:1009BC000C9443043DE0000F003131F03A9529F7D7
:1009CC0030833DE00C94CB04110F13951F3FB1F213
:1009DC000C94C5040C944704F2E0E9E007E00083B2
:1009EC00002708B904BB0F9301E0E1D1F0D10F91BE
:1009FC000F9307E4E3D1EBD10F910F9301E6DED116
:100A0C00E6D10F910F930DE6D9D1E1D10F910F9350
:100A1C0005E6D4D1DCD10F910F9300E2CFD1D7D121
:100A2C000F910F930FE4CAD1D2D10F910F9306E718
:100A3C00C5D1CDD10F910F9305E6C0D1C8D10F917F
:100A4C000F9302E7BBD1C3D10F910F9300ECAFD141
:100A5C00BED10F910F9309E5B1D1B9D10F910F937D
:100A6C000FE6ACD1B4D10F910F9305E7A7D1AFD15D
:100A7C000F910F9300E2A2D1AAD10F910F930CE426
:100A8C009DD1A5D10F910F930FE698D1A0D10F91C5
:100A9C000F9303E793D19BD10F910F9305E68ED162
:100AAC0096D10F910F9301E289D191D10F91F2E080
:100ABC00E9E06081F2E0EBE03DE01FEE01E0109335
:100ACC000B012FEF2A95F1F720910901202391F4C6
:100ADC00412F4095402B5081541759F040830E9470
:100AEC0090057F3F31F072300C94520275300C94AB
:100AFC0043043DE0000F003131F03A9529F7308383
:100B0C003DE00C946A05110F13951F3FB1F20C9444
:100B1C006405FFCF0F931F932F933F934F935F93D6
:100B2C006F93FF93EF93603031F0673011F06630C4
:100B3C0001F00C9448007FEFF2E0E8E0413841F01E
:100B4C004238A1F0443801F1483861F10C94E605C3
:100B5C0004E100830F9300E12AD139D10F910F9357
:100B6C0005E42CD134D10F910C94E6050FE00083F1
:100B7C000F9300E11CD12BD10F910F930DE41ED1DB
:100B8C0026D10F910C94E6050AE000830F9300E147
:100B9C000ED11DD10F910F9308E410D118D10F91E4
:100BAC000C94E60506E000830F9300E100D10FD111
:100BBC000F910F9308E502D10AD10F910C94E60521
:100BCC00EF91FF916F915F914F913F912F911F91F9
:100BDC000F9108950F931F930F921F920F9300275D
:100BEC000A300F9131F000240A3018F00A500394A7
:100BFC00FBCF102D105D103331F00F93012FDED091
:100C0C00E6D00F9105C00F9300E2D8D0E0D00F9141
:100C1C000F93002701300F9131F00024013018F0B0
:100C2C0001500394FBCF102D105D0F93012FC6D0F4
:100C3C00CED00F911F900F901F910F9108950C948F
:100C4C0048000F930FB70F931F93FF93EF93F2E0AE
:100C5C00EAE00081013009F101E00083F2E0EDE00F
:100C6C0000270083F2E0E9E00081003039F0063023
:100C7C0019F0073009F011C00C944800EF91FF9166
:100C8C001F910F910FBF0F910DB71EB70E5F1F4F26
:100C9C000DBF1EBF78940C949C01EF91FF911F9196
:100CAC000F910FBF0F9118950F930FB70F931F93C1
:100CBC00FF93EF93009178001091790016950795AA
:100CCC00169507951695079516950795F2E0E4E0AD
:100CDC000083EF91FF911F910F910FBF0F9118950A
:100CEC000F930FB70F931F932F93FF93EF93F2E094
:100CFC00E9E00081F2E0EFE0108113951083143FDE
:100D0C00B1F0F2E0E5E01081103039F0F2E0E0E112
:100D1C0010811A951083103091F00630D9F4F2E05E
:100D2C00E1E11081139510831D3371F013C011276D
:100D3C001083F2E0EEE010811A951083E2CFF2E01E
:100D4C00E6E011E01083E9CF112710831EB128E0F3
:100D5C0021272EB9EF91FF912F911F910F910FBF6A
:100D6C000F9118950F930FB70F93FF93EF93F2E03A
:100D7C00EDE0008103950083083C29F400270083F3
:100D8C00F2E0EAE00083EF91FF910F910FBF0F911A
:100D9C0018950F930FB70F93FF93EF93F2E0E9E0E1
:100DAC000081EF91FF910F910FBF0F91189501BB2F
:100DBC001FD0169A1DD016981BD0089501BB179AF8
:100DCC0017D0169A15D0169813D0179808950F931C
:100DDC00002700BB01BB159A0BD0169A09D00FB196
:100DEC00169807FDF9CF15980FEF00BB0F910895DA
:100DFC008F939F939FE08CE90197F1F79F918F91CF
:0E0E0C000895F6DFF5DFF4DFF3DFF2DF08957F
:00000001FF
