:020000020000FC
:0C0000000C9448000C943A0A0C943C0A42
:04003C000C94080B0D
:04005C000C94B50A41
:040074000C94990A45
:10008C000C941F0BF8940FEF0DBF01E20EBF00276D
:10009C00F2E0E0E00083F2E0E3E00083F2E0E5E090
:1000AC000083F2E0E6E00083F2E0E7E00083F2E0B8
:1000BC00E9E00083F2E0EBE00083F2E0ECE00083A7
:1000CC00F2E0EEE00083F2E0EFE00083F2E0E0E14A
:1000DC000083F2E0E2E10083F2E0E3E1008304E17B
:1000EC00F2E0E8E0008301E0F2E0EDE00083F2E012
:1000FC00EAE000830FEFF2E0E1E100830AE0009315
:10010C00690003E00DBB7894002704BD04E005BD35
:10011C0001E000936E0000270093B00002E0009312
:10012C00B10001E00093700001E20093900004E143
:10013C00009391000FEF00939A000FEF00BB01B9F1
:10014C0007B903E003BB08E30DB900EF00930A0104
:10015C0000270AB901BB02B908B904BB0EB90FEEEE
:10016C0000930B010F9308E30E942D0B0E943D0B93
:10017C000F910E94570B0F9308E30E942D0B0E94C6
:10018C003D0B0F910E944E0B0F9308E30E942D0B19
:10019C000E943D0B0F910F9308E30E942D0B0E94C0
:1001AC003D0B0F910F9308E00E942D0B0E943D0B0D
:1001BC000F910F9301E00E942D0B0E943D0B0F91AC
:1001CC000F9306E00E942D0B0E943D0B0F910F9395
:1001DC000EE00E942D0B0E943D0B0F917894F2E0E3
:1001EC00E9E000E000830F9302E30E94340B0E94CD
:1001FC003D0B0F910F9301E30E94340B0E943D0BBA
:10020C000F910F9302E30E94340B0E943D0B0F9150
:10021C000F9301E30E94340B0E943D0B0F910F933F
:10022C0000E20E94340B0E943D0B0F910F9301E3EF
:10023C000E94340B0E943D0B0F910F9306E30E941A
:10024C00340B0E943D0B0F910F9303E70E94340B6C
:10025C000E943D0B0F910F9301E30E94340B0E94FF
:10026C003D0B0F910F9300EC0E942D0B0E943D0B48
:10027C000F910F9303E50E94340B0E943D0B0F91DD
:10028C000F9301E60E94340B0E943D0B0F910F93CC
:10029C0006E60E94340B0E943D0B0F910F9305E66E
:1002AC000E94340B0E943D0B0F910F9300E20E94B1
:1002BC00340B0E943D0B0F910F9303E40E94340BFF
:1002CC000E943D0B0F910F9302E70E94340B0E948A
:1002DC003D0B0F910F9301E60E94340B0E943D0BD6
:1002EC000F910F9303E60E94340B0E943D0B0F916C
:1002FC000F930BE60E94340B0E943D0B0F910F9352
:10030C0005E60E94340B0E943D0B0F910F9302E700
:10031C000E94340B0E943D0B0F910F9300E20E9440
:10032C00340B0E943D0B0F910F9300E20E94340B93
:10033C000E943D0B0F910F9300E20E94340B0E9420
:10034C003D0B0F910F9305E40E94340B0E943D0B63
:10035C000F910FE700930B01F2E0E8E0F2E0E9E027
:10036C006081F2E0EBE03DE01FEE01E010930B0149
:10037C002FEF2A95F1F7209109012023E1F4412F69
:10038C004095402B5081541789F040830E94FD0802
:10039C007F3F61F0723011F40C94F202753011F45D
:1003AC000C949006763011F40C9438073DE06430D0
:1003BC0011F430833DE0000F003181F03A95D9F60D
:1003CC0030833DE08EB18F7D8EB98827D2E0CCE0B2
:1003DC008883D2E0C3E188830C94C101110F13957B
:1003EC001F3F11F20C94BB01F2E0E9E001E0008345
:1003FC000F9301E00E942D0B0E943D0B0F910F9368
:10040C0002E30E94340B0E943D0B0F910F9301E30A
:10041C000E94340B0E943D0B0F910F9302E30E943C
:10042C00340B0E943D0B0F910F9301E30E94340B90
:10043C000E943D0B0F910F9300E20E94340B0E941F
:10044C003D0B0F910F9301E30E94340B0E943D0B67
:10045C000F910F9306E30E94340B0E943D0B0F91FA
:10046C000F9303E70E94340B0E943D0B0F910F93E7
:10047C0001E30E94340B0E943D0B0F910F9300EC93
:10048C000E942D0B0E943D0B0F910F9303E50E94D0
:10049C00340B0E943D0B0F910F9304E70E94340B19
:1004AC000E943D0B0F910F9301E60E94340B0E94AA
:1004BC003D0B0F910F9302E70E94340B0E943D0BF2
:1004CC000F910F9304E70E94340B0E943D0B0F9188
:1004DC000F9309E60E94340B0E943D0B0F910F9372
:1004EC000EE60E94340B0E943D0B0F910F9307E612
:1004FC000E94340B0E943D0B0F910F9300E20E945F
:10050C00340B0E943D0B0F910F9309E60E94340BA4
:10051C000E943D0B0F910F930EE60E94340B0E942C
:10052C003D0B0F910F9300E20E94340B0E943D0B88
:10053C000F910F9303E30E94340B0E943D0B0F911C
:10054C000F930EE20E94340B0E943D0B0F910F9300
:10055C000EE20E94340B0E943D0B0F910F930EE2A2
:10056C000E94340B0E943D0B0F910F9300E10E94EF
:10057C002D0B0E943D0B0F910F9300E10E942D0B50
:10058C000E943D0B0F910F9300E10E942D0B0E94D6
:10059C003D0B0F910F9300E10E942D0B0E943D0B20
:1005AC000F91F2E0E0E100270083F2E0EFE003E0DE
:1005BC0000830081005D0F93002F0E94340B0E947A
:1005CC003D0B0F910F9300E10E942D0B0E943D0BF0
:1005DC000F91003309F0EDCFF2E0E9E002E0008387
:1005EC000EB10F7D0EB9F2E0ECE0002700830F9303
:1005FC0001E00E942D0B0E943D0B0F910F9302E521
:10060C000E94340B0E943D0B0F910F9305E60E9444
:10061C00340B0E943D0B0F910F9303E70E94340B98
:10062C000E943D0B0F910F9305E60E94340B0E9424
:10063C003D0B0F910F9304E70E94340B0E943D0B6E
:10064C000F910F9300E20E94340B0E943D0B0F910F
:10065C000F9300E50E94340B0E943D0B0F910F93FA
:10066C000FE40E94340B0E943D0B0F910F9304E595
:10067C000E94340B0E943D0B0F910F9300E20E94DD
:10068C00340B0E943D0B0F910F9304E70E94340B27
:10069C000E943D0B0F910F930FE60E94340B0E94AA
:1006AC003D0B0F910F9300E20E94340B0E943D0B07
:1006BC000F910F9300E30E94340B0E943D0B0F919E
:1006CC000F9300EC0E942D0B0E943D0B0F910F938A
:1006DC0002E50E94340B0E943D0B0F910F9305E62F
:1006EC000E94340B0E943D0B0F910F930DE60E945C
:1006FC00340B0E943D0B0F910F9301E60E94340BBB
:10070C000E943D0B0F910F9309E60E94340B0E943F
:10071C003D0B0F910F930EE60E94340B0E943D0B84
:10072C000F910F9309E60E94340B0E943D0B0F9121
:10073C000F930EE60E94340B0E943D0B0F910F930A
:10074C0007E60E94340B0E943D0B0F910F930AE3B6
:10075C000E94340B0E943D0B0F910F9300E20E94FC
:10076C00340B0E943D0B0F910F9300E20E94340B4F
:10077C000E943D0B0F910F9300E20E94340B0E94DC
:10078C003D0B0F91F2E0EDE00081003019F10027F4
:10079C000083F2E0E0E100270083F2E0E8E0008172
:1007AC00F2E0EFE000830F9300E10E942D0B0E941A
:1007BC003D0B0F910F9300E10E942D0B0E943D0BFE
:1007CC000F910E94C209F2E0E3E00091B20006959D
:1007DC0006950083F2E0EFE0D2E0C4E0B2E0A1E1E4
:1007EC000AE70C930027B2E0A5E00C93B2E0A6E078
:1007FC000C93B2E0A6E00C91013089F10F9300EC60
:10080C0000937C0008E000937B000DEC00937A00D1
:10081C000F911881103029F4B2E0A5E001E00C939F
:10082C0008C0B2E0A1E10AE70C93B2E0A5E0002712
:10083C000C930081003011F40C9423080F9300E109
:10084C000E942D0B0E943D0B0F910F9300E10E9413
:10085C002D0B0E943D0B0F910E94C209CACFF2E0F2
:10086C00E9E003E000830F9301E00E942D0B0E944E
:10087C003D0B0F910F9306E40E94340B0E943D0B2D
:10088C000F910F9309E60E94340B0E943D0B0F91C0
:10089C000F930EE60E94340B0E943D0B0F910F93A9
:1008AC0004E60E94340B0E943D0B0F910F9300E263
:1008BC000E94340B0E943D0B0F910F9300E50E9498
:1008CC00340B0E943D0B0F910F930FE40E94340BDD
:1008DC000E943D0B0F910F9304E50E94340B0E9474
:1008EC003D0B0F910F9300E20E94340B0E943D0BC5
:1008FC000F910F9300E50E94340B0E943D0B0F915A
:10090C000F930FE60E94340B0E943D0B0F910F9337
:10091C0003E70E94340B0E943D0B0F910F9300ECE8
:10092C000E942D0B0E943D0B0F910F9302E50E942C
:10093C00340B0E943D0B0F910F9305E60E94340B74
:10094C000E943D0B0F910F930DE60E94340B0E94F9
:10095C003D0B0F910F9301E60E94340B0E943D0B4F
:10096C000F910F9309E60E94340B0E943D0B0F91DF
:10097C000F930EE60E94340B0E943D0B0F910F93C8
:10098C0009E60E94340B0E943D0B0F910F930EE66B
:10099C000E94340B0E943D0B0F910F9307E60E94AF
:1009AC00340B0E943D0B0F910F930AE30E94340B02
:1009BC000E943D0B0F910F9300E20E94340B0E949A
:1009CC003D0B0F910F9300E20E94340B0E943D0BE4
:1009DC000F910F9300E20E94340B0E943D0B0F917C
:1009EC00F2E0EFE0D2E0C4E0B2E0A3E02C91B2E0A0
:1009FC00A1E104EF0C930027B2E0A5E00C93B2E068
:100A0C00A6E00C93B2E0A6E00C91013011F40C942A
:100A1C005F050F9300EC00937C0008E000937B00D3
:100A2C000DEC00937A000F911881121749F40FEF17
:100A3C0008B903E004BBB2E0A5E001E00C9323C0CD
:100A4C002CF0002708B904BB0C94F202B2E0A1E12F
:100A5C0004EF0C93B2E0A5E000270C93312F3695F0
:100A6C00422F4695341729F0312F3D5F231734F070
:100A7C000AC00FEF08B901E004BB05C00FEF08B9BD
:100A8C00002704BB00C00081003011F40C94230833
:100A9C000F9300E10E942D0B0E943D0B0F910F93C1
:100AAC0000E10E942D0B0E943D0B0F910E94C20988
:100ABC00A9CFF2E0E9E004E00083002708B904BB09
:100ACC000F9301E00E942D0B0E943D0B0F910F9391
:100ADC0000E50E94340B0E943D0B0F910F930FE623
:100AEC000E94340B0E943D0B0F910F9303E70E9461
:100AFC00340B0E943D0B0F910F9309E60E94340BAF
:100B0C000E943D0B0F910F9304E70E94340B0E943F
:100B1C003D0B0F910F9309E60E94340B0E943D0B85
:100B2C000F910F930FE60E94340B0E943D0B0F9117
:100B3C000F930EE60E94340B0E943D0B0F910F9306
:100B4C0000E20E94340B0E943D0B0F910F9306E4C0
:100B5C000E94340B0E943D0B0F910F930FE60E94E5
:100B6C00340B0E943D0B0F910F9305E70E94340B41
:100B7C000E943D0B0F910F930EE60E94340B0E94C6
:100B8C003D0B0F910F9304E60E94340B0E943D0B1A
:100B9C000F910F9301E20E94340B0E943D0B0F91B9
:100BAC000F9300EC0E942D0B0E943D0B0F910F93A5
:100BBC0003E50E94340B0E943D0B0F910F9303E64B
:100BCC000E94340B0E943D0B0F910F9301E60E9483
:100BDC00340B0E943D0B0F910F930EE60E94340BC9
:100BEC000E943D0B0F910F9300E20E94340B0E9468
:100BFC003D0B0F910F9306E60E94340B0E943D0BA8
:100C0C000F910F930FE60E94340B0E943D0B0F9136
:100C1C000F9302E70E94340B0E943D0B0F910F9330
:100C2C0000E20E94340B0E943D0B0F910F930EE6D5
:100C3C000E94340B0E943D0B0F910F9305E70E940D
:100C4C00340B0E943D0B0F910F930DE60E94340B59
:100C5C000E943D0B0F910F9302E60E94340B0E94F1
:100C6C003D0B0F910F9305E60E94340B0E943D0B38
:100C7C000F910F9302E70E94340B0E943D0B0F91D2
:100C8C00F2E0ECE000270083F2E0E9E06081F2E0C2
:100C9C00EBE03DE01FEE01E010930B012FEF2A95E6
:100CAC00F1F7209109012023E1F4412F4095402BCD
:100CBC005081541789F040830E94FD087F3F61F0FA
:100CCC00723011F40C94F202753011F40C949006FD
:100CDC00763011F40C9438073DE0643011F4308315
:100CEC003DE0000F003181F03A95D9F630833DE0BC
:100CFC008EB18F7D8EB98827D2E0CCE08883D2E08C
:100D0C00C3E188830C945706110F13951F3F11F202
:100D1C000C945106F2E0E9E005E000830EB10F7D82
:100D2C000EB90027F2E0ECE00083F2E0E7E000838C
:100D3C000F9301E00E942D0B0E943D0B0F910F931E
:100D4C0005E40E94340B0E943D0B0F910F930EE6AD
:100D5C000E94340B0E943D0B0F910F9304E70E94ED
:100D6C00340B0E943D0B0F910F9305E60E94340B40
:100D7C000E943D0B0F910F9302E70E94340B0E94CF
:100D8C003D0B0F910F9300E20E94340B0E943D0B20
:100D9C000F910F9303E40E94340B0E943D0B0F91B3
:100DAC000F930FE60E94340B0E943D0B0F910F9393
:100DBC0004E60E94340B0E943D0B0F910F9305E645
:100DCC000E94340B0E943D0B0F910F9300EC0E947C
:100DDC002D0B0E943D0B0F91F2E0E9E06081F2E0F7
:100DEC00EBE03DE01FEE01E010930B012FEF2A9595
:100DFC00F1F7209109012023E1F4412F4095402B7C
:100E0C005081541789F040830E94FD087F3F61F0A8
:100E1C00723011F40C94F202753011F40C949006AB
:100E2C00763011F40C9438073DE0643011F43083C3
:100E3C003DE0000F003181F03A95D9F630833DE06A
:100E4C008EB18F7D8EB98827D2E0CCE08883D2E03A
:100E5C00C3E188830C94FF06110F13951F3F11F209
:100E6C000C94F906F2E0E9E006E000830F9301E050
:100E7C000E942D0B0E943D0B0F910F9307E40E94D3
:100E8C00340B0E943D0B0F910F9301E60E94340B23
:100E9C000E943D0B0F910F930DE60E94340B0E94A4
:100EAC003D0B0F910F9305E60E94340B0E943D0BF6
:100EBC000F910F9300E20E94340B0E943D0B0F9197
:100ECC000F9303E60E94340B0E943D0B0F910F937E
:100EDC000FE60E94340B0E943D0B0F910F930DE611
:100EEC000E94340B0E943D0B0F910F9300E70E9460
:100EFC00340B0E943D0B0F910F930CE60E94340BA8
:100F0C000E943D0B0F910F9305E60E94340B0E943B
:100F1C003D0B0F910F9304E70E94340B0E943D0B85
:100F2C000F910F9305E60E94340B0E943D0B0F911D
:100F3C000F9300EC0E942D0B0E943D0B0F910F9311
:100F4C0009E50E94340B0E943D0B0F910F930FE6A5
:100F5C000E94340B0E943D0B0F910F9305E70E94EA
:100F6C00340B0E943D0B0F910F9300E20E94340B47
:100F7C000E943D0B0F910F9307E50E94340B0E94CA
:100F8C003D0B0F910F9309E60E94340B0E943D0B11
:100F9C000F910F930EE60E94340B0E943D0B0F91A4
:100FAC000F9301E20E94340B0E943D0B0F91F2E073
:100FBC00E9E06081F2E0EBE03DE01FEE01E0109330
:100FCC000B012FEF2A95F1F7209109012023E1F471
:100FDC00412F4095402B5081541789F040830E943B
:100FEC00FD087F3F61F0723011F40C94F202753001
:100FFC0011F40C949006763011F40C9438073DE003
:10100C00643011F430833DE0000F003181F03A95EB
:10101C00D9F630833DE08EB18F7D8EB98827D2E032
:10102C00CCE08883D2E0C3E188830C94EA07110FEB
:10103C0013951F3F11F20C94E407F2E0E9E007E08E
:10104C000083002708B904BB0F9301E00E942D0B0D
:10105C000E943D0B0F910F9307E40E94340B0E94EA
:10106C003D0B0F910F9301E60E94340B0E943D0B38
:10107C000F910F930DE60E94340B0E943D0B0F91C4
:10108C000F9305E60E94340B0E943D0B0F910F93BA
:10109C0000E20E94340B0E943D0B0F910F930FE462
:1010AC000E94340B0E943D0B0F910F9306E70E9498
:1010BC00340B0E943D0B0F910F9305E60E94340BED
:1010CC000E943D0B0F910F9302E70E94340B0E947C
:1010DC003D0B0F910F9300EC0E942D0B0E943D0BCA
:1010EC000F910F9309E50E94340B0E943D0B0F9159
:1010FC000F930FE60E94340B0E943D0B0F910F9340
:10110C0005E70E94340B0E943D0B0F910F9300E2F8
:10111C000E94340B0E943D0B0F910F930CE40E9424
:10112C00340B0E943D0B0F910F930FE60E94340B72
:10113C000E943D0B0F910F9303E70E94340B0E940A
:10114C003D0B0F910F9305E60E94340B0E943D0B53
:10115C000F910F9301E20E94340B0E943D0B0F91F3
:10116C00F2E0E9E06081F2E0EBE03DE01FEE01E04F
:10117C0010930B012FEF2A95F1F7209109012023F1
:10118C00E1F4412F4095402B5081541789F0408356
:10119C000E94FD087F3F61F0723011F40C94F20252
:1011AC00753011F40C949006763011F40C943807C9
:1011BC003DE0643011F430833DE0000F003181F0EC
:1011CC003A95D9F630833DE08EB18F7D8EB9882764
:1011DC00D2E0CCE08883D2E0C3E188830C94C308CE
:1011EC00110F13951F3F11F20C94BD08FFCF0F93F5
:1011FC001F932F933F934F935F936F93FF93EF93B3
:10120C00603081F0643011F40C946D09653011F488
:10121C000C949B09673021F0663011F00C94B809DE
:10122C000C9448007FEFF2E0E8E0413841F042389E
:10123C00C1F0443841F14838C1F10C94B80904E1CB
:10124C0000830F9300E10E942D0B0E943D0B0F9128
:10125C000F9305E40E94340B0E943D0B0F910C94EC
:10126C00B8090FE000830F9300E10E942D0B0E9440
:10127C003D0B0F910F930DE40E94340B0E943D0B1C
:10128C000F910C94B8090AE000830F9300E10E94BF
:10129C002D0B0E943D0B0F910F9308E40E94340B11
:1012AC000E943D0B0F910C94B80906E000830F933C
:1012BC0000E10E942D0B0E943D0B0F910F9308E54E
:1012CC000E94340B0E943D0B0F910C94B8097FEFD8
:1012DC00F2E0E7E01081F2E0E0E0E10F1127F11F0E
:1012EC000081401759F02EB12F7D2EB92227F2E044
:1012FC00ECE02083F2E0E3E1208334C02EB12062E5
:10130C002EB9F2E0ECE021E02083F2E0EDE0208168
:10131C00203041F1F2E0E7E0208123952083233057
:10132C0011F072E01FC075E01DC07FEFF2E0E7E046
:10133C001081F2E0E0E0E10F1127F11F008140176E
:10134C0011F075E00FC0F2E0E7E010811395108307
:10135C000F930AE20E94340B0E943D0B0F91133045
:10136C0009F476E0EF91FF916F915F914F913F916E
:10137C002F911F910F9108950F931F930F921F920E
:10138C000F9300270A300F9131F000240A3018F027
:10139C000A500394FBCF102D105D103341F00F93C6
:1013AC00012F0E94340B0E943D0B0F9107C00F932D
:1013BC0000E20E94340B0E943D0B0F910F9300270B
:1013CC0001300F9131F00024013018F001500394DA
:1013DC00FBCF102D105D0F93012F0E94340B0E9438
:1013EC003D0B0F911F900F901F910F9108952F930C
:1013FC003F933327321741F000240217130720F0D4
:10140C00021B130B0394F9CF3F912F9108950F9367
:10141C00002D003091F0013091F0023091F003304A
:10142C0091F0043091F0053091F0063091F00730D6
:10143C0091F0083091F0093091F008E212C001E10E
:10144C0010C001E20EC001E40CC002E10AC002E2CD
:10145C0008C002E406C004E104C004E202C004E4D3
:10146C0000C0002E0F9108950C9448000F930FB7F5
:10147C000F931F93FF93EF93F2E0EAE000810130AA
:10148C0011F40C94920A01E00083F2E0EEE00027E4
:10149C000083F2E0E9E00081003039F0063019F009
:1014AC00073009F039C00C944800EF91FF911F915F
:1014BC000F910FBF0F9128EE33E000912600109191
:1014CC00B2001695079516950795169507951695DE
:1014DC0007951695079516950795021713070CF0A7
:1014EC000851F2E0E0E024E60E94FD090E940D0A9A
:1014FC0001922AE00E94FD090E940D0A0192002E21
:10150C000E940D0A01920DB71EB70E5F1F4F0DBF43
:10151C001EBF78940C94FA01EF91FF911F910F91DB
:10152C000FBF0F9118950F930FB70F931F93FF9346
:10153C00EF93009178001091790016950795169508
:10154C0007951695079516950795F2E0E4E000834C
:10155C00EF91FF911F910F910FBF0F9118950F9362
:10156C000FB70F931F932F93FF93EF93F2E0E9E0E4
:10157C000081F2E0E0E1108113951083143F11F12A
:10158C00F2E0E5E01081103039F0F2E0E1E1108199
:10159C001A9510831030F1F0F2E0ECE0108110306D
:1015AC0039F0F2E0E3E1108113951083143FB9F0A8
:1015BC00063001F5F2E0E2E11081139510831D3342
:1015CC0099F018C011271083F2E0EFE010811A9502
:1015DC001083D6CFF2E0E6E011E01083DDCFF2E02D
:1015EC00EDE011E01083E4CF112710831EB128E049
:1015FC0021272EB9EF91FF912F911F910F910FBFC2
:10160C000F9118950F930FB70F93FF93EF93F2E091
:10161C00EEE0008103950083003F29F4002700834E
:10162C00F2E0EAE00083EF91FF910F910FBF0F9171
:10163C0018950F930FB70F93FF93EF93F2E0E9E038
:10164C000081EF91FF910F910FBF0F91189501BB86
:10165C001FD0169A1DD016981BD0089501BB179A4F
:10166C0017D0169A15D0169813D0179808950F9373
:10167C00002700BB01BB159A0BD0169A09D00FB1ED
:10168C00169807FDF9CF15980FEF00BB0F91089531
:10169C008F939F939FE08CE90197F1F79F918F9126
:0E16AC000895F6DFF5DFF4DFF3DFF2DF0895D7
:00000001FF
