:020000020000FC
:0C0000000C9448000C9491010C949201A7
:04005C000C9493016C
:10008C000C949401F8940FEF0DBF01E20EBF002702
:10009C00F2E0E0E00083F2E0E3E00083F2E0E5E090
:1000AC000083F2E0E7E00083F2E0E8E00083F2E0B6
:1000BC00E9E0008304E1F2E0E6E000830AE000936B
:1000CC00690003E000931D0000270093240004E066
:1000DC000093250001E000936E0001E20093900074
:1000EC0004E1009391000FEF00939A000FEF00BB17
:1000FC0001B907B903E003BB08E30DB900EF0093A6
:10010C000A01002701BB02B908B904BB0EB90FEEF6
:10011C0000930B010F9308E302D111D10F9129D158
:10012C000F9308E3FCD00BD10F911AD10F9308E376
:10013C00F6D005D10F910F9308E3F1D000D10F91B8
:10014C000F9308E0ECD0FBD00F910F9301E0E7D0B8
:10015C00F6D00F910F9306E0E2D0F1D00F910F93F0
:10016C000EE0DDD0ECD00F917894F2E0E7E000E007
:10017C0000830F9302E3DAD0E2D00F910F9301E3E7
:10018C00D5D0DDD00F910F9302E3D0D0D8D00F9102
:10019C000F9301E3CBD0D3D00F910F9300E2C6D0D5
:1001AC00CED00F910F9301E3C1D0C9D00F910F9313
:1001BC0006E3BCD0C4D00F910F9303E7B7D0BFD0E8
:1001CC000F910F9301E3B2D0BAD00F910F9300ECC3
:1001DC00A6D0B5D00F910F9303E5A8D0B0D00F9156
:1001EC000F9301E6A3D0ABD00F910F9306E69ED0F0
:1001FC00A6D00F910F9305E699D0A1D00F910F9334
:10020C0000E294D09CD00F910F9303E48FD097D041
:10021C000F910F9302E78AD092D00F910F9301E6C2
:10022C0085D08DD00F910F9303E680D088D00F919D
:10023C000F930BE67BD083D00F910F9305E676D00E
:10024C007ED00F910F9302E771D079D00F910F935D
:10025C0000E26CD074D00F910F9300E267D06FD096
:10026C000F910F9300E262D06AD00F910F9305E4C7
:10027C005DD065D00F910FE700930B01F2E0E6E043
:10028C0001E010910901102311F00C948901013047
:10029C0031F0023089F00430E1F0083039F114E12A
:1002AC0010830F9300E13BD04AD00F910F9305E4DC
:1002BC003DD045D00F9127C01FE010830F9300E174
:1002CC002ED03DD00F910F930DE430D038D00F913C
:1002DC001AC01AE010830F9300E121D030D00F9197
:1002EC000F9308E423D02BD00F910DC016E0108390
:1002FC000F9300E114D023D00F910F9308E516D083
:10030C001ED00F9100C0000F003111F00C9447016A
:10031C000C944601FFCF189518951895189501BBAC
:10032C001FD0169A1DD016981BD0089501BB179A92
:10033C0017D0169A15D0169813D0179808950F93B6
:10034C00002700BB01BB159A0BD0169A09D00FB130
:10035C00169807FDF9CF15980FEF00BB0F91089574
:10036C008F939F939FE08CE90197F1F79F918F9169
:0E037C000895F6DFF5DFF4DFF3DFF2DF08951A
:00000001FF
