:020000020000FC
:0C0000000C9448000C947C050C947E05C8
:04003C000C94FE051D
:04005C000C94CD052E
:040074000C94B10532
:10008C000C941506F8940FEF0DBF01E20EBF00277C
:10009C00F2E0E0E00083F2E0E3E00083F2E0E5E090
:1000AC000083F2E0E6E00083F2E0E7E00083F2E0B8
:1000BC00E9E00083F2E0EBE00083F2E0EDE00083A6
:1000CC00F2E0EEE00083F2E0EFE0008304E1F2E026
:1000DC00E8E0008301E0F2E0ECE00083F2E0EAE02B
:1000EC0000830FEFF2E0E0E100830AE00093690087
:1000FC0003E00DBB7894002704BD04E005BD01E0CE
:10010C0000936E0000270093B00002E00093B10052
:10011C0001E00093700001E20093900004E1009371
:10012C0091000FEF00939A000FEF00BB01B907B9D4
:10013C0003E003BB08E30DB900EF00930A010027AD
:10014C000AB901BB02B908B904BB0EB90FEE009392
:10015C000B010F9308E371D580D50F9198D50F93B0
:10016C0008E36BD57AD50F9189D50F9308E365D544
:10017C0074D50F910F9308E360D56FD50F910F9342
:10018C0008E05BD56AD50F910F9301E056D565D584
:10019C000F910F9306E051D560D50F910F930EE0A0
:1001AC004CD55BD50F917894F2E0E9E000E0008348
:1001BC000F9302E349D551D50F910F9301E344D529
:1001CC004CD50F910F9302E33FD547D50F910F9369
:1001DC0001E33AD542D50F910F9300E235D53DD5C9
:1001EC000F910F9301E330D538D50F910F9306E3A0
:1001FC002BD533D50F910F9303E726D52ED50F9121
:10020C000F9301E321D529D50F910F9300EC15D550
:10021C0024D50F910F9303E517D51FD50F910F938D
:10022C0001E612D51AD50F910F9306E60DD515D50B
:10023C000F910F9305E608D510D50F910F9300E29F
:10024C0003D50BD50F910F9303E4FED406D50F9174
:10025C000F9302E7F9D401D50F910F9301E6F4D473
:10026C00FCD40F910F9303E6EFD4F7D40F910F93B7
:10027C000BE6EAD4F2D40F910F9305E6E5D4EDD456
:10028C000F910F9302E7E0D4E8D40F910F9300E2A3
:10029C00DBD4E3D40F910F9300E2D6D4DED40F91CC
:1002AC000F9300E2D1D4D9D40F910F9305E4CCD4A1
:1002BC00D4D40F910FE700930B01F2E0E8E0F2E0E9
:1002CC00E9E06081F2E0EBE03DE01FEE01E010932D
:1002DC000B012FEF2A95F1F720910901202391F4BE
:1002EC00412F4095402B5081541759F040830E9468
:1002FC00E7047F3F31F072300C944D0275300C9452
:10030C0041043DE0000F003131F03A9529F730837C
:10031C003DE00C947201110F13951F3FB1F20C9438
:10032C006C01F2E0E9E001E000830F9301E085D479
:10033C0094D40F910F9302E387D48FD40F910F9322
:10034C0001E382D48AD40F910F9302E37DD485D438
:10035C000F910F9301E378D480D40F910F9300E2A7
:10036C0073D47BD40F910F9301E36ED476D40F9199
:10037C000F9306E369D471D40F910F9303E764D400
:10038C006CD40F910F9301E35FD467D40F910F934B
:10039C0000EC53D462D40F910F9303E555D45DD484
:1003AC000F910F9304E750D458D40F910F9301E69B
:1003BC004BD453D40F910F9302E746D44ED40F91E4
:1003CC000F9304E741D449D40F910F9309E63CD421
:1003DC0044D40F910F930EE637D43FD40F910F9363
:1003EC0007E632D43AD40F910F9300E22DD435D4D2
:1003FC000F910F9309E628D430D40F910F930EE68A
:10040C0023D42BD40F910F9300E21ED426D40F913A
:10041C000F9303E319D421D40F910F930EE214D44C
:10042C001CD40F910F930EE20FD417D40F910F938E
:10043C000EE20AD412D40F910F9300E1FED30DD427
:10044C000F910F9300E1F9D308D40F910F9300E1B2
:10045C00F4D303D40F910F9300E1EFD3FED30F919C
:10046C00F2E0EFE000270083F2E0EEE003E000832F
:10047C000081005D0F93002FE7D3EFD30F910F9303
:10048C0000E1DBD3EAD30F91003309F0F1CFF2E0B6
:10049C00E9E002E000830F9301E0CFD3DED30F91AC
:1004AC000F9302E5D1D3D9D30F910F9305E6CCD39B
:1004BC00D4D30F910F9303E7C7D3CFD30F910F93DF
:1004CC0005E6C2D3CAD30F910F9304E7BDD3C5D3AE
:1004DC000F910F9300E2B8D3C0D30F910F9300E5A7
:1004EC00B3D3BBD30F910F930FE4AED3B6D30F910D
:1004FC000F9304E5A9D3B1D30F910F9300E2A4D3CA
:10050C00ACD30F910F9304E79FD3A7D30F910F9305
:10051C000FE69AD3A2D30F910F9300E295D39DD3FC
:10052C000F910F9300E390D398D30F910F9300EC9E
:10053C0084D393D30F910F9302E586D38ED30F916F
:10054C000F9305E681D389D30F910F930DE67CD3DE
:10055C0084D30F910F9301E677D37FD30F910F9331
:10056C0009E672D37AD30F910F930EE66DD375D340
:10057C000F910F9309E668D370D30F910F930EE68A
:10058C0063D36BD30F910F9307E65ED366D30F91B2
:10059C000F930AE359D361D30F910F9300E254D315
:1005AC005CD30F910F9300E24FD357D30F910F935E
:1005BC0000E24AD352D30F91F2E0ECE0008100301C
:1005CC00F9F000270083F2E0EFE000270083F2E06F
:1005DC00E8E00081F2E0EEE000830F9300E12DD320
:1005EC003CD30F910F9300E128D337D30F910E9486
:1005FC004705F2E0E3E00091B20006950695008312
:10060C00F2E0EEE0D2E0C4E0B2E0A0E10AE70C9345
:10061C000027B2E0A5E00C93B2E0A6E00C93B2E0A8
:10062C00A6E00C91013069F10F9300EC00937C0073
:10063C0008E000937B000DEC00937A000F91188179
:10064C00103029F4B2E0A5E001E00C9308C0B2E050
:10065C00A0E10AE70C93B2E0A5E000270C9300811F
:10066C00003011F40C9449040F9300E1E6D2F5D25A
:10067C000F910F9300E1E1D2F0D20F910E94470548
:10068C00CECFF2E0E9E003E000830F9301E0D5D296
:10069C00E4D20F910F9306E4D7D2DFD20F910F93D0
:1006AC0009E6D2D2DAD20F910F930EE6CDD2D5D283
:1006BC000F910F9304E6C8D2D0D20F910F9300E2A2
:1006CC00C3D2CBD20F910F9300E5BED2C6D20F91FD
:1006DC000F930FE4B9D2C1D20F910F9304E5B4D2AA
:1006EC00BCD20F910F9300E2AFD2B7D20F910F9300
:1006FC0000E5AAD2B2D20F910F930FE6A5D2ADD2DC
:10070C000F910F9303E7A0D2A8D20F910F9300EC97
:10071C0094D2A3D20F910F9302E596D29ED20F9151
:10072C000F9305E691D299D20F910F930DE68CD2CF
:10073C0094D20F910F9301E687D28FD20F910F9322
:10074C0009E682D28AD20F910F930EE67DD285D222
:10075C000F910F9309E678D280D20F910F930EE68A
:10076C0073D27BD20F910F9307E66ED276D20F9194
:10077C000F930AE369D271D20F910F9300E264D206
:10078C006CD20F910F9300E25FD267D20F910F934F
:10079C0000E25AD262D20F91F2E0EEE0D2E0C4E075
:1007AC00B2E0A3E02C91B2E0A0E104EF0C9300279F
:1007BC00B2E0A5E00C93B2E0A6E00C93B2E0A6E0A8
:1007CC000C91013011F40C9437040F9300EC00934E
:1007DC007C0008E000937B000DEC00937A000F91F5
:1007EC001881121749F40FEF08B903E004BBB2E00B
:1007FC00A5E001E00C9323C02CF0002708B904BB42
:10080C000C944D02B2E0A0E104EF0C93B2E0A5E031
:10081C0000270C93312F3E7F422F4E7F341729F047
:10082C00312F3D5F231734F00AC00FEF08B901E0F8
:10083C0004BB05C00FEF08B9002704BB00C0008142
:10084C00003011F40C9449040F9300E1F6D105D259
:10085C000F910F9300E1F1D100D20F910E94470547
:10086C00ADCFF2E0E9E004E000830F9301E0E5D1C5
:10087C00F4D10F91F6CFF2E0E9E005E00083F2E06D
:10088C00E9E006E00083F2E0E9E007E000830027FE
:10089C0008B904BB0F9301E0D0D1DFD10F910F93B6
:1008AC0007E4D2D1DAD10F910F9301E6CDD1D5D196
:1008BC000F910F930DE6C8D1D0D10F910F9305E690
:1008CC00C3D1CBD10F910F9300E2BED1C6D10F9102
:1008DC000F930FE4B9D1C1D10F910F9306E7B4D1A7
:1008EC00BCD10F910F9305E6AFD1B7D10F910F93F8
:1008FC0002E7AAD1B2D10F910F9300EC9ED1ADD1EA
:10090C000F910F9309E5A0D1A8D10F910F930FE68A
:10091C009BD1A3D10F910F9305E796D19ED10F9147
:10092C000F9300E291D199D10F910F930CE48CD1DC
:10093C0094D10F910F930FE687D18FD10F910F9315
:10094C0003E782D18AD10F910F9305E67DD185D132
:10095C000F910F9301E278D180D10F91F2E0E9E091
:10096C006081F2E0EBE03DE01FEE01E010930B0143
:10097C002FEF2A95F1F720910901202391F4412FB3
:10098C004095402B5081541759F040830E94E70446
:10099C007F3F31F072300C944D0275300C94410451
:1009AC003DE0000F003131F03A9529F730833DE0FE
:1009BC000C94C104110F13951F3FB1F20C94BB049E
:1009CC00FFCF0F931F932F933F934F935F936F938F
:1009DC00FF93EF93603031F0673011F0663001F027
:1009EC000C9448007FEFF2E0E8E0413841F04238E7
:1009FC00A1F0443801F1483861F10C943D0504E153
:100A0C0000830F9300E119D128D10F910F9305E4C6
:100A1C001BD123D10F910C943D050FE000830F9354
:100A2C0000E10BD11AD10F910F930DE40DD115D11B
:100A3C000F910C943D050AE000830F9300E1FDD06B
:100A4C000CD10F910F9308E4FFD007D10F910C94A8
:100A5C003D0506E000830F9300E1EFD0FED00F912F
:100A6C000F9308E5F1D0F9D00F910C943D05EF915F
:100A7C00FF916F915F914F913F912F911F910F912A
:100A8C0008950F931F930F921F920F9300270A3014
:100A9C000F9131F000240A3018F00A500394FBCF68
:100AAC00102D105D103331F00F93012FCDD0D5D018
:100ABC000F9105C00F9300E2C7D0CFD00F910F93C9
:100ACC00002701300F9131F00024013018F0015053
:100ADC000394FBCF102D105D0F93012FB5D0BDD01B
:100AEC000F911F900F901F910F9108950C94480037
:100AFC000F930FB70F931F93FF93EF93F2E0EAE07E
:100B0C000081013009F101E00083F2E0EDE0002703
:100B1C000083F2E0E9E00081003039F0063019F092
:100B2C00073009F011C00C944800EF91FF911F9110
:100B3C000F910FBF0F910DB71EB70E5F1F4F0DBF5B
:100B4C001EBF78940C949701EF91FF911F910F9118
:100B5C000FBF0F9118950F930FB70F931F93FF9320
:100B6C00EF930091780010917900169507951695E2
:100B7C0007951695079516950795F2E0E4E0008326
:100B8C00EF91FF911F910F910FBF0F9118950F933C
:100B9C000FB70F931F93FF93EF93F2E0E9E00081FF
:100BAC00F2E0EFE0108113951083143F69F0F2E04E
:100BBC00E5E01081103039F0F2E0E0E110811A9597
:100BCC001083103049F00DC011271083F2E0EEE0D5
:100BDC0010811A951083EBCFF2E0E6E011E0108360
:100BEC00F2CFEF91FF911F910F910FBF0F911895BD
:100BFC000F930FB70F93FF93EF93F2E0EDE00081AB
:100C0C0003950083083C29F400270083F2E0EAE016
:100C1C000083EF91FF910F910FBF0F9118950F93D8
:100C2C000FB70F93FF93EF93F2E0E9E00081EF91A0
:100C3C00FF910F910FBF0F91189501BB1FD0169A02
:100C4C001DD016981BD0089501BB179A17D0169A71
:100C5C0015D0169813D0179808950F93002700BB42
:100C6C0001BB159A0BD0169A09D00FB1169807FD37
:100C7C00F9CF15980FEF00BB0F9108958F939F93A9
:100C8C009FE08CE90197F1F79F918F910895F6DF22
:0A0C9C00F5DFF4DFF3DFF2DF089567
:00000001FF
