:020000020000FC
:0C0000000C9448000C9459030C945B0312
:04003C000C94C50358
:04005C000C94AA0353
:040074000C948E0357
:10008C000C94DC03F8940FEF0DBF01E20EBF0027B8
:10009C00F2E0E0E00083F2E0E3E00083F2E0E5E090
:1000AC000083F2E0E7E00083F2E0E8E00083F2E0B6
:1000BC00E9E00083F2E0EBE00083F2E0ECE00083A7
:1000CC00F2E0EDE0008304E1F2E0E6E0008301E021
:1000DC00F2E0EAE000830AE00093690003E00DBB64
:1000EC007894002704BD04E005BD01E000936E0088
:1000FC0000270093B00002E00093B10001E00093F0
:10010C00700001E20093900004E1009391000FEF66
:10011C0000939A000FEF00BB01B907B903E003BBD2
:10012C0008E30DB900EF00930A0100270AB901BBDF
:10013C0002B908B904BB0EB90FEE00930B010F9373
:10014C0008E342D351D30F9169D30F9308E33CD307
:10015C004BD30F915AD30F9308E336D345D30F915A
:10016C000F9308E331D340D30F910F9308E02CD3B6
:10017C003BD30F910F9301E027D336D30F910F93FD
:10018C0006E022D331D30F910F930EE01DD32CD365
:10019C000F917894F2E0E7E000E000830F9302E324
:1001AC001AD322D30F910F9301E315D31DD30F91C3
:1001BC000F9302E310D318D30F910F9301E30BD3DA
:1001CC0013D30F910F9300E206D30ED30F910F931D
:1001DC0001E301D309D30F910F9306E3FCD204D3AF
:1001EC000F910F9303E7F7D2FFD20F910F9301E317
:1001FC00F2D2FAD20F910F9300ECE6D2F5D20F9116
:10020C000F9303E5E8D2F0D20F910F9301E6E3D2FE
:10021C00EBD20F910F9306E6DED2E6D20F910F933D
:10022C0005E6D9D2E1D20F910F9300E2D4D2DCD201
:10023C000F910F9303E4CFD2D7D20F910F9302E714
:10024C00CAD2D2D20F910F9301E6C5D2CDD20F9163
:10025C000F9303E6C0D2C8D20F910F930BE6BBD21B
:10026C00C3D20F910F9305E6B6D2BED20F910F9366
:10027C0002E7B1D2B9D20F910F9300E2ACD2B4D253
:10028C000F910F9300E2A7D2AFD20F910F9300E220
:10029C00A2D2AAD20F910F9305E49DD2A5D20F91B1
:1002AC000FE700930B01F2E0E6E0F2E0E7E060819B
:1002BC00F2E0E9E03DE01FEE01E010930B012FEFBF
:1002CC002A95F1F720910901202391F4412F4095B3
:1002DC00402B5081541759F040830E94FF027F3FFE
:1002EC0031F072300C94430275300C94F2023DE004
:1002FC00000F003131F03A9529F730833DE00C9432
:10030C006801110F13951F3FB1F20C946201F2E0DA
:10031C00E7E001E000830F9301E056D265D20F9124
:10032C000F9302E358D260D20F910F9301E353D293
:10033C005BD20F910F9302E34ED256D20F910F93D3
:10034C0001E349D251D20F910F9300E244D24CD227
:10035C000F910F9301E33FD247D20F910F9306E316
:10036C003AD242D20F910F9303E735D23DD20F917F
:10037C000F9301E330D238D20F910F9300EC24D2BB
:10038C0033D20F910F9303E526D22ED20F910F93F8
:10039C0004E721D229D20F910F9301E61CD224D26B
:1003AC000F910F9302E717D21FD20F910F9304E70F
:1003BC0012D21AD20F910F9309E60DD215D20F91CA
:1003CC000F930EE608D210D20F910F9307E603D2CB
:1003DC000BD20F910F9300E2FED106D20F910F9327
:1003EC0009E6F9D101D20F910F930EE6F4D1FCD1AD
:1003FC000F910F9300E2EFD1F7D10F910F9303E31D
:10040C00EAD1F2D10F910F930EE2E5D1EDD10F911C
:10041C000F930EE2E0D1E8D10F910F930EE2DBD1F6
:10042C00E3D10F910F9300E1CFD1DED10F910F9358
:10043C0000E1CAD1D9D10F910F9300E1C5D1D4D12C
:10044C000F910F9300E1C0D1CFD10F91F2E0EDE00D
:10045C0000270083F2E0ECE003E000830081005D04
:10046C000F93002FB8D1C0D10F910F9300E1ACD1F5
:10047C00BBD10F91003309F0F1CFF2E0E7E002E0DD
:10048C0000830F9301E0A0D1AFD10F910F9302E540
:10049C00A2D1AAD10F910F9305E69DD1A5D10F91B1
:1004AC000F9303E798D1A0D10F910F9305E693D149
:1004BC009BD10F910F9304E78ED196D10F910F938F
:1004CC0000E289D191D10F910F9300E584D18CD1A9
:1004DC000F910F930FE47FD187D10F910F9304E508
:1004EC007AD182D10F910F9300E275D17DD10F910A
:1004FC000F9304E770D178D10F910F930FE66BD166
:10050C0073D10F910F9300E266D16ED10F910F93BF
:10051C0000E361D169D10F910F9300EC55D164D1F7
:10052C000F910F9302E557D15FD10F910F9305E611
:10053C0052D15AD10F910F930DE64DD155D10F9148
:10054C000F9301E648D150D10F910F9309E643D197
:10055C004BD10F910F930EE63ED146D10F910F93D5
:10056C0009E639D141D10F910F930EE634D13CD12C
:10057C000F910F9307E62FD137D10F910F930AE309
:10058C002AD132D10F910F9300E225D12DD10F91A9
:10059C00F2E0EAE00081003029F000270083F2E06D
:1005AC00E6E00081F2E0ECE0D2E0C4E00F9300EC76
:1005BC0000937C0008E000937B000DEC00937A0024
:1005CC000F91188118B9F2CFF2E0E7E003E0008355
:1005DC00F2E0E7E004E00083F2E0E7E005E000830E
:1005EC00F2E0E7E006E00083F2E0E7E007E00083FA
:1005FC00FFCF0F931F932F933F934F935F936F9363
:10060C00FF93EF93603001F07FEFF2E0E6E04138CA
:10061C0041F04238A1F0443801F1483861F10C94B2
:10062C004F0304E100830F9300E1CED0DDD00F9196
:10063C000F9305E4D0D0D8D00F910C944F030FE05A
:10064C0000830F9300E1C0D0CFD00F910F930DE436
:10065C00C2D0CAD00F910C944F030AE000830F93C1
:10066C0000E1B2D0C1D00F910F9308E4B4D0BCD04C
:10067C000F910C944F0306E000830F9300E1A4D07C
:10068C00B3D00F910F9308E5A6D0AED00F910C9478
:10069C004F03EF91FF916F915F914F913F912F918C
:1006AC001F910F9108950C9448000F930FB70F935F
:1006BC001F93FF93EF93F2E0E8E00081013009F122
:1006CC0001E00083F2E0EBE000270083F2E0E7E0DA
:1006DC000081003039F0063019F0073009F011C0F4
:1006EC000C944800EF91FF911F910F910FBF0F9148
:1006FC000DB71EB70E5F1F4F0DBF1EBF78940C9425
:10070C008D01EF91FF911F910F910FBF0F911895D4
:10071C000F930FB70F931F93FF93EF9300917800F4
:10072C0010917900169507951695079516950795CE
:10073C0016950795F2E0E4E00083EF91FF911F918D
:10074C000F910FBF0F9118950F930FB70F93FF9346
:10075C00EF93F2E0EDE0008103950083043F09F094
:10076C0008C000270083F2E0ECE000810A950083CA
:10077C00F7CFEF91FF910F910FBF0F9118950F933A
:10078C000FB70F93FF93EF93F2E0EBE0008103952B
:10079C000083083C29F400270083F2E0E8E00083A2
:1007AC00EF91FF910F910FBF0F9118950F930FB70A
:1007BC000F93FF93EF93F2E0E7E00081EF91FF914D
:1007CC000F910FBF0F91189501BB1FD0169A1DD01A
:1007DC0016981BD0089501BB179A17D0169A15D0EE
:1007EC00169813D0179808950F93002700BB01BBE0
:1007FC00159A0BD0169A09D00FB1169807FDF9CFA0
:10080C0015980FEF00BB0F9108958F939F939FE066
:10081C008CE90197F1F79F918F910895F6DFF5DF41
:08082C00F4DFF3DFF2DF0895B1
:00000001FF
