:020000020000FC
:0C0000000C9448000C945E060C94600602
:04003C000C941B07FE
:04005C000C94D90621
:040074000C94BD0625
:10008C000C943207F8940FEF0DBF01E20EBF00275E
:10009C00F2E0E0E00083F2E0E3E00083F2E0E5E090
:1000AC000083F2E0E6E00083F2E0E7E00083F2E0B8
:1000BC00E9E00083F2E0EBE00083F2E0EDE00083A6
:1000CC00F2E0EEE00083F2E0EFE00083F2E0E1E149
:1000DC00008304E1F2E0E8E0008301E0F2E0ECE010
:1000EC000083F2E0EAE000830FEFF2E0E0E100834E
:1000FC000AE00093690003E00DBB7894002704BD6F
:10010C0004E005BD01E000936E0000270093B000F1
:10011C0002E00093B10001E00093700001E2009353
:10012C00900004E1009391000FEF00939A000FEF01
:10013C0000BB01B907B903E003BB08E30DB900EF3D
:10014C0000930A0100270AB901BB02B908B904BB24
:10015C000EB90FEE00930B010F9308E38BD69AD6D2
:10016C000F91B2D60F9308E385D694D60F91A3D6F0
:10017C000F9308E37FD68ED60F910F9308E37AD6B0
:10018C0089D60F910F9308E075D684D60F910F93F3
:10019C0001E070D67FD60F910F9306E06BD67AD61E
:1001AC000F910F930EE066D675D60F917894F2E00E
:1001BC00E9E000E000830F9302E363D66BD60F9166
:1001CC000F9301E35ED666D60F910F9302E359D6D7
:1001DC0061D60F910F9301E354D65CD60F910F9318
:1001EC0000E24FD657D60F910F9301E34AD652D661
:1001FC000F910F9306E345D64DD60F910F9303E75E
:10020C0040D648D60F910F9301E33BD643D60F91BE
:10021C000F9300EC2FD63ED60F910F9303E531D6FA
:10022C0039D60F910F9301E62CD634D60F910F933C
:10023C0006E627D62FD60F910F9305E622D62AD69F
:10024C000F910F9300E21DD625D60F910F9303E467
:10025C0018D620D60F910F9302E713D61BD60F9109
:10026C000F9301E60ED616D60F910F9303E609D61F
:10027C0011D60F910F930BE604D60CD60F910F935A
:10028C0005E6FFD507D60F910F9302E7FAD502D6F4
:10029C000F910F9300E2F5D5FDD50F910F9300E26E
:1002AC00F0D5F8D50F910F9300E2EBD5F3D50F9164
:1002BC000F9305E4E6D5EED50F910FE700930B01F4
:1002CC00F2E0E8E0F2E0E9E06081F2E0EBE03DE052
:1002DC001FEE01E010930B012FEF2A95F1F72091FF
:1002EC000901202391F4412F4095402B5081541744
:1002FC0059F040830E948C057F3F31F072300C9492
:10030C00500275300C9441043DE0000F003131F087
:10031C003A9529F730833DE00C947501110F139534
:10032C001F3FB1F20C946F01F2E0E9E001E00083B1
:10033C000F9301E09FD5AED50F910F9302E3A1D59A
:10034C00A9D50F910F9301E39CD5A4D50F910F93D1
:10035C0002E397D59FD50F910F9301E392D59AD5D0
:10036C000F910F9300E28DD595D50F910F9301E36B
:10037C0088D590D50F910F9306E383D58BD50F912C
:10038C000F9303E77ED586D50F910F9301E379D5B3
:10039C0081D50F910F9300EC6DD57CD50F910F93F8
:1003AC0003E56FD577D50F910F9304E76AD572D516
:1003BC000F910F9301E665D56DD50F910F9302E761
:1003CC0060D568D50F910F9304E75BD563D50F917A
:1003DC000F9309E656D55ED50F910F930EE651D5C6
:1003EC0059D50F910F9307E64CD554D50F910F9318
:1003FC0000E247D54FD50F910F9309E642D54AD568
:10040C000F910F930EE63DD545D50F910F9300E25A
:10041C0038D540D50F910F9303E333D53BD50F91CE
:10042C000F930EE22ED536D50F910F930EE229D5F0
:10043C0031D50F910F930EE224D52CD50F910F933C
:10044C0000E118D527D50F910F9300E113D522D5D4
:10045C000F910F9300E10ED51DD50F910F9300E175
:10046C0009D518D50F91F2E0EFE000270083F2E0F8
:10047C00EEE003E000830081005D0F93002F01D5B7
:10048C0009D50F910F9300E1F5D404D50F910033EA
:10049C0009F0F1CFF2E0E9E002E000830F9301E014
:1004AC00E9D4F8D40F910F9302E5EBD4F3D40F9168
:1004BC000F9305E6E6D4EED40F910F9303E7E1D446
:1004CC00E9D40F910F9305E6DCD4E4D40F910F938C
:1004DC0004E7D7D4DFD40F910F9300E2D2D4DAD44F
:1004EC000F910F9300E5CDD4D5D40F910F930FE45A
:1004FC00C8D4D0D40F910F9304E5C3D4CBD40F91AF
:10050C000F9300E2BED4C6D40F910F9304E7B9D475
:10051C00C1D40F910F930FE6B4D4BCD40F910F93A9
:10052C0000E2AFD4B7D40F910F9300E3AAD4B2D4A6
:10053C000F910F9300EC9ED4ADD40F910F9302E565
:10054C00A0D4A8D40F910F9305E69BD4A3D40F91FC
:10055C000F930DE696D49ED40F910F9301E691D490
:10056C0099D40F910F9309E68CD494D40F910F93D7
:10057C000EE687D48FD40F910F9309E682D48AD4D8
:10058C000F910F930EE67DD485D40F910F9307E650
:10059C0078D480D40F910F930AE373D47BD40F914A
:1005AC000F9300E26ED476D40F910F9300E269D4CE
:1005BC0071D40F910F9300E264D46CD40F91F2E0DC
:1005CC00ECE000810030F9F000270083F2E0EFE06E
:1005DC0000270083F2E0E8E00081F2E0EEE0008327
:1005EC000F9300E147D456D40F910F9300E142D4FE
:1005FC0051D40F910E94EC05F2E0E3E00091B200BF
:10060C00069506950083F2E0EEE0D2E0C4E0B2E09D
:10061C00A0E10AE70C930027B2E0A5E00C93B2E04E
:10062C00A6E00C93B2E0A6E00C91013069F10F93B7
:10063C0000EC00937C0008E000937B000DEC009331
:10064C007A000F911881103029F4B2E0A5E001E096
:10065C000C9308C0B2E0A0E10AE70C93B2E0A5E06D
:10066C0000270C930081003011F40C94EE040F93CE
:10067C0000E100D40FD40F910F9300E1FBD30AD407
:10068C000F910E94EC05CECFF2E0E9E003E000838D
:10069C000F9301E0EFD3FED30F910F9306E4F1D348
:1006AC00F9D30F910F9309E6ECD3F4D30F910F9379
:1006BC000EE6E7D3EFD30F910F9304E6E2D3EAD320
:1006CC000F910F9300E2DDD3E5D30F910F9300E56B
:1006DC00D8D3E0D30F910F930FE4D3D3DBD30F9187
:1006EC000F9304E5CED3D6D30F910F9300E2C9D369
:1006FC00D1D30F910F9300E5C4D3CCD30F910F93AB
:10070C000FE6BFD3C7D30F910F9303E7BAD3C2D36E
:10071C000F910F9300ECAED3BDD30F910F9302E565
:10072C00B0D3B8D30F910F9305E6ABD3B3D30F91DE
:10073C000F930DE6A6D3AED30F910F9301E6A1D381
:10074C00A9D30F910F9309E69CD3A4D30F910F93C8
:10075C000EE697D39FD30F910F9309E692D39AD3BA
:10076C000F910F930EE68DD395D30F910F9307E650
:10077C0088D390D30F910F930AE383D38BD30F912C
:10078C000F9300E27ED386D30F910F9300E279D3BF
:10079C0081D30F910F9300E274D37CD30F91F2E0CD
:1007AC00EEE0D2E0C4E0B2E0A3E02C91B2E0A0E134
:1007BC0004EF0C930027B2E0A5E00C93B2E0A6E0A6
:1007CC000C93B2E0A6E00C91013011F40C943A04B5
:1007DC000F9300EC00937C0008E000937B000DEC81
:1007EC0000937A000F911881121749F40FEF08B992
:1007FC0003E004BBB2E0A5E001E00C9323C02CF0B5
:10080C00002708B904BB0C945002B2E0A0E104EF3D
:10081C000C93B2E0A5E000270C93312F3695422FB4
:10082C004695341729F0312F3D5F231734F00AC059
:10083C000FEF08B901E004BB05C00FEF08B90027A2
:10084C0004BB00C00081003011F40C94EE040F9333
:10085C0000E110D31FD30F910F9300E10BD31AD3E8
:10086C000F910E94EC05ADCFF2E0E9E004E00083CB
:10087C00002708B904BBF2E0E9E005E00083F2E0F0
:10088C00E9E006E000830F9301E0F4D203D30F916B
:10089C000F9307E4F6D2FED20F910F9301E6F1D23B
:1008AC00F9D20F910F930DE6ECD2F4D20F910F9376
:1008BC0005E6E7D2EFD20F910F9300E2E2D2EAD233
:1008CC000F910F9303E6DDD2E5D20F910F930FE654
:1008DC00D8D2E0D20F910F930DE6D3D2DBD20F9189
:1008EC000F9300E7CED2D6D20F910F930CE6C9D25C
:1008FC00D1D20F910F9305E6C4D2CCD20F910F93A6
:10090C0004E7BFD2C7D20F910F9305E6BAD2C2D279
:10091C000F910F9300ECAED2BDD20F910F9309E55E
:10092C00B0D2B8D20F910F930FE6ABD2B3D20F91D6
:10093C000F9305E7A6D2AED20F910F9300E2A1D28E
:10094C00A9D20F910F9307E59CD2A4D20F910F93CC
:10095C0009E697D29FD20F910F930EE692D29AD2BC
:10096C000F910F9301E28DD295D20F91F2E0E9E055
:10097C006081F2E0EBE03DE01FEE01E010930B0133
:10098C002FEF2A95F1F720910901202391F4412FA3
:10099C004095402B5081541759F040830E948C0590
:1009AC007F3F31F072300C94500275300C9441043E
:1009BC003DE0000F003131F03A9529F730833DE0EE
:1009CC000C94C904110F13951F3FB1F20C94C3047E
:1009DC00F2E0E9E007E00083002708B904BB0F93BD
:1009EC0001E048D257D20F910F9307E44AD252D26A
:1009FC000F910F9301E645D24DD20F910F930DE657
:100A0C0040D248D20F910F9305E63BD243D20F91BF
:100A1C000F9300E236D23ED20F910F930FE431D2F6
:100A2C0039D20F910F9306E72CD234D20F910F933A
:100A3C0005E627D22FD20F910F9302E722D22AD2AA
:100A4C000F910F9300EC16D225D20F910F9309E55D
:100A5C0018D220D20F910F930FE613D21BD20F9105
:100A6C000F9305E70ED216D20F910F9300E209D225
:100A7C0011D20F910F930CE404D20CD20F910F935F
:100A8C000FE6FFD107D20F910F9303E7FAD102D2F1
:100A9C000F910F9305E6F5D1FDD10F910F9301E264
:100AAC00F0D1F8D10F91F2E0E9E06081F2E0EBE0F7
:100ABC003DE01FEE01E010930B012FEF2A95F1F7AB
:100ACC0020910901202391F4412F4095402B508116
:100ADC00541759F040830E948C057F3F31F07230DF
:100AEC000C94500275300C9441043DE0000F003121
:100AFC0031F03A9529F730833DE00C946605110FDF
:100B0C0013951F3FB1F20C946005FFCF0F931F9309
:100B1C002F933F934F935F936F93FF93EF936030BB
:100B2C0031F0673011F0663001F00C9448007FEF23
:100B3C00F2E0E8E0413841F04238A1F0443801F1EC
:100B4C00483861F10C94E20504E100830F9300E155
:100B5C0091D1A0D10F910F9305E493D19BD10F911B
:100B6C000C94E2050FE000830F9300E183D192D146
:100B7C000F910F930DE485D18DD10F910C94E2055B
:100B8C000AE000830F9300E175D184D10F910F938C
:100B9C0008E477D17FD10F910C94E20506E0008335
:100BAC000F9300E167D176D10F910F9308E569D1CE
:100BBC0071D10F910C94E205EF91FF916F915F91C0
:100BCC004F913F912F911F910F9108950F931F9368
:100BDC000F921F920F9300270A300F9131F00024CF
:100BEC000A3018F00A500394FBCF102D105D10330F
:100BFC0031F00F93012F45D14DD10F9105C00F93BB
:100C0C0000E23FD147D10F910F93002701300F9194
:100C1C0031F00024013018F001500394FBCF102D5B
:100C2C00105D0F93012F2DD135D10F911F900F9087
:100C3C001F910F9108952F933F933327321741F053
:100C4C0000240217130720F0021B130B0394F9CF97
:100C5C003F912F9108950F93002D003091F00130AA
:100C6C0091F0023091F0033091F0043091F00530A6
:100C7C0091F0063091F0073091F0083091F0093086
:100C8C0091F008E212C001E110C001E20EC001E4D3
:100C9C000CC002E10AC002E208C002E406C004E192
:100CAC0004C004E202C004E400C0002E0F910895B9
:100CBC000C9448000F930FB70F931F93FF93EF9370
:100CCC00F2E0EAE00081013011F40C94B60601E088
:100CDC000083F2E0EDE000270083F2E0E9E0008120
:100CEC00003039F0063019F0073009F039C00C9497
:100CFC004800EF91FF911F910F910FBF0F9128EEBC
:100D0C0033E0009126001091B200169507951695C8
:100D1C0007951695079516950795169507951695AB
:100D2C000795021713070CF00851F2E0E0E024E6F7
:100D3C000E9421060E94310601922AE00E9421069F
:100D4C000E9431060192002E0E94310601930DB7CC
:100D5C001EB70E5F1F4F0DBF1EBF78940C949A01E7
:100D6C00EF91FF911F910F910FBF0F9118950F935A
:100D7C000FB70F931F93FF93EF930091780010918F
:100D8C00790016950795169507951695079516955E
:100D9C000795F2E0E4E00083EF91FF911F910F9132
:100DAC000FBF0F9118950F930FB70F931F932F939E
:100DBC00FF93EF93F2E0E9E00081F2E0EFE01081C5
:100DCC0013951083143FB1F0F2E0E5E01081103080
:100DDC0039F0F2E0E0E110811A951083103091F0B7
:100DEC000630D9F4F2E0E1E11081139510831D3344
:100DFC0071F013C011271083F2E0EEE010811A9508
:100E0C001083E2CFF2E0E6E011E01083E9CF112786
:100E1C0010831EB128E021272EB9EF91FF912F915D
:100E2C001F910F910FBF0F9118950F930FB70F9341
:100E3C00FF93EF93F2E0EDE0008103950083003F18
:100E4C0029F400270083F2E0EAE00083EF91FF91A0
:100E5C000F910FBF0F9118950F930FB70F93FF932F
:100E6C00EF93F2E0E9E00081EF91FF910F910FBF5A
:100E7C000F91189501BB1FD0169A1DD016981BD038
:100E8C00089501BB179A17D0169A15D0169813D03F
:100E9C00179808950F93002700BB01BB159A0BD030
:100EAC00169A09D00FB1169807FDF9CF15980FEFC8
:100EBC0000BB0F9108958F939F939FE08CE901974E
:100ECC00F1F79F918F910895F6DFF5DFF4DFF3DFF3
:040EDC00F2DF0895A4
:00000001FF
