:020000020000FC
:0C0000000C9448000C9456050C94580514
:04003C000C94D80543
:04005C000C94A70554
:040074000C948B0558
:10008C000C94EF05F8940FEF0DBF01E20EBF0027A3
:10009C00F2E0E0E00083F2E0E3E00083F2E0E5E090
:1000AC000083F2E0E6E00083F2E0E7E00083F2E0B8
:1000BC00E9E00083F2E0EBE00083F2E0EDE00083A6
:1000CC00F2E0EEE00083F2E0EFE0008304E1F2E026
:1000DC00E8E0008301E0F2E0ECE00083F2E0EAE02B
:1000EC0000830FEFF2E0E0E100830AE00093690087
:1000FC0003E00DBB7894002704BD04E005BD01E0CE
:10010C0000936E0000270093B00002E00093B10052
:10011C0001E00093700001E20093900004E1009371
:10012C0091000FEF00939A000FEF00BB01B907B9D4
:10013C0003E003BB08E30DB900EF00930A010027AD
:10014C000AB901BB02B908B904BB0EB90FEE009392
:10015C000B010F9308E34BD55AD50F9172D50F9322
:10016C0008E345D554D50F9163D50F9308E33FD5DC
:10017C004ED50F910F9308E33AD549D50F910F93B4
:10018C0008E035D544D50F910F9301E030D53FD51C
:10019C000F910F9306E02BD53AD50F910F930EE0EC
:1001AC0026D535D50F917894F2E0E9E000E0008394
:1001BC000F9302E323D52BD50F910F9301E31ED59B
:1001CC0026D50F910F9302E319D521D50F910F93DB
:1001DC0001E314D51CD50F910F9300E20FD517D561
:1001EC000F910F9301E30AD512D50F910F9306E3EC
:1001FC0005D50DD50F910F9303E700D508D50F91B9
:10020C000F9301E3FBD403D50F910F9300ECEFD4C4
:10021C00FED40F910F9303E5F1D4F9D40F910F9302
:10022C0001E6ECD4F4D40F910F9306E6E7D4EFD4A7
:10023C000F910F9305E6E2D4EAD40F910F9300E2ED
:10024C00DDD4E5D40F910F9303E4D8D4E0D40F910F
:10025C000F9302E7D3D4DBD40F910F9301E6CED4E6
:10026C00D6D40F910F9303E6C9D4D1D40F910F9329
:10027C000BE6C4D4CCD40F910F9305E6BFD4C7D4EE
:10028C000F910F9302E7BAD4C2D40F910F9300E2EF
:10029C00B5D4BDD40F910F9300E2B0D4B8D40F9164
:1002AC000F9300E2ABD4B3D40F910F9305E4A6D413
:1002BC00AED40F910FE700930B01F2E0E8E0F2E00F
:1002CC00E9E06081F2E0EBE03DE01FEE01E010932D
:1002DC000B012FEF2A95F1F720910901202391F4BE
:1002EC00412F4095402B5081541759F040830E9468
:1002FC00C1047F3F31F072300C944D0275300C9478
:10030C001E043DE0000F003131F03A9529F730839F
:10031C003DE00C947201110F13951F3FB1F20C9438
:10032C006C01F2E0E9E001E000830F9301E05FD49F
:10033C006ED40F910F9302E361D469D40F910F9394
:10034C0001E35CD464D40F910F9302E357D45FD4D0
:10035C000F910F9301E352D45AD40F910F9300E2F3
:10036C004DD455D40F910F9301E348D450D40F9131
:10037C000F9306E343D44BD40F910F9303E73ED472
:10038C0046D40F910F9301E339D441D40F910F93BD
:10039C0000EC2DD43CD40F910F9303E52FD437D41C
:1003AC000F910F9304E72AD432D40F910F9301E6E7
:1003BC0025D42DD40F910F9302E720D428D40F917C
:1003CC000F9304E71BD423D40F910F9309E616D493
:1003DC001ED40F910F930EE611D419D40F910F93D5
:1003EC0007E60CD414D40F910F9300E207D40FD46A
:1003FC000F910F9309E602D40AD40F910F930EE6D6
:10040C00FDD305D40F910F9300E2F8D300D40F91D4
:10041C000F9303E3F3D3FBD30F910F930EE2EED3C1
:10042C00F6D30F910F930EE2E9D3F1D30F910F9303
:10043C000EE2E4D3ECD30F910F9300E1D8D3E7D3C2
:10044C000F910F9300E1D3D3E2D30F910F9300E1FF
:10045C00CED3DDD30F910F9300E1C9D3D8D30F9135
:10046C00F2E0EFE000270083F2E0EEE003E000832F
:10047C000081005D0F93002FC1D3C9D30F910F934F
:10048C0000E1B5D3C4D30F91003309F0F1CFF2E002
:10049C00E9E002E000830F9301E0A9D3B8D30F91F8
:1004AC000F9302E5ABD3B3D30F910F9305E6A6D30D
:1004BC00AED30F910F9303E7A1D3A9D30F910F9351
:1004CC0005E69CD3A4D30F910F9304E797D39FD346
:1004DC000F910F9300E292D39AD30F910F9300E5F3
:1004EC008DD395D30F910F930FE488D390D30F91A5
:1004FC000F9304E583D38BD30F910F9300E27ED33C
:10050C0086D30F910F9304E779D381D30F910F9377
:10051C000FE674D37CD30F910F9300E26FD377D394
:10052C000F910F9300E36AD372D30F910F9300ECEA
:10053C005ED36DD30F910F9302E560D368D30F9107
:10054C000F9305E65BD363D30F910F930DE656D350
:10055C005ED30F910F9301E651D359D30F910F93A3
:10056C0009E64CD354D30F910F930EE647D34FD3D8
:10057C000F910F9309E642D34AD30F910F930EE6D6
:10058C003DD345D30F910F9307E638D340D30F914A
:10059C000F930AE333D33BD30F910F9300E22ED387
:1005AC0036D30F910F9300E229D331D30F910F93D0
:1005BC0000E224D32CD30F91F2E0ECE00081003068
:1005CC00F9F000270083F2E0EFE000270083F2E06F
:1005DC00E8E00081F2E0EEE000830F9300E107D346
:1005EC0016D30F910F9300E102D311D30F910E94F8
:1005FC002105F2E0E3E00091B20006950695008338
:10060C00F2E0EEE0D2E0C4E0B2E0A0E10AE70C9345
:10061C000027B2E0A5E00C93B2E0A6E00C93B2E0A8
:10062C00A6E00C91013069F10F9300EC00937C0073
:10063C0008E000937B000DEC00937A000F91188179
:10064C00103029F4B2E0A5E001E00C9308C0B2E050
:10065C00A0E10AE70C93B2E0A5E000270C9300811F
:10066C00003011F40C9426040F9300E1C0D2CFD2C9
:10067C000F910F9300E1BBD2CAD20F910E942105BA
:10068C00CECFF2E0E9E003E000830F9301E0AFD2BC
:10069C00BED20F910F9306E4B1D2B9D20F910F9342
:1006AC0009E6ACD2B4D20F910F930EE6A7D2AFD21B
:1006BC000F910F9304E6A2D2AAD20F910F9300E2EE
:1006CC009DD2A5D20F910F9300E598D2A0D20F9195
:1006DC000F930FE493D29BD20F910F9304E58ED21C
:1006EC0096D20F910F9300E289D291D20F910F9372
:1006FC0000E584D28CD20F910F930FE67FD287D274
:10070C000F910F9303E77AD282D20F910F9300ECE3
:10071C006ED27DD20F910F9302E570D278D20F91E9
:10072C000F9305E66BD273D20F910F930DE666D241
:10073C006ED20F910F9301E661D269D20F910F9394
:10074C0009E65CD264D20F910F930EE657D25FD2BA
:10075C000F910F9309E652D25AD20F910F930EE6D6
:10076C004DD255D20F910F9307E648D250D20F912C
:10077C000F930AE343D24BD20F910F9300E23ED278
:10078C0046D20F910F9300E239D241D20F910F93C1
:10079C0000E234D23CD20F91F2E0EEE0D2E0C4E0C1
:1007AC00B2E0A3E02C9128B9B2E0A0E104EF0C93E5
:1007BC000027B2E0A5E00C93B2E0A6E00C93B2E007
:1007CC00A6E00C91013081F10F9300EC00937C00BA
:1007DC0008E000937B000DEC00937A000F911881D8
:1007EC00121729F4B2E0A5E001E00C930BC014F051
:1007FC000C944D02B2E0A0E104EF0C93B2E0A5E042
:10080C0000270C930081003011F40C9426040F93F4
:10081C0000E1EDD1FCD10F910F9300E1E8D1F7D1BC
:10082C000F910E942105CBCFF2E0E9E004E00083B8
:10083C00F2E0E9E005E00083F2E0E9E006E00083A5
:10084C00F2E0E9E007E000830F9301E0D0D1DFD1C3
:10085C000F910F9307E4D2D1DAD10F910F9301E6E8
:10086C00CDD1D5D10F910F930DE6C8D1D0D10F9129
:10087C000F9305E6C3D1CBD10F910F9300E2BED1FC
:10088C00C6D10F910F930FE4B9D1C1D10F910F9332
:10089C0006E7B4D1BCD10F910F9305E6AFD1B7D118
:1008AC000F910F9302E7AAD1B2D10F910F9300ECE5
:1008BC009ED1ADD10F910F9309E5A0D1A8D10F9185
:1008CC000F930FE69BD1A3D10F910F9305E796D110
:1008DC009ED10F910F9300E291D199D10F910F936B
:1008EC000CE48CD194D10F910F930FE687D18FD15B
:1008FC000F910F9303E782D18AD10F910F9305E6E5
:10090C007DD185D10F910F9301E278D180D10F91D8
:10091C00F2E0E9E06081F2E0EBE03DE01FEE01E0A7
:10092C0010930B012FEF2A95F1F720910901202349
:10093C0091F4412F4095402B5081541759F040832E
:10094C000E94C1047F3F31F072300C944D0275301F
:10095C000C941E043DE0000F003131F03A9529F75C
:10096C0030833DE00C949B04110F13951F3FB1F2A3
:10097C000C949504FFCF0F931F932F933F934F939A
:10098C005F936F93FF93EF93603031F0673011F00A
:10099C00663001F00C9448007FEFF2E0E8E041385B
:1009AC0041F04238A1F0443801F1483861F10C941F
:1009BC00170504E100830F9300E119D128D10F91A1
:1009CC000F9305E41BD123D10F910C9417050FE065
:1009DC0000830F9300E10BD11AD10F910F930DE40B
:1009EC000DD115D10F910C9417050AE000830F93CC
:1009FC0000E1FDD00CD10F910F9308E4FFD007D18B
:100A0C000F910C94170506E000830F9300E1EFD0D3
:100A1C00FED00F910F9308E5F1D0F9D00F910C9403
:100A2C001705EF91FF916F915F914F913F912F912E
:100A3C001F910F9108950F931F930F921F920F9375
:100A4C0000270A300F9131F000240A3018F00A50B8
:100A5C000394FBCF102D105D103331F00F93012F49
:100A6C00CDD0D5D00F9105C00F9300E2C7D0CFD019
:100A7C000F910F93002701300F9131F000240130BA
:100A8C0018F001500394FBCF102D105D0F93012F24
:100A9C00B5D0BDD00F911F900F901F910F9108955D
:100AAC000C9448000F930FB70F931F93FF93EF9382
:100ABC00F2E0EAE00081013009F101E00083F2E0AC
:100ACC00EDE000270083F2E0E9E00081003039F02E
:100ADC00063019F0073009F011C00C944800EF9162
:100AEC00FF911F910F910FBF0F910DB71EB70E5FA6
:100AFC001F4F0DBF1EBF78940C949701EF91FF917F
:100B0C001F910F910FBF0F9118950F930FB70F9364
:100B1C001F93FF93EF930091780010917900169535
:100B2C000795169507951695079516950795F2E076
:100B3C00E4E00083EF91FF911F910F910FBF0F9194
:100B4C0018950F930FB70F931F93FF93EF93F2E04A
:100B5C00E9E00081F2E0EFE0108113951083143F7F
:100B6C0069F0F2E0E5E01081103039F0F2E0E0E1FC
:100B7C0010811A951083103049F00DC01127108385
:100B8C00F2E0EEE010811A951083EBCFF2E0E6E094
:100B9C0011E01083F2CFEF91FF911F910F910FBFD6
:100BAC000F9118950F930FB70F93FF93EF93F2E0FC
:100BBC00EDE0008103950083083C29F400270083B5
:100BCC00F2E0EAE00083EF91FF910F910FBF0F91DC
:100BDC0018950F930FB70F93FF93EF93F2E0E9E0A3
:100BEC000081EF91FF910F910FBF0F91189501BBF1
:100BFC001FD0169A1DD016981BD0089501BB179ABA
:100C0C0017D0169A15D0169813D0179808950F93DD
:100C1C00002700BB01BB159A0BD0169A09D00FB157
:100C2C00169807FDF9CF15980FEF00BB0F9108959B
:100C3C008F939F939FE08CE90197F1F79F918F9190
:0E0C4C000895F6DFF5DFF4DFF3DFF2DF089541
:00000001FF
