:020000020000FC
:0C0000000C9448000C94ED010C94EE01EF
:04005C000C94EF0110
:10008C000C94F001F8940FEF0DBF01E20EBF0027A6
:10009C00F2E0E0E00083F2E0E3E00083F2E0E5E090
:1000AC000083F2E0E7E00083F2E0E8E00083F2E0B6
:1000BC00E9E0008304E1F2E0E6E000830AE000936B
:1000CC00690003E000931D0000270093240004E066
:1000DC000093250001E000936E0001E20093900074
:1000EC0004E1009391000FEF00939A000FEF00BB17
:1000FC0001B907B903E003BB08E30DB900EF0093A6
:10010C000A01002701BB02B908B904BB0EB90FEEF6
:10011C0000930B010F9308E36BD17AD10F9192D11D
:10012C000F9308E365D174D10F9183D10F9308E33A
:10013C005FD16ED10F910F9308E35AD169D10F9112
:10014C000F9308E055D164D10F910F9301E050D17A
:10015C005FD10F910F9306E04BD15AD10F910F93B2
:10016C000EE046D155D10F917894F2E0E7E000E033
:10017C0000830F9302E343D14BD10F910F9301E313
:10018C003ED146D10F910F9302E339D141D10F915A
:10019C000F9301E334D13CD10F910F9300E22FD197
:1001AC0037D10F910F9301E32AD132D10F910F93D5
:1001BC0006E325D12DD10F910F9303E720D128D140
:1001CC000F910F9301E31BD123D10F910F9300ECEF
:1001DC000FD11ED10F910F9303E511D119D10F91AE
:1001EC000F9301E60CD114D10F910F9306E607D1B2
:1001FC000FD10F910F9305E602D10AD10F910F93F6
:10020C0000E2FDD005D10F910F9303E4F8D000D19B
:10021C000F910F9302E7F3D0FBD00F910F9301E6F0
:10022C00EED0F6D00F910F9303E6E9D0F1D00F91F9
:10023C000F930BE6E4D0ECD00F910F9305E6DFD0D3
:10024C00E7D00F910F9302E7DAD0E2D00F910F9322
:10025C0000E2D5D0DDD00F910F9300E2D0D0D8D0F2
:10026C000F910F9300E2CBD0D3D00F910F9305E4F5
:10027C00C6D0CED00F910FE700930B01F2E0E6E071
:10028C00F2E0E7E06081F2E0E9E03DE01FEE01E042
:10029C0010930B012FEF2A95F1F7209109012023E0
:1002AC0091F4412F4095402B5081541759F04083C5
:1002BC000E9495017F3F31F072300C947C017530B7
:1002CC000C9488013DE0000F003131F03A9529F78C
:1002DC0030833DE00C945301110F13951F3FB1F285
:1002EC000C944D01F2E0E7E001E00083F2E0E7E07E
:1002FC0002E00083F2E0E7E003E00083F2E0E7E0F5
:10030C0004E00083F2E0E7E005E00083F2E0E7E0E0
:10031C0006E00083F2E0E7E007E00083FFCF0F93F5
:10032C001F932F933F934F935F936F93FF93EF9391
:10033C00603001F07FEF413841F04238A1F0443891
:10034C0001F1483861F10C94E30104E100830F934F
:10035C0000E14ED05DD00F910F9305E450D058D0F2
:10036C000F910C94E3010FE000830F9300E140D058
:10037C004FD00F910F930DE442D04AD00F910C94B3
:10038C00E3010AE000830F9300E132D041D00F91DA
:10039C000F9308E434D03CD00F910C94E30106E0A9
:1003AC0000830F9300E124D033D00F910F9308E515
:1003BC0026D02ED00F910C94E301EF91FF916F9109
:1003CC005F914F913F912F911F910F910895189527
:1003DC00189518950F930FB70F93FF93EF93F2E0C7
:1003EC00E7E00081EF91FF910F910FBF0F911895EE
:1003FC0001BB1FD0169A1DD016981BD0089501BBB7
:10040C00179A17D0169A15D0169813D017980895D6
:10041C000F93002700BB01BB159A0BD0169A09D07D
:10042C000FB1169807FDF9CF15980FEF00BB0F9180
:10043C0008958F939F939FE08CE90197F1F79F911B
:10044C008F910895F6DFF5DFF4DFF3DFF2DF089527
:00000001FF
