:020000020000FC
:0C0000000C9448000C9445040C94470438
:04003C000C94B1046B
:04005C000C94960466
:040074000C947A046A
:10008C000C94C804F8940FEF0DBF01E20EBF0027CB
:10009C00F2E0E0E00083F2E0E3E00083F2E0E5E090
:1000AC000083F2E0E7E00083F2E0E9E00083F2E0B5
:1000BC00EBE00083F2E0ECE00083F2E0EDE00083A3
:1000CC0004E1F2E0E6E0008301E0F2E0EAE0008324
:1000DC00F2E0E8E000830AE00093690003E00DBB66
:1000EC007894002704BD04E005BD01E000936E0088
:1000FC0000270093B00002E00093B10001E00093F0
:10010C00700001E20093900004E1009391000FEF66
:10011C0000939A000FEF00BB01B907B903E003BBD2
:10012C0008E30DB900EF00930A0100270AB901BBDF
:10013C0002B908B904BB0EB90FEE00930B010F9373
:10014C0008E32ED43DD40F9155D40F9308E328D453
:10015C0037D40F9146D40F9308E322D431D40F91A6
:10016C000F9308E31DD42CD40F910F9308E018D4EF
:10017C0027D40F910F9301E013D422D40F910F9336
:10018C0006E00ED41DD40F910F930EE009D418D4B1
:10019C000F917894F2E0E7E000E000830F9302E324
:1001AC0006D40ED40F910F9301E301D409D40F910F
:1001BC000F9302E3FCD304D40F910F9301E3F7D315
:1001CC00FFD30F910F9300E2F2D3FAD30F910F9359
:1001DC0001E3EDD3F5D30F910F9306E3E8D3F0D3FE
:1001EC000F910F9303E7E3D3EBD30F910F9301E33D
:1001FC00DED3E6D30F910F9300ECD2D3E1D30F9162
:10020C000F9303E5D4D3DCD30F910F9301E6CFD337
:10021C00D7D30F910F9306E6CAD3D2D30F910F9376
:10022C0005E6C5D3CDD30F910F9300E2C0D3C8D34D
:10023C000F910F9303E4BBD3C3D30F910F9302E73A
:10024C00B6D3BED30F910F9301E6B1D3B9D30F91AF
:10025C000F9303E6ACD3B4D30F910F930BE6A7D354
:10026C00AFD30F910F9305E6A2D3AAD30F910F939F
:10027C0002E79DD3A5D30F910F9300E298D3A0D39F
:10028C000F910F9300E293D39BD30F910F9300E246
:10029C008ED396D30F910F9305E489D391D30F91FD
:1002AC000FE700930B01F2E0E6E0F2E0E7E060819B
:1002BC00F2E0E9E03DE01FEE01E010930B012FEFBF
:1002CC002A95F1F720910901202391F4412F4095B3
:1002DC00402B5081541759F040830E94B0037F3F4C
:1002EC0031F072300C94430275300C940D033DE0E8
:1002FC00000F003131F03A9529F730833DE00C9432
:10030C006801110F13951F3FB1F20C946201F2E0DA
:10031C00E7E001E000830F9301E042D351D30F914A
:10032C000F9302E344D34CD30F910F9301E33FD3CC
:10033C0047D30F910F9302E33AD342D30F910F930C
:10034C0001E335D33DD30F910F9300E230D338D373
:10035C000F910F9301E32BD333D30F910F9306E33C
:10036C0026D32ED30F910F9303E721D329D30F91CB
:10037C000F9301E31CD324D30F910F9300EC10D3F4
:10038C001FD30F910F9303E512D31AD30F910F9331
:10039C0004E70DD315D30F910F9301E608D310D3B7
:1003AC000F910F9302E703D30BD30F910F9304E735
:1003BC00FED206D30F910F9309E6F9D201D30F9118
:1003CC000F930EE6F4D2FCD20F910F9307E6EFD207
:1003DC00F7D20F910F9300E2EAD2F2D20F910F9362
:1003EC0009E6E5D2EDD20F910F930EE6E0D2E8D2FA
:1003FC000F910F9300E2DBD2E3D20F910F9303E343
:10040C00D6D2DED20F910F930EE2D1D2D9D20F9168
:10041C000F930EE2CCD2D4D20F910F930EE2C7D22F
:10042C00CFD20F910F9300E1BBD2CAD20F910F9391
:10043C0000E1B6D2C5D20F910F9300E1B1D2C0D278
:10044C000F910F9300E1ACD2BBD20F91F2E0EDE033
:10045C0000270083F2E0ECE003E000830081005D04
:10046C000F93002FA4D2ACD20F910F9300E198D22E
:10047C00A7D20F91003309F0F1CFF2E0E7E002E0F0
:10048C0000830F9301E08CD29BD20F910F9302E566
:10049C008ED296D20F910F9305E689D291D20F91FD
:1004AC000F9303E784D28CD20F910F9305E67FD282
:1004BC0087D20F910F9304E77AD282D20F910F93C8
:1004CC0000E275D27DD20F910F9300E570D278D2F5
:1004DC000F910F930FE46BD273D20F910F9304E52E
:1004EC0066D26ED20F910F9300E261D269D20F9156
:1004FC000F9304E75CD264D20F910F930FE657D29F
:10050C005FD20F910F9300E252D25AD20F910F93F8
:10051C0000E34DD255D20F910F9300EC41D250D243
:10052C000F910F9302E543D24BD20F910F9305E637
:10053C003ED246D20F910F930DE639D241D20F9194
:10054C000F9301E634D23CD20F910F9309E62FD2D0
:10055C0037D20F910F930EE62AD232D20F910F930E
:10056C0009E625D22DD20F910F930EE620D228D278
:10057C000F910F9307E61BD223D20F910F930AE32F
:10058C0016D21ED20F910F9300E211D219D20F91F5
:10059C00F2E0EAE00081003071F000270083F2E025
:1005AC00EDE000270083F2E0E6E00081F2E0ECE011
:1005BC0000830E941004F2E0ECE0D2E0C4E00F9360
:1005CC0000EC00937C0008E000937B000DEC0093A2
:1005DC007A000F911881103001F40081003011F471
:1005EC000C9415030F9300E1DBD1EAD10F910F931B
:1005FC0000E1D6D1E5D10F910E941004E0CFF2E0DA
:10060C00E7E003E00083F2E0E7E004E00083F2E0DF
:10061C00E7E005E00083F2E0E7E006E00083F2E0CB
:10062C00E7E007E000830F9301E0BAD1C9D10F9145
:10063C000F9307E4BCD1C4D10F910F9301E6B7D14E
:10064C00BFD10F910F930DE6B2D1BAD10F910F9389
:10065C0005E6ADD1B5D10F910F9300E2A8D1B0D181
:10066C000F910F930FE4A3D1ABD10F910F9306E72A
:10067C009ED1A6D10F910F9305E699D1A1D10F91DF
:10068C000F9302E794D19CD10F910F9300EC88D17A
:10069C0097D10F910F9309E58AD192D10F910F93B6
:1006AC000FE685D18DD10F910F9305E780D188D1BD
:1006BC000F910F9300E27BD183D10F910F930CE438
:1006CC0076D17ED10F910F930FE671D179D10F9125
:1006DC000F9303E76CD174D10F910F9305E667D19B
:1006EC006FD10F910F9301E262D16AD10F91F2E0B9
:1006FC00E7E06081F2E0E9E03DE01FEE01E01093FD
:10070C000B012FEF2A95F1F720910901202391F489
:10071C00412F4095402B5081541759F040830E9433
:10072C00B0037F3F31F072300C94430275300C945F
:10073C000D033DE0000F003131F03A9529F730837D
:10074C003DE00C948A03110F13951F3FB1F20C94EA
:10075C008403FFCF0F931F932F933F934F935F937C
:10076C006F93FF93EF93603031F0673011F0663088
:10077C0001F00C9448007FEFF2E0E6E0413841F0E4
:10078C004238A1F0443801F1483861F10C94060468
:10079C0004E100830F9300E103D112D10F910F9369
:1007AC0005E405D10DD10F910C9406040FE00083E4
:1007BC000F9300E1F5D004D10F910F930DE4F7D016
:1007CC00FFD00F910C9406040AE000830F9300E114
:1007DC00E7D0F6D00F910F9308E4E9D0F1D00F9148
:1007EC000C94060406E000830F9300E1D9D0E8D006
:1007FC000F910F9308E5DBD0E3D00F910C94060416
:10080C00EF91FF916F915F914F913F912F911F91BC
:10081C000F9108950F931F930F921F920F93002720
:10082C000A300F9131F000240A3018F00A5003946A
:10083C00FBCF102D105D103331F00F93012FB7D07B
:10084C00BFD00F9105C00F9300E2B1D0B9D00F917A
:10085C000F93002701300F9131F00024013018F074
:10086C0001500394FBCF102D105D0F93012F9FD0DF
:10087C00A7D00F911F900F901F910F9108950C947A
:10088C0048000F930FB70F931F93FF93EF93F2E072
:10089C00E8E00081013009F101E00083F2E0EBE0D7
:1008AC0000270083F2E0E7E00081003039F00630E9
:1008BC0019F0073009F011C00C944800EF91FF912A
:1008CC001F910F910FBF0F910DB71EB70E5F1F4FEA
:1008DC000DBF1EBF78940C948D01EF91FF911F9169
:1008EC000F910FBF0F9118950F930FB70F931F9385
:1008FC00FF93EF930091780010917900169507956E
:10090C00169507951695079516950795F2E0E4E070
:10091C000083EF91FF911F910F910FBF0F911895CD
:10092C000F930FB70F93FF93EF93F2E0EDE000817D
:10093C0003950083043F09F008C000270083F2E010
:10094C00ECE000810A950083F7CFEF91FF910F91B6
:10095C000FBF0F9118950F930FB70F93FF93EF9352
:10096C00F2E0EBE0008103950083083C29F40027BA
:10097C000083F2E0E8E00083EF91FF910F910FBF4D
:10098C000F9118950F930FB70F93FF93EF93F2E01E
:10099C00E7E00081EF91FF910F910FBF0F91189538
:1009AC0001BB1FD0169A1DD016981BD0089501BB01
:1009BC00179A17D0169A15D0169813D01798089521
:1009CC000F93002700BB01BB159A0BD0169A09D0C8
:1009DC000FB1169807FDF9CF15980FEF00BB0F91CB
:1009EC0008958F939F939FE08CE90197F1F79F9166
:1009FC008F910895F6DFF5DFF4DFF3DFF2DF089572
:00000001FF
